{
  "contractName": "BlockchainSertifikasiPublik",
  "abi": [
    {
      "anonymous": false,
      "inputs": [
        {
          "indexed": false,
          "internalType": "bytes32",
          "name": "id",
          "type": "bytes32"
        },
        {
          "indexed": false,
          "internalType": "string",
          "name": "nim",
          "type": "string"
        },
        {
          "indexed": false,
          "internalType": "string",
          "name": "universitas",
          "type": "string"
        },
        {
          "indexed": false,
          "internalType": "string",
          "name": "cidDetail",
          "type": "string"
        },
        {
          "indexed": false,
          "internalType": "string",
          "name": "nomerSertifikat",
          "type": "string"
        },
        {
          "indexed": false,
          "internalType": "string",
          "name": "hashMetadata",
          "type": "string"
        },
        {
          "indexed": false,
          "internalType": "uint256",
          "name": "blockNumber",
          "type": "uint256"
        },
        {
          "indexed": false,
          "internalType": "uint256",
          "name": "timestamp",
          "type": "uint256"
        }
      ],
      "name": "SertifikatDiterbitkan",
      "type": "event"
    },
    {
      "inputs": [
        {
          "internalType": "uint256",
          "name": "",
          "type": "uint256"
        }
      ],
      "name": "allIds",
      "outputs": [
        {
          "internalType": "bytes32",
          "name": "",
          "type": "bytes32"
        }
      ],
      "stateMutability": "view",
      "type": "function",
      "constant": true
    },
    {
      "inputs": [
        {
          "internalType": "bytes32",
          "name": "",
          "type": "bytes32"
        }
      ],
      "name": "daftarSertifikat",
      "outputs": [
        {
          "internalType": "bytes32",
          "name": "id",
          "type": "bytes32"
        },
        {
          "internalType": "string",
          "name": "nim",
          "type": "string"
        },
        {
          "internalType": "string",
          "name": "universitas",
          "type": "string"
        },
        {
          "internalType": "string",
          "name": "cidDetail",
          "type": "string"
        },
        {
          "internalType": "string",
          "name": "hashMetadata",
          "type": "string"
        },
        {
          "internalType": "string",
          "name": "nomerSertifikat",
          "type": "string"
        },
        {
          "internalType": "uint256",
          "name": "blockNumber",
          "type": "uint256"
        },
        {
          "internalType": "uint256",
          "name": "timestamp",
          "type": "uint256"
        }
      ],
      "stateMutability": "view",
      "type": "function",
      "constant": true
    },
    {
      "inputs": [
        {
          "internalType": "string",
          "name": "",
          "type": "string"
        }
      ],
      "name": "idByHashMetadata",
      "outputs": [
        {
          "internalType": "bytes32",
          "name": "",
          "type": "bytes32"
        }
      ],
      "stateMutability": "view",
      "type": "function",
      "constant": true
    },
    {
      "inputs": [
        {
          "internalType": "string",
          "name": "",
          "type": "string"
        }
      ],
      "name": "idByNIM",
      "outputs": [
        {
          "internalType": "bytes32",
          "name": "",
          "type": "bytes32"
        }
      ],
      "stateMutability": "view",
      "type": "function",
      "constant": true
    },
    {
      "inputs": [
        {
          "components": [
            {
              "internalType": "string",
              "name": "nim",
              "type": "string"
            },
            {
              "internalType": "string",
              "name": "universitas",
              "type": "string"
            },
            {
              "internalType": "string",
              "name": "cidDetail",
              "type": "string"
            },
            {
              "internalType": "string",
              "name": "hashMetadata",
              "type": "string"
            },
            {
              "internalType": "string",
              "name": "nomerSertifikat",
              "type": "string"
            }
          ],
          "internalType": "struct BlockchainSertifikasiPublik.SertifikatInput",
          "name": "_input",
          "type": "tuple"
        }
      ],
      "name": "terbitkanSertifikat",
      "outputs": [],
      "stateMutability": "nonpayable",
      "type": "function"
    },
    {
      "inputs": [],
      "name": "getAllId",
      "outputs": [
        {
          "internalType": "bytes32[]",
          "name": "",
          "type": "bytes32[]"
        }
      ],
      "stateMutability": "view",
      "type": "function",
      "constant": true
    },
    {
      "inputs": [
        {
          "internalType": "bytes32",
          "name": "id",
          "type": "bytes32"
        }
      ],
      "name": "getSertifikatById",
      "outputs": [
        {
          "components": [
            {
              "internalType": "bytes32",
              "name": "id",
              "type": "bytes32"
            },
            {
              "internalType": "string",
              "name": "nim",
              "type": "string"
            },
            {
              "internalType": "string",
              "name": "universitas",
              "type": "string"
            },
            {
              "internalType": "string",
              "name": "cidDetail",
              "type": "string"
            },
            {
              "internalType": "string",
              "name": "hashMetadata",
              "type": "string"
            },
            {
              "internalType": "string",
              "name": "nomerSertifikat",
              "type": "string"
            },
            {
              "internalType": "uint256",
              "name": "blockNumber",
              "type": "uint256"
            },
            {
              "internalType": "uint256",
              "name": "timestamp",
              "type": "uint256"
            }
          ],
          "internalType": "struct BlockchainSertifikasiPublik.Sertifikat",
          "name": "",
          "type": "tuple"
        }
      ],
      "stateMutability": "view",
      "type": "function",
      "constant": true
    },
    {
      "inputs": [
        {
          "internalType": "string",
          "name": "_hashMetadata",
          "type": "string"
        }
      ],
      "name": "findSertifikatHash",
      "outputs": [
        {
          "components": [
            {
              "internalType": "bytes32",
              "name": "id",
              "type": "bytes32"
            },
            {
              "internalType": "string",
              "name": "nim",
              "type": "string"
            },
            {
              "internalType": "string",
              "name": "universitas",
              "type": "string"
            },
            {
              "internalType": "string",
              "name": "cidDetail",
              "type": "string"
            },
            {
              "internalType": "string",
              "name": "hashMetadata",
              "type": "string"
            },
            {
              "internalType": "string",
              "name": "nomerSertifikat",
              "type": "string"
            },
            {
              "internalType": "uint256",
              "name": "blockNumber",
              "type": "uint256"
            },
            {
              "internalType": "uint256",
              "name": "timestamp",
              "type": "uint256"
            }
          ],
          "internalType": "struct BlockchainSertifikasiPublik.Sertifikat",
          "name": "",
          "type": "tuple"
        }
      ],
      "stateMutability": "view",
      "type": "function",
      "constant": true
    }
  ],
  "bytecode": "0x6080806040523461001657611171908161001c8239f35b600080fdfe6080604052600436101561001257600080fd5b60003560e01c80631440c7c514610d48578063168dc25c14610c4557806324f2e15414610bfc5780634e25532514610ba0578063692776ea14610b695780638228f8f714610a5a578063883df3e8146109a557638ac1298d1461007457600080fd5b346109a0576003196020368201126109a057600435906001600160401b0382116109a05760a09082360301126109a05760405160a081018181106001600160401b038211176104fd5760405281600401356001600160401b0381116109a0576100e39060043691850101610f9a565b815260248201356001600160401b0381116109a0576101089060043691850101610f9a565b916020820192835260448101356001600160401b0381116109a0576101339060043691840101610f9a565b604083015260648101356001600160401b0381116109a05761015b9060043691840101610f9a565b60608301526084810135906001600160401b0382116109a05760046101839236920101610f9a565b6080820152610192815161108e565b5461094f576040810151511561091857805160808201516101fb6054604051809360208201954287523360601b60408401526101d78151809260208787019101610ee1565b82016101ec8251809360208785019101610ee1565b01036034810184520182610e1a565b51902081518351604084015160608501516080860151916040519361021f85610dfe565b8685526020850195865260408501526060840152608083015260a08201524360c08201524260e082015282600052600160205260406000209181518355518051906001600160401b0382116104fd57819061027d6001860154610dc4565b601f81116108c5575b50602090601f831160011461085357600092610848575b50508160011b916000199060031b1c19161760018301555b60408101518051906001600160401b0382116104fd5781906102da6002860154610dc4565b601f81116107f5575b50602090601f831160011461078357600092610778575b50508160011b916000199060031b1c19161760028301555b60608101518051906001600160401b0382116104fd5781906103376003860154610dc4565b601f8111610725575b50602090601f83116001146106b3576000926106a8575b50508160011b916000199060031b1c19161760038301555b60808101518051906001600160401b0382116104fd5781906103946004860154610dc4565b601f8111610655575b50602090601f83116001146105e3576000926105d8575b50508160011b916000199060031b1c19161760048301555b60a08101518051906001600160401b0382116104fd576103ef6005850154610dc4565b601f8111610591575b50602090601f831160011461051e5791806007949260e094600092610513575b50508160011b916000199060031b1c19161760058501555b60c081015160068501550151910155600054680100000000000000008110156104fd577f18d72d09c43d07d7c972ea29ed17ba8bda3fbaf003b6d407954e22bf71796689936104888260016104f894016000556110b4565b81549060031b9085821b91600019901b1916179055826104a8855161108e565b55826104c7602060608701518160405193828580945193849201610ee1565b8101600381520301902055835190519260408501519460606080820151910151906040519687964295439589610f29565b0390a1005b634e487b7160e01b600052604160045260246000fd5b015190503880610418565b90601f198316916005860160005260206000209260005b818110610579575092600192859260e0966007989610610560575b505050811b016005850155610430565b015160001960f88460031b161c19169055388080610550565b92936020600181928786015181550195019301610535565b600585016000526020600020601f840160051c8101602085106105d1575b601f830160051c820181106105c55750506103f8565b600081556001016105af565b50806105af565b0151905038806103b4565b9250600485016000526020600020906000935b601f198416851061063a576001945083601f19811610610621575b505050811b0160048301556103cc565b015160001960f88460031b161c19169055388080610611565b818101518355602094850194600190930192909101906105f6565b909150600485016000526020600020601f840160051c8101602085106106a1575b90849392915b601f830160051c8201811061069257505061039d565b6000815585945060010161067c565b5080610676565b015190503880610357565b9250600385016000526020600020906000935b601f198416851061070a576001945083601f198116106106f1575b505050811b01600383015561036f565b015160001960f88460031b161c191690553880806106e1565b818101518355602094850194600190930192909101906106c6565b909150600385016000526020600020601f840160051c810160208510610771575b90849392915b601f830160051c82018110610762575050610340565b6000815585945060010161074c565b5080610746565b0151905038806102fa565b9250600285016000526020600020906000935b601f19841685106107da576001945083601f198116106107c1575b505050811b016002830155610312565b015160001960f88460031b161c191690553880806107b1565b81810151835560209485019460019093019290910190610796565b909150600285016000526020600020601f840160051c810160208510610841575b90849392915b601f830160051c820181106108325750506102e3565b6000815585945060010161081c565b5080610816565b01519050388061029d565b9250600185016000526020600020906000935b601f19841685106108aa576001945083601f19811610610891575b505050811b0160018301556102b5565b015160001960f88460031b161c19169055388080610881565b81810151835560209485019460019093019290910190610866565b909150600185016000526020600020601f840160051c810160208510610911575b90849392915b601f830160051c82018110610902575050610286565b600081558594506001016108ec565b50806108e6565b60405162461bcd60e51b815260206004820152600f60248201526e10d251081d1a59185ac81d985b1a59608a1b6044820152606490fd5b60405162461bcd60e51b815260206004820152602360248201527f536572746966696b617420756e74756b204e494d20696e69207375646168206160448201526232309760e91b6064820152608490fd5b600080fd5b346109a05760003660031901126109a0576040518060005480835260208093018091600080527f290decd9548b62a8d60345a988386fc84ba6bc95484008f6362f93160ef3e5639060005b86828210610a46578686610a0682880383610e1a565b604051928392818401908285525180915260408401929160005b828110610a2f57505050500390f35b835185528695509381019392810192600101610a20565b8354855290930192600192830192016109f0565b346109a05760203660031901126109a057600435610a766110fe565b5080600052600160205260406000205415610b24576000526001602052610b206040600020600760405191610aaa83610dfe565b80548352610aba60018201610e3b565b6020840152610acb60028201610e3b565b6040840152610adc60038201610e3b565b6060840152610aed60048201610e3b565b6080840152610afe60058201610e3b565b60a0840152600681015460c0840152015460e082015260405191829182610ff0565b0390f35b60405162461bcd60e51b815260206004820152601b60248201527f536572746966696b617420746964616b20646974656d756b616e2e00000000006044820152606490fd5b346109a05760203660031901126109a0576004356000548110156109a057610b926020916110b4565b90546040519160031b1c8152f35b346109a05760203660031901126109a0576004356001600160401b0381116109a057610be96020610bd681933690600401610f9a565b8160405193828580945193849201610ee1565b8101600281520301902054604051908152f35b346109a05760203660031901126109a0576004356001600160401b0381116109a057610c326020610bd681933690600401610f9a565b8101600381520301902054604051908152f35b346109a0576020806003193601126109a0576004356001600160401b0381116109a05781610c7a610c96923690600401610f9a565b610c826110fe565b508160405193828580945193849201610ee1565b8101600381520301902054908115610ce757610b2091600052600181526007604060002060405192610cc784610dfe565b81548452610cd760018301610e3b565b90840152610acb60028201610e3b565b6084906040519062461bcd60e51b82526004820152603460248201527f536572746966696b61742064656e67616e2068617368206d657461646174612060448201527334b734903a34b230b5903234ba32b6bab5b0b71760611b6064820152fd5b346109a05760203660031901126109a057600435600052600160205260406000208054610b20610d7a60018401610e3b565b92610d8760028201610e3b565b90610d9460038201610e3b565b610da060048301610e3b565b610dac60058401610e3b565b91600760068501549401549460405198899889610f29565b90600182811c92168015610df4575b6020831014610dde57565b634e487b7160e01b600052602260045260246000fd5b91607f1691610dd3565b61010081019081106001600160401b038211176104fd57604052565b90601f801991011681019081106001600160401b038211176104fd57604052565b9060405191826000825492610e4f84610dc4565b908184526001948581169081600014610ebe5750600114610e7b575b5050610e7992500383610e1a565b565b9093915060005260209081600020936000915b818310610ea6575050610e7993508201013880610e6b565b85548884018501529485019487945091830191610e8e565b915050610e7994506020925060ff191682840152151560051b8201013880610e6b565b60005b838110610ef45750506000910152565b8181015183820152602001610ee4565b90602091610f1d81518092818552858086019101610ee1565b601f01601f1916010190565b9490610f9094610f6660e09895610f58610f8296610f74959e9d9c9e8b526101008060208d01528b0190610f04565b9089820360408b0152610f04565b908782036060890152610f04565b908582036080870152610f04565b9083820360a0850152610f04565b9460c08201520152565b81601f820112156109a0578035906001600160401b0382116104fd5760405192610fce601f8401601f191660200185610e1a565b828452602083830101116109a057816000926020809301838601378301015290565b6020815281516020820152602082015160e061107c61101d61010093846040870152610120860190610f04565b61106761105361103f604089015193601f1994858a83030160608b0152610f04565b6060890151848983030160808a0152610f04565b6080880151838883030160a0890152610f04565b9060a0870151908683030160c0870152610f04565b9360c081015182850152015191015290565b60206110a7918160405193828580945193849201610ee1565b8101600281520301902090565b9060009182548110156110ea578280527f290decd9548b62a8d60345a988386fc84ba6bc95484008f6362f93160ef3e563019190565b634e487b7160e01b83526032600452602483fd5b6040519061110b82610dfe565b600060e0838281526060806020830152806040830152808083015280608083015260a08201528260c0820152015256fea2646970667358221220289fc2871d32c6ac67e5d1a6217e5c403e4494b8fd6cefb10339d811c5f5aa2f64736f6c63430008130033",
  "immutableReferences": {},
  "source": "// SPDX-License-Identifier: MIT\r\npragma solidity >=0.4.22 <0.9.0;\r\n\r\ncontract BlockchainSertifikasiPublik { \r\n\r\n    bytes32[] public allIds;\r\n\r\n    struct SertifikatInput {\r\n        string nim;\r\n        string universitas;\r\n        string cidDetail;\r\n        string hashMetadata;\r\n        string nomerSertifikat;\r\n    }\r\n\r\n    struct Sertifikat {\r\n        bytes32 id;\r\n        string nim;\r\n        string universitas;\r\n        string cidDetail;\r\n        string hashMetadata;\r\n        string nomerSertifikat;\r\n        uint blockNumber;\r\n        uint timestamp;\r\n    }\r\n\r\n    mapping(bytes32 => Sertifikat) public daftarSertifikat;\r\n    mapping(string => bytes32) public idByNIM;\r\n    mapping(string => bytes32) public idByHashMetadata;\r\n\r\n    event SertifikatDiterbitkan(\r\n        bytes32 id,\r\n        string nim,\r\n        string universitas,\r\n        string cidDetail,\r\n        string nomerSertifikat,\r\n        string hashMetadata,\r\n        uint blockNumber,\r\n        uint timestamp\r\n    );\r\n\r\n    function terbitkanSertifikat(SertifikatInput memory _input) public {\r\n        require(idByNIM[_input.nim] == bytes32(0), \"Sertifikat untuk NIM ini sudah ada.\");\r\n        require(bytes(_input.cidDetail).length > 0, \"CID tidak valid\");\r\n\r\n        bytes32 id = keccak256(abi.encodePacked(block.timestamp, msg.sender, _input.nim, _input.nomerSertifikat));\r\n        uint WaktuTerbit = block.timestamp;\r\n\r\n        daftarSertifikat[id] = Sertifikat(\r\n            id,\r\n            _input.nim,\r\n            _input.universitas,\r\n            _input.cidDetail,\r\n            _input.hashMetadata,\r\n            _input.nomerSertifikat,\r\n            block.number,\r\n            WaktuTerbit\r\n        );\r\n        \r\n        allIds.push(id);\r\n        idByNIM[_input.nim] = id;\r\n        idByHashMetadata[_input.hashMetadata] = id;\r\n\r\n        emit SertifikatDiterbitkan(\r\n            id, \r\n            _input.nim, \r\n            _input.universitas, \r\n            _input.cidDetail, \r\n            _input.nomerSertifikat, \r\n            _input.hashMetadata,\r\n            block.number,\r\n            WaktuTerbit\r\n        );\r\n    }\r\n\r\n    function getAllId() public view returns (bytes32[] memory) {\r\n        return allIds;\r\n    }\r\n\r\n    function getSertifikatById(bytes32 id) public view returns (Sertifikat memory) { \r\n        require(daftarSertifikat[id].id != bytes32(0), \"Sertifikat tidak ditemukan.\");\r\n        return daftarSertifikat[id];\r\n    }\r\n\r\n    function findSertifikatHash(string memory _hashMetadata) public view returns (Sertifikat memory) {\r\n        bytes32 id = idByHashMetadata[_hashMetadata];\r\n        require(id != bytes32(0), \"Sertifikat dengan hash metadata ini tidak ditemukan.\");\r\n        return daftarSertifikat[id];\r\n    }\r\n}",
  "sourcePath": "D:\\Hamam\\Semester 8\\sertifikat_blockchain\\contracts\\BlockchainSertifikasi.sol",
  "compiler": {
    "name": "solc",
    "version": "0.8.19+commit.7dd6d404.Emscripten.clang"
  },
  "schemaVersion": "3.4.16",
  "updatedAt": "2025-07-09T07:37:16.778Z",
  "networkType": "ethereum",
  "devdoc": {
    "kind": "dev",
    "methods": {},
    "version": 1
  },
  "userdoc": {
    "kind": "user",
    "methods": {},
    "version": 1
  }
}