{
  "contractName": "BlockchainSertifikasi",
  "abi": [
    {
      "inputs": [],
      "stateMutability": "nonpayable",
      "type": "constructor"
    },
    {
      "anonymous": false,
      "inputs": [
        {
          "indexed": false,
          "internalType": "bytes32",
          "name": "id",
          "type": "bytes32"
        },
        {
          "indexed": false,
          "internalType": "string",
          "name": "nim",
          "type": "string"
        },
        {
          "indexed": false,
          "internalType": "string",
          "name": "nama",
          "type": "string"
        },
        {
          "indexed": false,
          "internalType": "string",
          "name": "tanggalTerbit",
          "type": "string"
        },
        {
          "indexed": false,
          "internalType": "string",
          "name": "hashMetadata",
          "type": "string"
        }
      ],
      "name": "SertifikatDiterbitkan",
      "type": "event"
    },
    {
      "inputs": [],
      "name": "admin",
      "outputs": [
        {
          "internalType": "address",
          "name": "",
          "type": "address"
        }
      ],
      "stateMutability": "view",
      "type": "function",
      "constant": true
    },
    {
      "inputs": [
        {
          "internalType": "uint256",
          "name": "",
          "type": "uint256"
        }
      ],
      "name": "allIds",
      "outputs": [
        {
          "internalType": "bytes32",
          "name": "",
          "type": "bytes32"
        }
      ],
      "stateMutability": "view",
      "type": "function",
      "constant": true
    },
    {
      "inputs": [
        {
          "internalType": "bytes32",
          "name": "",
          "type": "bytes32"
        }
      ],
      "name": "daftarSertifikat",
      "outputs": [
        {
          "internalType": "bytes32",
          "name": "id",
          "type": "bytes32"
        },
        {
          "internalType": "string",
          "name": "nim",
          "type": "string"
        },
        {
          "internalType": "string",
          "name": "nama",
          "type": "string"
        },
        {
          "internalType": "string",
          "name": "universitas",
          "type": "string"
        },
        {
          "internalType": "string",
          "name": "jurusan",
          "type": "string"
        },
        {
          "internalType": "string",
          "name": "tanggalTerbit",
          "type": "string"
        },
        {
          "internalType": "string",
          "name": "hashMetadata",
          "type": "string"
        },
        {
          "internalType": "string",
          "name": "cidSuratBebasPerpustakaan",
          "type": "string"
        },
        {
          "internalType": "string",
          "name": "cidSuratBebasLaboratorium",
          "type": "string"
        },
        {
          "internalType": "string",
          "name": "cidSuratBebasKeuangan",
          "type": "string"
        },
        {
          "internalType": "string",
          "name": "cidBuktiPenyerahanSkripsi",
          "type": "string"
        },
        {
          "internalType": "string",
          "name": "cidSertifikatToefl",
          "type": "string"
        },
        {
          "internalType": "uint256",
          "name": "blockNumber",
          "type": "uint256"
        },
        {
          "internalType": "bool",
          "name": "valid",
          "type": "bool"
        }
      ],
      "stateMutability": "view",
      "type": "function",
      "constant": true
    },
    {
      "inputs": [
        {
          "internalType": "string",
          "name": "",
          "type": "string"
        }
      ],
      "name": "idByHashMetadata",
      "outputs": [
        {
          "internalType": "bytes32",
          "name": "",
          "type": "bytes32"
        }
      ],
      "stateMutability": "view",
      "type": "function",
      "constant": true
    },
    {
      "inputs": [
        {
          "components": [
            {
              "internalType": "string",
              "name": "nim",
              "type": "string"
            },
            {
              "internalType": "string",
              "name": "nama",
              "type": "string"
            },
            {
              "internalType": "string",
              "name": "universitas",
              "type": "string"
            },
            {
              "internalType": "string",
              "name": "jurusan",
              "type": "string"
            },
            {
              "internalType": "string",
              "name": "tanggalTerbit",
              "type": "string"
            },
            {
              "internalType": "string",
              "name": "hashMetadata",
              "type": "string"
            },
            {
              "internalType": "string",
              "name": "cidSuratBebasPerpustakaan",
              "type": "string"
            },
            {
              "internalType": "string",
              "name": "cidSuratBebasLaboratorium",
              "type": "string"
            },
            {
              "internalType": "string",
              "name": "cidSuratBebasKeuangan",
              "type": "string"
            },
            {
              "internalType": "string",
              "name": "cidBuktiPenyerahanSkripsi",
              "type": "string"
            },
            {
              "internalType": "string",
              "name": "cidSertifikatToefl",
              "type": "string"
            }
          ],
          "internalType": "struct BlockchainSertifikasi.SertifikatInput",
          "name": "_input",
          "type": "tuple"
        }
      ],
      "name": "terbitkanSertifikat",
      "outputs": [],
      "stateMutability": "nonpayable",
      "type": "function"
    },
    {
      "inputs": [],
      "name": "getSertifikatCount",
      "outputs": [
        {
          "internalType": "uint256",
          "name": "",
          "type": "uint256"
        }
      ],
      "stateMutability": "view",
      "type": "function",
      "constant": true
    },
    {
      "inputs": [
        {
          "internalType": "bytes32",
          "name": "id",
          "type": "bytes32"
        }
      ],
      "name": "getSertifikatById",
      "outputs": [
        {
          "components": [
            {
              "internalType": "bytes32",
              "name": "id",
              "type": "bytes32"
            },
            {
              "internalType": "string",
              "name": "nim",
              "type": "string"
            },
            {
              "internalType": "string",
              "name": "nama",
              "type": "string"
            },
            {
              "internalType": "string",
              "name": "universitas",
              "type": "string"
            },
            {
              "internalType": "string",
              "name": "jurusan",
              "type": "string"
            },
            {
              "internalType": "string",
              "name": "tanggalTerbit",
              "type": "string"
            },
            {
              "internalType": "string",
              "name": "hashMetadata",
              "type": "string"
            },
            {
              "internalType": "string",
              "name": "cidSuratBebasPerpustakaan",
              "type": "string"
            },
            {
              "internalType": "string",
              "name": "cidSuratBebasLaboratorium",
              "type": "string"
            },
            {
              "internalType": "string",
              "name": "cidSuratBebasKeuangan",
              "type": "string"
            },
            {
              "internalType": "string",
              "name": "cidBuktiPenyerahanSkripsi",
              "type": "string"
            },
            {
              "internalType": "string",
              "name": "cidSertifikatToefl",
              "type": "string"
            },
            {
              "internalType": "uint256",
              "name": "blockNumber",
              "type": "uint256"
            },
            {
              "internalType": "bool",
              "name": "valid",
              "type": "bool"
            }
          ],
          "internalType": "struct BlockchainSertifikasi.Sertifikat",
          "name": "",
          "type": "tuple"
        }
      ],
      "stateMutability": "view",
      "type": "function",
      "constant": true
    },
    {
      "inputs": [
        {
          "internalType": "string",
          "name": "_hashMetadata",
          "type": "string"
        }
      ],
      "name": "getSertifikatByHash",
      "outputs": [
        {
          "components": [
            {
              "internalType": "bytes32",
              "name": "id",
              "type": "bytes32"
            },
            {
              "internalType": "string",
              "name": "nim",
              "type": "string"
            },
            {
              "internalType": "string",
              "name": "nama",
              "type": "string"
            },
            {
              "internalType": "string",
              "name": "universitas",
              "type": "string"
            },
            {
              "internalType": "string",
              "name": "jurusan",
              "type": "string"
            },
            {
              "internalType": "string",
              "name": "tanggalTerbit",
              "type": "string"
            },
            {
              "internalType": "string",
              "name": "hashMetadata",
              "type": "string"
            },
            {
              "internalType": "string",
              "name": "cidSuratBebasPerpustakaan",
              "type": "string"
            },
            {
              "internalType": "string",
              "name": "cidSuratBebasLaboratorium",
              "type": "string"
            },
            {
              "internalType": "string",
              "name": "cidSuratBebasKeuangan",
              "type": "string"
            },
            {
              "internalType": "string",
              "name": "cidBuktiPenyerahanSkripsi",
              "type": "string"
            },
            {
              "internalType": "string",
              "name": "cidSertifikatToefl",
              "type": "string"
            },
            {
              "internalType": "uint256",
              "name": "blockNumber",
              "type": "uint256"
            },
            {
              "internalType": "bool",
              "name": "valid",
              "type": "bool"
            }
          ],
          "internalType": "struct BlockchainSertifikasi.Sertifikat",
          "name": "",
          "type": "tuple"
        }
      ],
      "stateMutability": "view",
      "type": "function",
      "constant": true
    }
  ],
  "bytecode": "0x6080806040523461002857600080546001600160a01b03191633179055611c05908161002e8239f35b600080fdfe6080604052600436101561001257600080fd5b60003560e01c80631440c7c51461164257806324f2e154146115e657806325e35593146115c8578063692776ea146115915780638228f8f7146114d35780638a5eb18514611306578063a31765b8146100a25763f851a4401461007457600080fd5b3461009d57600036600319011261009d576000546040516001600160a01b039091168152602090f35b600080fd5b3461009d5760031960203682011261009d576001600160401b036004351161009d57610160906004353603011261009d5760405161016081018181106001600160401b0382111761090657604052600435600401356001600160401b03811161009d57610116906004369181350101611940565b8152602460043501356001600160401b03811161009d5761013e906004369181350101611940565b6020820152604460043501356001600160401b03811161009d57610169906004369181350101611940565b6040820152606460043501356001600160401b03811161009d57610194906004369181350101611940565b6060820152608460043501356001600160401b03811161009d576101bf906004369181350101611940565b608082015260a460043501356001600160401b03811161009d576101ea906004369181350101611940565b60a082015260c460043501356001600160401b03811161009d57610215906004369181350101611940565b60c082015260e460043501356001600160401b03811161009d57610240906004369181350101611940565b60e082015261010460043501356001600160401b03811161009d5761026c906004369181350101611940565b6101008201526001600160401b0361012460043501351161009d5761029c36600480356101248101350101611940565b6101208201526001600160401b0361014460043501351161009d576102cc36600480356101448101350101611940565b6101408201526000546001600160a01b031633036112ab576102ee8151611996565b5461125a5761030060a08201516119bc565b546112045780516020820151610354604080518093602082019542875261033081518092602087870191016118f8565b820161034582518093602087850191016118f8565b01036020810184520182611831565b519020908051602082015160408301516060840151608085015160a086015160c08701519060e088015192610100890151946101208a0151966101408b0151986040519a6103a18c611815565b8d8c5260208c015260408b015260608a0152608089015260a088015260c087015260e08601526101008501526101208401526101408301526101608201524361018082015260016101a082015282600052600260205260406000208151815560208201518051906001600160401b03821161090657819061042560018501546117db565b601f81116111b1575b50602090601f831160011461113f57600092611134575b50508160011b916000199060031b1c19161760018201555b60408201518051906001600160401b03821161090657819061048260028501546117db565b601f81116110e1575b50602090601f831160011461106f57600092611064575b50508160011b916000199060031b1c19161760028201555b60608201518051906001600160401b0382116109065781906104df60038501546117db565b601f8111611011575b50602090601f8311600114610f9f57600092610f94575b50508160011b916000199060031b1c19161760038201555b60808201518051906001600160401b03821161090657819061053c60048501546117db565b601f8111610f41575b50602090601f8311600114610ecf57600092610ec4575b50508160011b916000199060031b1c19161760048201555b60a08201518051906001600160401b03821161090657819061059960058501546117db565b601f8111610e71575b50602090601f8311600114610dff57600092610df4575b50508160011b916000199060031b1c19161760058201555b60c08201518051906001600160401b0382116109065781906105f660068501546117db565b601f8111610da1575b50602090601f8311600114610d2f57600092610d24575b50508160011b916000199060031b1c19161760068201555b60e08201518051906001600160401b03821161090657819061065360078501546117db565b601f8111610cd1575b50602090601f8311600114610c5f57600092610c54575b50508160011b916000199060031b1c19161760078201555b6101008201518051906001600160401b0382116109065781906106b160088501546117db565b601f8111610c01575b50602090601f8311600114610b8f57600092610b84575b50508160011b916000199060031b1c19161760088201555b6101208201518051906001600160401b03821161090657819061070f60098501546117db565b601f8111610b31575b50602090601f8311600114610abf57600092610ab4575b50508160011b916000199060031b1c19161760098201555b6101408201518051906001600160401b03821161090657819061076d600a8501546117db565b601f8111610a61575b50602090601f83116001146109ef576000926109e4575b50508160011b916000199060031b1c191617600a8201555b6101608201518051906001600160401b038211610906576107c9600b8401546117db565b601f811161099d575b50602090601f83116001146109275791806101a09492600d9460009261091c575b50508160011b916000199060031b1c191617600b8201555b610180840151600c82015501910151151560ff8019835416911617905560015491680100000000000000008310156109065761086e8360017ffb6a1f32b3ac84f8a388ea0a30b3304aeede3e165dc0019fe30014f4a5f8988a95016001556119e2565b81549060031b9083821b91600019901b19161790558061088e8351611996565b558061089d60a08401516119bc565b556109018251926108f36020820151916108e560a06080830151920151936108d7604051988998895260a060208a015260a089019061191b565b90878203604089015261191b565b90858203606087015261191b565b90838203608085015261191b565b0390a1005b634e487b7160e01b600052604160045260246000fd5b0151905088806107f3565b90600b840160005260206000209160005b601f19851681106109855750926101a09492600192600d9583601f1981161061096c575b505050811b01600b82015561080b565b015160001960f88460031b161c1916905588808061095c565b91926020600181928685015181550194019201610938565b600b84016000526020600020601f840160051c8101602085106109dd575b601f830160051c820181106109d15750506107d2565b600081556001016109bb565b50806109bb565b01519050868061078d565b9250600a84016000526020600020906000935b601f1984168510610a46576001945083601f19811610610a2d575b505050811b01600a8201556107a5565b015160001960f88460031b161c19169055868080610a1d565b81810151835560209485019460019093019290910190610a02565b909150600a84016000526020600020601f840160051c810160208510610aad575b90849392915b601f830160051c82018110610a9e575050610776565b60008155859450600101610a88565b5080610a82565b01519050868061072f565b9250600984016000526020600020906000935b601f1984168510610b16576001945083601f19811610610afd575b505050811b016009820155610747565b015160001960f88460031b161c19169055868080610aed565b81810151835560209485019460019093019290910190610ad2565b909150600984016000526020600020601f840160051c810160208510610b7d575b90849392915b601f830160051c82018110610b6e575050610718565b60008155859450600101610b58565b5080610b52565b0151905086806106d1565b9250600884016000526020600020906000935b601f1984168510610be6576001945083601f19811610610bcd575b505050811b0160088201556106e9565b015160001960f88460031b161c19169055868080610bbd565b81810151835560209485019460019093019290910190610ba2565b909150600884016000526020600020601f840160051c810160208510610c4d575b90849392915b601f830160051c82018110610c3e5750506106ba565b60008155859450600101610c28565b5080610c22565b015190508680610673565b9250600784016000526020600020906000935b601f1984168510610cb6576001945083601f19811610610c9d575b505050811b01600782015561068b565b015160001960f88460031b161c19169055868080610c8d565b81810151835560209485019460019093019290910190610c72565b909150600784016000526020600020601f840160051c810160208510610d1d575b90849392915b601f830160051c82018110610d0e57505061065c565b60008155859450600101610cf8565b5080610cf2565b015190508680610616565b9250600684016000526020600020906000935b601f1984168510610d86576001945083601f19811610610d6d575b505050811b01600682015561062e565b015160001960f88460031b161c19169055868080610d5d565b81810151835560209485019460019093019290910190610d42565b909150600684016000526020600020601f840160051c810160208510610ded575b90849392915b601f830160051c82018110610dde5750506105ff565b60008155859450600101610dc8565b5080610dc2565b0151905086806105b9565b9250600584016000526020600020906000935b601f1984168510610e56576001945083601f19811610610e3d575b505050811b0160058201556105d1565b015160001960f88460031b161c19169055868080610e2d565b81810151835560209485019460019093019290910190610e12565b909150600584016000526020600020601f840160051c810160208510610ebd575b90849392915b601f830160051c82018110610eae5750506105a2565b60008155859450600101610e98565b5080610e92565b01519050868061055c565b9250600484016000526020600020906000935b601f1984168510610f26576001945083601f19811610610f0d575b505050811b016004820155610574565b015160001960f88460031b161c19169055868080610efd565b81810151835560209485019460019093019290910190610ee2565b909150600484016000526020600020601f840160051c810160208510610f8d575b90849392915b601f830160051c82018110610f7e575050610545565b60008155859450600101610f68565b5080610f62565b0151905086806104ff565b9250600384016000526020600020906000935b601f1984168510610ff6576001945083601f19811610610fdd575b505050811b016003820155610517565b015160001960f88460031b161c19169055868080610fcd565b81810151835560209485019460019093019290910190610fb2565b909150600384016000526020600020601f840160051c81016020851061105d575b90849392915b601f830160051c8201811061104e5750506104e8565b60008155859450600101611038565b5080611032565b0151905086806104a2565b9250600284016000526020600020906000935b601f19841685106110c6576001945083601f198116106110ad575b505050811b0160028201556104ba565b015160001960f88460031b161c1916905586808061109d565b81810151835560209485019460019093019290910190611082565b909150600284016000526020600020601f840160051c81016020851061112d575b90849392915b601f830160051c8201811061111e57505061048b565b60008155859450600101611108565b5080611102565b015190508680610445565b9250600184016000526020600020906000935b601f1984168510611196576001945083601f1981161061117d575b505050811b01600182015561045d565b015160001960f88460031b161c1916905586808061116d565b81810151835560209485019460019093019290910190611152565b909150600184016000526020600020601f840160051c8101602085106111fd575b90849392915b601f830160051c820181106111ee57505061042e565b600081558594506001016111d8565b50806111d2565b60405162461bcd60e51b815260206004820152602860248201527f4d6574616461746120736572746966696b617420696e69207375646168207465604482015267393230b33a30b91760c11b6064820152608490fd5b60405162461bcd60e51b815260206004820152602360248201527f536572746966696b617420756e74756b204e494d20696e69207375646168206160448201526232309760e91b6064820152608490fd5b60405162461bcd60e51b815260206004820152602d60248201527f48616e79612061646d696e2079616e67206461706174206d656e6a616c616e6b60448201526c616e2066756e67736920696e6960981b6064820152608490fd5b3461009d5760208060031936011261009d576004356001600160401b03811161009d578161133b611357923690600401611940565b611343611b68565b5081604051938285809451938492016118f8565b81016004815203019020549081156114725761146e916000526002815260ff600d60406000206040519361138a85611815565b8154855261139a60018301611852565b908501526113aa60028201611852565b60408501526113bb60038201611852565b60608501526113cc60048201611852565b60808501526113dd60058201611852565b60a08501526113ee60068201611852565b60c08501526113ff60078201611852565b60e085015261141060088201611852565b61010085015261142260098201611852565b610120850152611434600a8201611852565b610140850152611446600b8201611852565b610160850152600c81015461018085015201541615156101a082015260405191829182611a2f565b0390f35b6084906040519062461bcd60e51b82526004820152603460248201527f536572746966696b61742064656e67616e2068617368206d657461646174612060448201527334b734903a34b230b5903234ba32b6bab5b0b71760611b6064820152fd5b3461009d57602036600319011261009d576004356114ef611b68565b5080600052600260205260ff600d60406000200154161561154c57600052600260205261146e604060002060ff600d6040519261152b84611815565b8054845261153b60018201611852565b60208501526113aa60028201611852565b60405162461bcd60e51b815260206004820152601b60248201527f536572746966696b617420746964616b20646974656d756b616e2e00000000006044820152606490fd5b3461009d57602036600319011261009d5760043560015481101561009d576115ba6020916119e2565b90546040519160031b1c8152f35b3461009d57600036600319011261009d576020600154604051908152f35b3461009d57602036600319011261009d576004356001600160401b03811161009d5761162f602061161c81933690600401611940565b81604051938285809451938492016118f8565b8101600481520301902054604051908152f35b3461009d57602036600319011261009d576004356000526002602052604060002080546001820161167290611852565b9161167f60028201611852565b61168b60038301611852565b61169760048401611852565b6116a360058501611852565b6116af60068601611852565b6116bb60078701611852565b6116c760088801611852565b916116d460098901611852565b936116e1600a8a01611852565b956116ee600b8b01611852565b97600c8b01549a600d015460ff16996040519d8e9d8e528d6101c0908160208201520161171a9161191b565b8d810360408f015261172b9161191b565b8c810360608e015261173c9161191b565b8b810360808d015261174d9161191b565b8a810360a08c015261175e9161191b565b89810360c08b015261176f9161191b565b88810360e08a01526117809161191b565b8781036101008901526117929161191b565b8681036101208801526117a49161191b565b8581036101408701526117b69161191b565b8481036101608601526117c89161191b565b9161018084015215156101a08301520390f35b90600182811c9216801561180b575b60208310146117f557565b634e487b7160e01b600052602260045260246000fd5b91607f16916117ea565b6101c081019081106001600160401b0382111761090657604052565b90601f801991011681019081106001600160401b0382111761090657604052565b9060405191826000825492611866846117db565b9081845260019485811690816000146118d55750600114611892575b505061189092500383611831565b565b9093915060005260209081600020936000915b8183106118bd57505061189093508201013880611882565b855488840185015294850194879450918301916118a5565b91505061189094506020925060ff191682840152151560051b8201013880611882565b60005b83811061190b5750506000910152565b81810151838201526020016118fb565b90602091611934815180928185528580860191016118f8565b601f01601f1916010190565b81601f8201121561009d578035906001600160401b0382116109065760405192611974601f8401601f191660200185611831565b8284526020838301011161009d57816000926020809301838601378301015290565b60206119af9181604051938285809451938492016118f8565b8101600381520301902090565b60206119d59181604051938285809451938492016118f8565b8101600481520301902090565b600154811015611a195760016000527fb10e2d527612073b26eecdfd717e6a320cf44b4afac2b0732d9fcbe2b7fa0cf60190600090565b634e487b7160e01b600052603260045260246000fd5b60208152815160208201526020820151611a576101c0918260408501526101e084019061191b565b92611b51611ad3611abf611aab611a97611a83604087015199601f199a8b8b83030160608c015261191b565b60608701518a8a83030160808b015261191b565b6080860151898983030160a08a015261191b565b60a0850151888883030160c089015261191b565b60c0840151878783030160e088015261191b565b611b3c611b25611b0e611af760e087015194610100958b8b830301878c015261191b565b9386015193610120948a8a830301868b015261191b565b9285015192610140938989830301858a015261191b565b91840151916101609288888303018489015261191b565b9083015161018096868303018787015261191b565b93810151906101a091828501520151151591015290565b60405190611b7582611815565b60006101a083828152606080602083015280604083015280808301528060808301528060a08301528060c08301528060e083015280610100830152806101208301528061014083015261016082015282610180820152015256fea26469706673582212203878fb24c94fb193810f89e08ffd5c9d43740792d546b4fac87fca6cb7ee2e3e64736f6c63430008130033",
  "immutableReferences": {},
  "source": "// SPDX-License-Identifier: MIT\r\npragma solidity >=0.4.22 <0.9.0;\r\n\r\ncontract BlockchainSertifikasi { \r\n    address public admin;\r\n    bytes32[] public allIds;\r\n\r\n    struct SertifikatInput {\r\n        string nim;\r\n        string nama;\r\n        string universitas;\r\n        string jurusan;\r\n        string tanggalTerbit;\r\n        string hashMetadata;\r\n        string cidSuratBebasPerpustakaan;\r\n        string cidSuratBebasLaboratorium;\r\n        string cidSuratBebasKeuangan;\r\n        string cidBuktiPenyerahanSkripsi;\r\n        string cidSertifikatToefl;\r\n    }\r\n\r\n    struct Sertifikat {\r\n        bytes32 id;\r\n        string nim;\r\n        string nama;\r\n        string universitas;\r\n        string jurusan;\r\n        string tanggalTerbit;\r\n        string hashMetadata; // <-- DIUBAH MENJADI STRING\r\n        string cidSuratBebasPerpustakaan;\r\n        string cidSuratBebasLaboratorium;\r\n        string cidSuratBebasKeuangan;\r\n        string cidBuktiPenyerahanSkripsi;\r\n        string cidSertifikatToefl;\r\n        uint blockNumber;\r\n        bool valid;\r\n    }\r\n\r\n    mapping(bytes32 => Sertifikat) public daftarSertifikat;\r\n    mapping(string => bytes32) internal idByNIM;\r\n    // Kunci mapping diubah menjadi string karena hashMetadata sekarang string\r\n    mapping(string => bytes32) public idByHashMetadata; // <-- DIUBAH MENJADI STRING KEY\r\n\r\n    event SertifikatDiterbitkan(\r\n        bytes32 id,\r\n        string nim,\r\n        string nama,\r\n        string tanggalTerbit,\r\n        string hashMetadata // <-- DIUBAH MENJADI STRING\r\n    );\r\n\r\n    modifier hanyaAdmin() {\r\n        require(msg.sender == admin, \"Hanya admin yang dapat menjalankan fungsi ini\");\r\n        _;\r\n    }\r\n\r\n    constructor() {\r\n        admin = msg.sender;\r\n    }\r\n\r\n    function terbitkanSertifikat(SertifikatInput memory _input) public hanyaAdmin {\r\n        require(idByNIM[_input.nim] == bytes32(0), \"Sertifikat untuk NIM ini sudah ada.\");\r\n        // Pengecekan keunikan hash menggunakan string key\r\n        require(idByHashMetadata[_input.hashMetadata] == bytes32(0), \"Metadata sertifikat ini sudah terdaftar.\");\r\n\r\n        bytes32 id = keccak256(abi.encodePacked(block.timestamp, _input.nim, _input.nama));\r\n\r\n        daftarSertifikat[id] = Sertifikat(\r\n            id,\r\n            _input.nim,\r\n            _input.nama,\r\n            _input.universitas,\r\n            _input.jurusan,\r\n            _input.tanggalTerbit,\r\n            _input.hashMetadata, // Disimpan sebagai string\r\n            _input.cidSuratBebasPerpustakaan,\r\n            _input.cidSuratBebasLaboratorium,\r\n            _input.cidSuratBebasKeuangan,\r\n            _input.cidBuktiPenyerahanSkripsi,\r\n            _input.cidSertifikatToefl,\r\n            block.number,\r\n            true\r\n        );\r\n        \r\n        allIds.push(id);\r\n        idByNIM[_input.nim] = id;\r\n        idByHashMetadata[_input.hashMetadata] = id;\r\n\r\n        emit SertifikatDiterbitkan(id, _input.nim, _input.nama, _input.tanggalTerbit, _input.hashMetadata);\r\n    }\r\n\r\n    // Tambahkan fungsi ini di dalam contract BlockchainSertifikasi\r\n    function getSertifikatCount() public view returns (uint256) {\r\n        return allIds.length;\r\n    }\r\n\r\n    function getSertifikatById(bytes32 id) public view returns (Sertifikat memory) { \r\n        require(daftarSertifikat[id].valid, \"Sertifikat tidak ditemukan.\");\r\n        return daftarSertifikat[id];\r\n    }\r\n\r\n    // Fungsi ini sekarang menerima string sebagai parameter\r\n    function getSertifikatByHash(string memory _hashMetadata) public view returns (Sertifikat memory) { // <-- DIUBAH MENJADI STRING\r\n        bytes32 id = idByHashMetadata[_hashMetadata];\r\n        require(id != bytes32(0), \"Sertifikat dengan hash metadata ini tidak ditemukan.\");\r\n        return daftarSertifikat[id];\r\n    }\r\n}",
  "sourcePath": "D:\\Hamam\\Semester 8\\sertifikat_blockchain\\contracts\\BlockchainSertifikasi.sol",
  "compiler": {
    "name": "solc",
    "version": "0.8.19+commit.7dd6d404.Emscripten.clang"
  },
  "schemaVersion": "3.4.16",
  "updatedAt": "2025-06-21T19:20:23.484Z",
  "networkType": "ethereum",
  "devdoc": {
    "kind": "dev",
    "methods": {},
    "version": 1
  },
  "userdoc": {
    "kind": "user",
    "methods": {},
    "version": 1
  }
}