{
  "contractName": "BlockchainSertifikasi",
  "abi": [
    {
      "inputs": [],
      "stateMutability": "nonpayable",
      "type": "constructor"
    },
    {
      "anonymous": false,
      "inputs": [
        {
          "indexed": false,
          "internalType": "bytes32",
          "name": "id",
          "type": "bytes32"
        },
        {
          "indexed": false,
          "internalType": "string",
          "name": "nim",
          "type": "string"
        },
        {
          "indexed": false,
          "internalType": "string",
          "name": "nama",
          "type": "string"
        },
        {
          "indexed": false,
          "internalType": "string",
          "name": "tanggalTerbit",
          "type": "string"
        },
        {
          "indexed": false,
          "internalType": "string",
          "name": "hashMetadata",
          "type": "string"
        }
      ],
      "name": "SertifikatDiterbitkan",
      "type": "event"
    },
    {
      "inputs": [],
      "name": "admin",
      "outputs": [
        {
          "internalType": "address",
          "name": "",
          "type": "address"
        }
      ],
      "stateMutability": "view",
      "type": "function",
      "constant": true
    },
    {
      "inputs": [
        {
          "internalType": "uint256",
          "name": "",
          "type": "uint256"
        }
      ],
      "name": "allIds",
      "outputs": [
        {
          "internalType": "bytes32",
          "name": "",
          "type": "bytes32"
        }
      ],
      "stateMutability": "view",
      "type": "function",
      "constant": true
    },
    {
      "inputs": [
        {
          "internalType": "bytes32",
          "name": "",
          "type": "bytes32"
        }
      ],
      "name": "daftarSertifikat",
      "outputs": [
        {
          "internalType": "bytes32",
          "name": "id",
          "type": "bytes32"
        },
        {
          "internalType": "string",
          "name": "nim",
          "type": "string"
        },
        {
          "internalType": "string",
          "name": "nama",
          "type": "string"
        },
        {
          "internalType": "string",
          "name": "universitas",
          "type": "string"
        },
        {
          "internalType": "string",
          "name": "jurusan",
          "type": "string"
        },
        {
          "internalType": "string",
          "name": "tanggalTerbit",
          "type": "string"
        },
        {
          "internalType": "string",
          "name": "hashMetadata",
          "type": "string"
        },
        {
          "internalType": "string",
          "name": "cidSuratBebasPerpustakaan",
          "type": "string"
        },
        {
          "internalType": "string",
          "name": "cidSuratBebasLaboratorium",
          "type": "string"
        },
        {
          "internalType": "string",
          "name": "cidSuratBebasKeuangan",
          "type": "string"
        },
        {
          "internalType": "string",
          "name": "cidBuktiPenyerahanSkripsi",
          "type": "string"
        },
        {
          "internalType": "string",
          "name": "cidSertifikatToefl",
          "type": "string"
        },
        {
          "internalType": "uint256",
          "name": "blockNumber",
          "type": "uint256"
        },
        {
          "internalType": "bool",
          "name": "valid",
          "type": "bool"
        }
      ],
      "stateMutability": "view",
      "type": "function",
      "constant": true
    },
    {
      "inputs": [
        {
          "internalType": "string",
          "name": "",
          "type": "string"
        }
      ],
      "name": "idByHashMetadata",
      "outputs": [
        {
          "internalType": "bytes32",
          "name": "",
          "type": "bytes32"
        }
      ],
      "stateMutability": "view",
      "type": "function",
      "constant": true
    },
    {
      "inputs": [
        {
          "components": [
            {
              "internalType": "string",
              "name": "nim",
              "type": "string"
            },
            {
              "internalType": "string",
              "name": "nama",
              "type": "string"
            },
            {
              "internalType": "string",
              "name": "universitas",
              "type": "string"
            },
            {
              "internalType": "string",
              "name": "jurusan",
              "type": "string"
            },
            {
              "internalType": "string",
              "name": "tanggalTerbit",
              "type": "string"
            },
            {
              "internalType": "string",
              "name": "hashMetadata",
              "type": "string"
            },
            {
              "internalType": "string",
              "name": "cidSuratBebasPerpustakaan",
              "type": "string"
            },
            {
              "internalType": "string",
              "name": "cidSuratBebasLaboratorium",
              "type": "string"
            },
            {
              "internalType": "string",
              "name": "cidSuratBebasKeuangan",
              "type": "string"
            },
            {
              "internalType": "string",
              "name": "cidBuktiPenyerahanSkripsi",
              "type": "string"
            },
            {
              "internalType": "string",
              "name": "cidSertifikatToefl",
              "type": "string"
            }
          ],
          "internalType": "struct BlockchainSertifikasi.SertifikatInput",
          "name": "_input",
          "type": "tuple"
        }
      ],
      "name": "terbitkanSertifikat",
      "outputs": [],
      "stateMutability": "nonpayable",
      "type": "function"
    },
    {
      "inputs": [],
      "name": "getAllId",
      "outputs": [
        {
          "internalType": "bytes32[]",
          "name": "",
          "type": "bytes32[]"
        }
      ],
      "stateMutability": "view",
      "type": "function",
      "constant": true
    },
    {
      "inputs": [
        {
          "internalType": "bytes32",
          "name": "id",
          "type": "bytes32"
        }
      ],
      "name": "getSertifikatById",
      "outputs": [
        {
          "components": [
            {
              "internalType": "bytes32",
              "name": "id",
              "type": "bytes32"
            },
            {
              "internalType": "string",
              "name": "nim",
              "type": "string"
            },
            {
              "internalType": "string",
              "name": "nama",
              "type": "string"
            },
            {
              "internalType": "string",
              "name": "universitas",
              "type": "string"
            },
            {
              "internalType": "string",
              "name": "jurusan",
              "type": "string"
            },
            {
              "internalType": "string",
              "name": "tanggalTerbit",
              "type": "string"
            },
            {
              "internalType": "string",
              "name": "hashMetadata",
              "type": "string"
            },
            {
              "internalType": "string",
              "name": "cidSuratBebasPerpustakaan",
              "type": "string"
            },
            {
              "internalType": "string",
              "name": "cidSuratBebasLaboratorium",
              "type": "string"
            },
            {
              "internalType": "string",
              "name": "cidSuratBebasKeuangan",
              "type": "string"
            },
            {
              "internalType": "string",
              "name": "cidBuktiPenyerahanSkripsi",
              "type": "string"
            },
            {
              "internalType": "string",
              "name": "cidSertifikatToefl",
              "type": "string"
            },
            {
              "internalType": "uint256",
              "name": "blockNumber",
              "type": "uint256"
            },
            {
              "internalType": "bool",
              "name": "valid",
              "type": "bool"
            }
          ],
          "internalType": "struct BlockchainSertifikasi.Sertifikat",
          "name": "",
          "type": "tuple"
        }
      ],
      "stateMutability": "view",
      "type": "function",
      "constant": true
    },
    {
      "inputs": [
        {
          "internalType": "string",
          "name": "_hashMetadata",
          "type": "string"
        }
      ],
      "name": "getSertifikatByHash",
      "outputs": [
        {
          "components": [
            {
              "internalType": "bytes32",
              "name": "id",
              "type": "bytes32"
            },
            {
              "internalType": "string",
              "name": "nim",
              "type": "string"
            },
            {
              "internalType": "string",
              "name": "nama",
              "type": "string"
            },
            {
              "internalType": "string",
              "name": "universitas",
              "type": "string"
            },
            {
              "internalType": "string",
              "name": "jurusan",
              "type": "string"
            },
            {
              "internalType": "string",
              "name": "tanggalTerbit",
              "type": "string"
            },
            {
              "internalType": "string",
              "name": "hashMetadata",
              "type": "string"
            },
            {
              "internalType": "string",
              "name": "cidSuratBebasPerpustakaan",
              "type": "string"
            },
            {
              "internalType": "string",
              "name": "cidSuratBebasLaboratorium",
              "type": "string"
            },
            {
              "internalType": "string",
              "name": "cidSuratBebasKeuangan",
              "type": "string"
            },
            {
              "internalType": "string",
              "name": "cidBuktiPenyerahanSkripsi",
              "type": "string"
            },
            {
              "internalType": "string",
              "name": "cidSertifikatToefl",
              "type": "string"
            },
            {
              "internalType": "uint256",
              "name": "blockNumber",
              "type": "uint256"
            },
            {
              "internalType": "bool",
              "name": "valid",
              "type": "bool"
            }
          ],
          "internalType": "struct BlockchainSertifikasi.Sertifikat",
          "name": "",
          "type": "tuple"
        }
      ],
      "stateMutability": "view",
      "type": "function",
      "constant": true
    }
  ],
  "bytecode": "0x6080806040523461002857600080546001600160a01b03191633179055611c95908161002e8239f35b600080fdfe6080604052600436101561001257600080fd5b60003560e01c80631440c7c5146116d257806324f2e15414611676578063692776ea1461163f5780638228f8f714611581578063883df3e8146114d35780638a5eb18514611306578063a31765b8146100a25763f851a4401461007457600080fd5b3461009d57600036600319011261009d576000546040516001600160a01b039091168152602090f35b600080fd5b3461009d5760031960203682011261009d576001600160401b036004351161009d57610160906004353603011261009d5760405161016081018181106001600160401b0382111761090657604052600435600401356001600160401b03811161009d576101169060043691813501016119d0565b8152602460043501356001600160401b03811161009d5761013e9060043691813501016119d0565b6020820152604460043501356001600160401b03811161009d576101699060043691813501016119d0565b6040820152606460043501356001600160401b03811161009d576101949060043691813501016119d0565b6060820152608460043501356001600160401b03811161009d576101bf9060043691813501016119d0565b608082015260a460043501356001600160401b03811161009d576101ea9060043691813501016119d0565b60a082015260c460043501356001600160401b03811161009d576102159060043691813501016119d0565b60c082015260e460043501356001600160401b03811161009d576102409060043691813501016119d0565b60e082015261010460043501356001600160401b03811161009d5761026c9060043691813501016119d0565b6101008201526001600160401b0361012460043501351161009d5761029c366004803561012481013501016119d0565b6101208201526001600160401b0361014460043501351161009d576102cc366004803561014481013501016119d0565b6101408201526000546001600160a01b031633036112ab576102ee8151611a26565b5461125a5761030060a0820151611a4c565b54611204578051602082015161035460408051809360208201954287526103308151809260208787019101611988565b82016103458251809360208785019101611988565b010360208101845201826118c1565b519020908051602082015160408301516060840151608085015160a086015160c08701519060e088015192610100890151946101208a0151966101408b0151986040519a6103a18c6118a5565b8d8c5260208c015260408b015260608a0152608089015260a088015260c087015260e08601526101008501526101208401526101408301526101608201524361018082015260016101a082015282600052600260205260406000208151815560208201518051906001600160401b038211610906578190610425600185015461186b565b601f81116111b1575b50602090601f831160011461113f57600092611134575b50508160011b916000199060031b1c19161760018201555b60408201518051906001600160401b038211610906578190610482600285015461186b565b601f81116110e1575b50602090601f831160011461106f57600092611064575b50508160011b916000199060031b1c19161760028201555b60608201518051906001600160401b0382116109065781906104df600385015461186b565b601f8111611011575b50602090601f8311600114610f9f57600092610f94575b50508160011b916000199060031b1c19161760038201555b60808201518051906001600160401b03821161090657819061053c600485015461186b565b601f8111610f41575b50602090601f8311600114610ecf57600092610ec4575b50508160011b916000199060031b1c19161760048201555b60a08201518051906001600160401b038211610906578190610599600585015461186b565b601f8111610e71575b50602090601f8311600114610dff57600092610df4575b50508160011b916000199060031b1c19161760058201555b60c08201518051906001600160401b0382116109065781906105f6600685015461186b565b601f8111610da1575b50602090601f8311600114610d2f57600092610d24575b50508160011b916000199060031b1c19161760068201555b60e08201518051906001600160401b038211610906578190610653600785015461186b565b601f8111610cd1575b50602090601f8311600114610c5f57600092610c54575b50508160011b916000199060031b1c19161760078201555b6101008201518051906001600160401b0382116109065781906106b1600885015461186b565b601f8111610c01575b50602090601f8311600114610b8f57600092610b84575b50508160011b916000199060031b1c19161760088201555b6101208201518051906001600160401b03821161090657819061070f600985015461186b565b601f8111610b31575b50602090601f8311600114610abf57600092610ab4575b50508160011b916000199060031b1c19161760098201555b6101408201518051906001600160401b03821161090657819061076d600a85015461186b565b601f8111610a61575b50602090601f83116001146109ef576000926109e4575b50508160011b916000199060031b1c191617600a8201555b6101608201518051906001600160401b038211610906576107c9600b84015461186b565b601f811161099d575b50602090601f83116001146109275791806101a09492600d9460009261091c575b50508160011b916000199060031b1c191617600b8201555b610180840151600c82015501910151151560ff8019835416911617905560015491680100000000000000008310156109065761086e8360017ffb6a1f32b3ac84f8a388ea0a30b3304aeede3e165dc0019fe30014f4a5f8988a9501600155611a72565b81549060031b9083821b91600019901b19161790558061088e8351611a26565b558061089d60a0840151611a4c565b556109018251926108f36020820151916108e560a06080830151920151936108d7604051988998895260a060208a015260a08901906119ab565b9087820360408901526119ab565b9085820360608701526119ab565b9083820360808501526119ab565b0390a1005b634e487b7160e01b600052604160045260246000fd5b0151905088806107f3565b90600b840160005260206000209160005b601f19851681106109855750926101a09492600192600d9583601f1981161061096c575b505050811b01600b82015561080b565b015160001960f88460031b161c1916905588808061095c565b91926020600181928685015181550194019201610938565b600b84016000526020600020601f840160051c8101602085106109dd575b601f830160051c820181106109d15750506107d2565b600081556001016109bb565b50806109bb565b01519050868061078d565b9250600a84016000526020600020906000935b601f1984168510610a46576001945083601f19811610610a2d575b505050811b01600a8201556107a5565b015160001960f88460031b161c19169055868080610a1d565b81810151835560209485019460019093019290910190610a02565b909150600a84016000526020600020601f840160051c810160208510610aad575b90849392915b601f830160051c82018110610a9e575050610776565b60008155859450600101610a88565b5080610a82565b01519050868061072f565b9250600984016000526020600020906000935b601f1984168510610b16576001945083601f19811610610afd575b505050811b016009820155610747565b015160001960f88460031b161c19169055868080610aed565b81810151835560209485019460019093019290910190610ad2565b909150600984016000526020600020601f840160051c810160208510610b7d575b90849392915b601f830160051c82018110610b6e575050610718565b60008155859450600101610b58565b5080610b52565b0151905086806106d1565b9250600884016000526020600020906000935b601f1984168510610be6576001945083601f19811610610bcd575b505050811b0160088201556106e9565b015160001960f88460031b161c19169055868080610bbd565b81810151835560209485019460019093019290910190610ba2565b909150600884016000526020600020601f840160051c810160208510610c4d575b90849392915b601f830160051c82018110610c3e5750506106ba565b60008155859450600101610c28565b5080610c22565b015190508680610673565b9250600784016000526020600020906000935b601f1984168510610cb6576001945083601f19811610610c9d575b505050811b01600782015561068b565b015160001960f88460031b161c19169055868080610c8d565b81810151835560209485019460019093019290910190610c72565b909150600784016000526020600020601f840160051c810160208510610d1d575b90849392915b601f830160051c82018110610d0e57505061065c565b60008155859450600101610cf8565b5080610cf2565b015190508680610616565b9250600684016000526020600020906000935b601f1984168510610d86576001945083601f19811610610d6d575b505050811b01600682015561062e565b015160001960f88460031b161c19169055868080610d5d565b81810151835560209485019460019093019290910190610d42565b909150600684016000526020600020601f840160051c810160208510610ded575b90849392915b601f830160051c82018110610dde5750506105ff565b60008155859450600101610dc8565b5080610dc2565b0151905086806105b9565b9250600584016000526020600020906000935b601f1984168510610e56576001945083601f19811610610e3d575b505050811b0160058201556105d1565b015160001960f88460031b161c19169055868080610e2d565b81810151835560209485019460019093019290910190610e12565b909150600584016000526020600020601f840160051c810160208510610ebd575b90849392915b601f830160051c82018110610eae5750506105a2565b60008155859450600101610e98565b5080610e92565b01519050868061055c565b9250600484016000526020600020906000935b601f1984168510610f26576001945083601f19811610610f0d575b505050811b016004820155610574565b015160001960f88460031b161c19169055868080610efd565b81810151835560209485019460019093019290910190610ee2565b909150600484016000526020600020601f840160051c810160208510610f8d575b90849392915b601f830160051c82018110610f7e575050610545565b60008155859450600101610f68565b5080610f62565b0151905086806104ff565b9250600384016000526020600020906000935b601f1984168510610ff6576001945083601f19811610610fdd575b505050811b016003820155610517565b015160001960f88460031b161c19169055868080610fcd565b81810151835560209485019460019093019290910190610fb2565b909150600384016000526020600020601f840160051c81016020851061105d575b90849392915b601f830160051c8201811061104e5750506104e8565b60008155859450600101611038565b5080611032565b0151905086806104a2565b9250600284016000526020600020906000935b601f19841685106110c6576001945083601f198116106110ad575b505050811b0160028201556104ba565b015160001960f88460031b161c1916905586808061109d565b81810151835560209485019460019093019290910190611082565b909150600284016000526020600020601f840160051c81016020851061112d575b90849392915b601f830160051c8201811061111e57505061048b565b60008155859450600101611108565b5080611102565b015190508680610445565b9250600184016000526020600020906000935b601f1984168510611196576001945083601f1981161061117d575b505050811b01600182015561045d565b015160001960f88460031b161c1916905586808061116d565b81810151835560209485019460019093019290910190611152565b909150600184016000526020600020601f840160051c8101602085106111fd575b90849392915b601f830160051c820181106111ee57505061042e565b600081558594506001016111d8565b50806111d2565b60405162461bcd60e51b815260206004820152602860248201527f4d6574616461746120736572746966696b617420696e69207375646168207465604482015267393230b33a30b91760c11b6064820152608490fd5b60405162461bcd60e51b815260206004820152602360248201527f536572746966696b617420756e74756b204e494d20696e69207375646168206160448201526232309760e91b6064820152608490fd5b60405162461bcd60e51b815260206004820152602d60248201527f48616e79612061646d696e2079616e67206461706174206d656e6a616c616e6b60448201526c616e2066756e67736920696e6960981b6064820152608490fd5b3461009d5760208060031936011261009d576004356001600160401b03811161009d578161133b6113579236906004016119d0565b611343611bf8565b508160405193828580945193849201611988565b81016004815203019020549081156114725761146e916000526002815260ff600d60406000206040519361138a856118a5565b8154855261139a600183016118e2565b908501526113aa600282016118e2565b60408501526113bb600382016118e2565b60608501526113cc600482016118e2565b60808501526113dd600582016118e2565b60a08501526113ee600682016118e2565b60c08501526113ff600782016118e2565b60e0850152611410600882016118e2565b610100850152611422600982016118e2565b610120850152611434600a82016118e2565b610140850152611446600b82016118e2565b610160850152600c81015461018085015201541615156101a082015260405191829182611abf565b0390f35b6084906040519062461bcd60e51b82526004820152603460248201527f536572746966696b61742064656e67616e2068617368206d657461646174612060448201527334b734903a34b230b5903234ba32b6bab5b0b71760611b6064820152fd5b3461009d57600036600319011261009d5760405180600180549283815260208091018094836000527fb10e2d527612073b26eecdfd717e6a320cf44b4afac2b0732d9fcbe2b7fa0cf69060005b81811061156e57505050836115369103846118c1565b60405192818401908285525180915260408401949160005b82811061155b5785870386f35b835187529581019592810192840161154e565b8254845292840192918501918501611520565b3461009d57602036600319011261009d5760043561159d611bf8565b5080600052600260205260ff600d6040600020015416156115fa57600052600260205261146e604060002060ff600d604051926115d9846118a5565b805484526115e9600182016118e2565b60208501526113aa600282016118e2565b60405162461bcd60e51b815260206004820152601b60248201527f536572746966696b617420746964616b20646974656d756b616e2e00000000006044820152606490fd5b3461009d57602036600319011261009d5760043560015481101561009d57611668602091611a72565b90546040519160031b1c8152f35b3461009d57602036600319011261009d576004356001600160401b03811161009d576116bf60206116ac819336906004016119d0565b8160405193828580945193849201611988565b8101600481520301902054604051908152f35b3461009d57602036600319011261009d5760043560005260026020526040600020805460018201611702906118e2565b9161170f600282016118e2565b61171b600383016118e2565b611727600484016118e2565b611733600585016118e2565b61173f600686016118e2565b61174b600787016118e2565b611757600888016118e2565b91611764600989016118e2565b93611771600a8a016118e2565b9561177e600b8b016118e2565b97600c8b01549a600d015460ff16996040519d8e9d8e528d6101c090816020820152016117aa916119ab565b8d810360408f01526117bb916119ab565b8c810360608e01526117cc916119ab565b8b810360808d01526117dd916119ab565b8a810360a08c01526117ee916119ab565b89810360c08b01526117ff916119ab565b88810360e08a0152611810916119ab565b878103610100890152611822916119ab565b868103610120880152611834916119ab565b858103610140870152611846916119ab565b848103610160860152611858916119ab565b9161018084015215156101a08301520390f35b90600182811c9216801561189b575b602083101461188557565b634e487b7160e01b600052602260045260246000fd5b91607f169161187a565b6101c081019081106001600160401b0382111761090657604052565b90601f801991011681019081106001600160401b0382111761090657604052565b90604051918260008254926118f68461186b565b9081845260019485811690816000146119655750600114611922575b5050611920925003836118c1565b565b9093915060005260209081600020936000915b81831061194d57505061192093508201013880611912565b85548884018501529485019487945091830191611935565b91505061192094506020925060ff191682840152151560051b8201013880611912565b60005b83811061199b5750506000910152565b818101518382015260200161198b565b906020916119c481518092818552858086019101611988565b601f01601f1916010190565b81601f8201121561009d578035906001600160401b0382116109065760405192611a04601f8401601f1916602001856118c1565b8284526020838301011161009d57816000926020809301838601378301015290565b6020611a3f918160405193828580945193849201611988565b8101600381520301902090565b6020611a65918160405193828580945193849201611988565b8101600481520301902090565b600154811015611aa95760016000527fb10e2d527612073b26eecdfd717e6a320cf44b4afac2b0732d9fcbe2b7fa0cf60190600090565b634e487b7160e01b600052603260045260246000fd5b60208152815160208201526020820151611ae76101c0918260408501526101e08401906119ab565b92611be1611b63611b4f611b3b611b27611b13604087015199601f199a8b8b83030160608c01526119ab565b60608701518a8a83030160808b01526119ab565b6080860151898983030160a08a01526119ab565b60a0850151888883030160c08901526119ab565b60c0840151878783030160e08801526119ab565b611bcc611bb5611b9e611b8760e087015194610100958b8b830301878c01526119ab565b9386015193610120948a8a830301868b01526119ab565b9285015192610140938989830301858a01526119ab565b9184015191610160928888830301848901526119ab565b908301516101809686830301878701526119ab565b93810151906101a091828501520151151591015290565b60405190611c05826118a5565b60006101a083828152606080602083015280604083015280808301528060808301528060a08301528060c08301528060e083015280610100830152806101208301528061014083015261016082015282610180820152015256fea2646970667358221220f008a92d838c5d19e94f219b0e921a673c5b9ca473ed3ba3741bb3569619772664736f6c63430008130033",
  "immutableReferences": {},
  "source": "// SPDX-License-Identifier: MIT\r\npragma solidity >=0.4.22 <0.9.0;\r\n\r\ncontract BlockchainSertifikasi { \r\n    address public admin;\r\n    bytes32[] public allIds;\r\n\r\n    struct SertifikatInput {\r\n        string nim;\r\n        string nama;\r\n        string universitas;\r\n        string jurusan;\r\n        string tanggalTerbit;\r\n        string hashMetadata;\r\n        string cidSuratBebasPerpustakaan;\r\n        string cidSuratBebasLaboratorium;\r\n        string cidSuratBebasKeuangan;\r\n        string cidBuktiPenyerahanSkripsi;\r\n        string cidSertifikatToefl;\r\n    }\r\n\r\n    struct Sertifikat {\r\n        bytes32 id;\r\n        string nim;\r\n        string nama;\r\n        string universitas;\r\n        string jurusan;\r\n        string tanggalTerbit;\r\n        string hashMetadata; // <-- DIUBAH MENJADI STRING\r\n        string cidSuratBebasPerpustakaan;\r\n        string cidSuratBebasLaboratorium;\r\n        string cidSuratBebasKeuangan;\r\n        string cidBuktiPenyerahanSkripsi;\r\n        string cidSertifikatToefl;\r\n        uint blockNumber;\r\n        bool valid;\r\n    }\r\n\r\n    mapping(bytes32 => Sertifikat) public daftarSertifikat;\r\n    mapping(string => bytes32) internal idByNIM;\r\n    // Kunci mapping diubah menjadi string karena hashMetadata sekarang string\r\n    mapping(string => bytes32) public idByHashMetadata; // <-- DIUBAH MENJADI STRING KEY\r\n\r\n    event SertifikatDiterbitkan(\r\n        bytes32 id,\r\n        string nim,\r\n        string nama,\r\n        string tanggalTerbit,\r\n        string hashMetadata // <-- DIUBAH MENJADI STRING\r\n    );\r\n\r\n    modifier hanyaAdmin() {\r\n        require(msg.sender == admin, \"Hanya admin yang dapat menjalankan fungsi ini\");\r\n        _;\r\n    }\r\n\r\n    constructor() {\r\n        admin = msg.sender;\r\n    }\r\n\r\n    function terbitkanSertifikat(SertifikatInput memory _input) public hanyaAdmin {\r\n        require(idByNIM[_input.nim] == bytes32(0), \"Sertifikat untuk NIM ini sudah ada.\");\r\n        // Pengecekan keunikan hash menggunakan string key\r\n        require(idByHashMetadata[_input.hashMetadata] == bytes32(0), \"Metadata sertifikat ini sudah terdaftar.\");\r\n\r\n        bytes32 id = keccak256(abi.encodePacked(block.timestamp, _input.nim, _input.nama));\r\n\r\n        daftarSertifikat[id] = Sertifikat(\r\n            id,\r\n            _input.nim,\r\n            _input.nama,\r\n            _input.universitas,\r\n            _input.jurusan,\r\n            _input.tanggalTerbit,\r\n            _input.hashMetadata, // Disimpan sebagai string\r\n            _input.cidSuratBebasPerpustakaan,\r\n            _input.cidSuratBebasLaboratorium,\r\n            _input.cidSuratBebasKeuangan,\r\n            _input.cidBuktiPenyerahanSkripsi,\r\n            _input.cidSertifikatToefl,\r\n            block.number,\r\n            true\r\n        );\r\n        \r\n        allIds.push(id);\r\n        idByNIM[_input.nim] = id;\r\n        idByHashMetadata[_input.hashMetadata] = id;\r\n\r\n        emit SertifikatDiterbitkan(id, _input.nim, _input.nama, _input.tanggalTerbit, _input.hashMetadata);\r\n    }\r\n\r\n    // Tambahkan fungsi ini di dalam contract BlockchainSertifikasi\r\n    function getAllId() public view returns (bytes32[] memory) {\r\n        return allIds;\r\n    }\r\n\r\n    function getSertifikatById(bytes32 id) public view returns (Sertifikat memory) { \r\n        require(daftarSertifikat[id].valid, \"Sertifikat tidak ditemukan.\");\r\n        return daftarSertifikat[id];\r\n    }\r\n\r\n    // Fungsi ini sekarang menerima string sebagai parameter\r\n    function getSertifikatByHash(string memory _hashMetadata) public view returns (Sertifikat memory) { // <-- DIUBAH MENJADI STRING\r\n        bytes32 id = idByHashMetadata[_hashMetadata];\r\n        require(id != bytes32(0), \"Sertifikat dengan hash metadata ini tidak ditemukan.\");\r\n        return daftarSertifikat[id];\r\n    }\r\n}",
  "sourcePath": "D:\\Hamam\\Semester 8\\sertifikat_blockchain\\contracts\\BlockchainSertifikasi.sol",
  "compiler": {
    "name": "solc",
    "version": "0.8.19+commit.7dd6d404.Emscripten.clang"
  },
  "schemaVersion": "3.4.16",
  "updatedAt": "2025-06-21T19:31:22.844Z",
  "networkType": "ethereum",
  "devdoc": {
    "kind": "dev",
    "methods": {},
    "version": 1
  },
  "userdoc": {
    "kind": "user",
    "methods": {},
    "version": 1
  }
}