{
  "contractName": "BlockchainSertifikasi",
  "abi": [
    {
      "inputs": [],
      "stateMutability": "nonpayable",
      "type": "constructor"
    },
    {
      "anonymous": false,
      "inputs": [
        {
          "indexed": false,
          "internalType": "uint256",
          "name": "id",
          "type": "uint256"
        },
        {
          "indexed": false,
          "internalType": "address",
          "name": "penerima",
          "type": "address"
        },
        {
          "indexed": false,
          "internalType": "string",
          "name": "nama",
          "type": "string"
        },
        {
          "indexed": false,
          "internalType": "string",
          "name": "kursus",
          "type": "string"
        },
        {
          "indexed": false,
          "internalType": "string",
          "name": "institusi",
          "type": "string"
        },
        {
          "indexed": false,
          "internalType": "string",
          "name": "tanggal",
          "type": "string"
        }
      ],
      "name": "SertifikatDiterbitkan",
      "type": "event"
    },
    {
      "inputs": [],
      "name": "admin",
      "outputs": [
        {
          "internalType": "address",
          "name": "",
          "type": "address"
        }
      ],
      "stateMutability": "view",
      "type": "function",
      "constant": true
    },
    {
      "inputs": [
        {
          "internalType": "uint256",
          "name": "",
          "type": "uint256"
        }
      ],
      "name": "daftarSertifikat",
      "outputs": [
        {
          "internalType": "uint256",
          "name": "id",
          "type": "uint256"
        },
        {
          "internalType": "address",
          "name": "penerima",
          "type": "address"
        },
        {
          "internalType": "string",
          "name": "nama",
          "type": "string"
        },
        {
          "internalType": "string",
          "name": "kursus",
          "type": "string"
        },
        {
          "internalType": "string",
          "name": "institusi",
          "type": "string"
        },
        {
          "internalType": "string",
          "name": "tanggal",
          "type": "string"
        },
        {
          "internalType": "bool",
          "name": "valid",
          "type": "bool"
        }
      ],
      "stateMutability": "view",
      "type": "function",
      "constant": true
    },
    {
      "inputs": [],
      "name": "jumlahSertifikat",
      "outputs": [
        {
          "internalType": "uint256",
          "name": "",
          "type": "uint256"
        }
      ],
      "stateMutability": "view",
      "type": "function",
      "constant": true
    },
    {
      "inputs": [
        {
          "internalType": "address",
          "name": "",
          "type": "address"
        },
        {
          "internalType": "uint256",
          "name": "",
          "type": "uint256"
        }
      ],
      "name": "sertifikatByPenerima",
      "outputs": [
        {
          "internalType": "uint256",
          "name": "",
          "type": "uint256"
        }
      ],
      "stateMutability": "view",
      "type": "function",
      "constant": true
    },
    {
      "inputs": [
        {
          "internalType": "address",
          "name": "penerima",
          "type": "address"
        },
        {
          "internalType": "string",
          "name": "nama",
          "type": "string"
        },
        {
          "internalType": "string",
          "name": "kursus",
          "type": "string"
        },
        {
          "internalType": "string",
          "name": "institusi",
          "type": "string"
        },
        {
          "internalType": "string",
          "name": "tanggal",
          "type": "string"
        }
      ],
      "name": "terbitkanSertifikat",
      "outputs": [],
      "stateMutability": "nonpayable",
      "type": "function"
    },
    {
      "inputs": [
        {
          "internalType": "uint256",
          "name": "id",
          "type": "uint256"
        }
      ],
      "name": "verifikasiSertifikat",
      "outputs": [
        {
          "internalType": "address",
          "name": "penerima",
          "type": "address"
        },
        {
          "internalType": "string",
          "name": "nama",
          "type": "string"
        },
        {
          "internalType": "string",
          "name": "kursus",
          "type": "string"
        },
        {
          "internalType": "string",
          "name": "institusi",
          "type": "string"
        },
        {
          "internalType": "string",
          "name": "tanggal",
          "type": "string"
        },
        {
          "internalType": "bool",
          "name": "valid",
          "type": "bool"
        }
      ],
      "stateMutability": "view",
      "type": "function",
      "constant": true
    },
    {
      "inputs": [
        {
          "internalType": "address",
          "name": "penerima",
          "type": "address"
        }
      ],
      "name": "cekSertifikatByPenerima",
      "outputs": [
        {
          "internalType": "uint256[]",
          "name": "",
          "type": "uint256[]"
        }
      ],
      "stateMutability": "view",
      "type": "function",
      "constant": true
    }
  ],
  "bytecode": "0x608060405234801561001057600080fd5b50336000806101000a81548173ffffffffffffffffffffffffffffffffffffffff021916908373ffffffffffffffffffffffffffffffffffffffff1602179055506116e8806100606000396000f3fe608060405234801561001057600080fd5b506004361061007d5760003560e01c8063ce7164271161005b578063ce71642714610103578063eb3603b514610133578063f55f6ba914610151578063f851a440146101875761007d565b806337a5722a14610082578063a1fed220146100b2578063c25bf03f146100e7575b600080fd5b61009c60048036038101906100979190610be7565b6101a5565b6040516100a99190610c36565b60405180910390f35b6100cc60048036038101906100c79190610c51565b6101d6565b6040516100de96959493929190610d38565b60405180910390f35b61010160048036038101906100fc9190610eea565b61055c565b005b61011d60048036038101906101189190610fd5565b6107ef565b60405161012a91906110c0565b60405180910390f35b61013b610886565b6040516101489190610c36565b60405180910390f35b61016b60048036038101906101669190610c51565b61088c565b60405161017e97969594939291906110e2565b60405180910390f35b61018f610b1b565b60405161019c919061116d565b60405180910390f35b600260205281600052604060002081815481106101c157600080fd5b90600052602060002001600091509150505481565b600060608060608060006001600088815260200190815260200160002060060160009054906101000a900460ff16610243576040517f08c379a000000000000000000000000000000000000000000000000000000000815260040161023a906111fa565b60405180910390fd5b6000600160008981526020019081526020016000206040518060e0016040529081600082015481526020016001820160009054906101000a900473ffffffffffffffffffffffffffffffffffffffff1673ffffffffffffffffffffffffffffffffffffffff1673ffffffffffffffffffffffffffffffffffffffff1681526020016002820180546102d390611249565b80601f01602080910402602001604051908101604052809291908181526020018280546102ff90611249565b801561034c5780601f106103215761010080835404028352916020019161034c565b820191906000526020600020905b81548152906001019060200180831161032f57829003601f168201915b5050505050815260200160038201805461036590611249565b80601f016020809104026020016040519081016040528092919081815260200182805461039190611249565b80156103de5780601f106103b3576101008083540402835291602001916103de565b820191906000526020600020905b8154815290600101906020018083116103c157829003601f168201915b505050505081526020016004820180546103f790611249565b80601f016020809104026020016040519081016040528092919081815260200182805461042390611249565b80156104705780601f1061044557610100808354040283529160200191610470565b820191906000526020600020905b81548152906001019060200180831161045357829003601f168201915b5050505050815260200160058201805461048990611249565b80601f01602080910402602001604051908101604052809291908181526020018280546104b590611249565b80156105025780601f106104d757610100808354040283529160200191610502565b820191906000526020600020905b8154815290600101906020018083116104e557829003601f168201915b505050505081526020016006820160009054906101000a900460ff161515151581525050905080602001518160400151826060015183608001518460a001518560c001519650965096509650965096505091939550919395565b60008054906101000a900473ffffffffffffffffffffffffffffffffffffffff1673ffffffffffffffffffffffffffffffffffffffff163373ffffffffffffffffffffffffffffffffffffffff16146105ea576040517f08c379a00000000000000000000000000000000000000000000000000000000081526004016105e1906112ec565b60405180910390fd5b600060016003546105fb919061133b565b90506040518060e001604052808281526020018773ffffffffffffffffffffffffffffffffffffffff16815260200186815260200185815260200184815260200183815260200160011515815250600160008381526020019081526020016000206000820151816000015560208201518160010160006101000a81548173ffffffffffffffffffffffffffffffffffffffff021916908373ffffffffffffffffffffffffffffffffffffffff16021790555060408201518160020190816106c2919061151b565b5060608201518160030190816106d8919061151b565b5060808201518160040190816106ee919061151b565b5060a0820151816005019081610704919061151b565b5060c08201518160060160006101000a81548160ff021916908315150217905550905050600260008773ffffffffffffffffffffffffffffffffffffffff1673ffffffffffffffffffffffffffffffffffffffff168152602001908152602001600020819080600181540180825580915050600190039060005260206000200160009091909190915055600360008154809291906107a1906115ed565b91905055507fcda99dce475e5bad11ba3aacdfc4d4fc15b217ffbe5eedc0c8bf2be27139fe4f8187878787876040516107df96959493929190611635565b60405180910390a1505050505050565b6060600260008373ffffffffffffffffffffffffffffffffffffffff1673ffffffffffffffffffffffffffffffffffffffff16815260200190815260200160002080548060200260200160405190810160405280929190818152602001828054801561087a57602002820191906000526020600020905b815481526020019060010190808311610866575b50505050509050919050565b60035481565b60016020528060005260406000206000915090508060000154908060010160009054906101000a900473ffffffffffffffffffffffffffffffffffffffff16908060020180546108db90611249565b80601f016020809104026020016040519081016040528092919081815260200182805461090790611249565b80156109545780601f1061092957610100808354040283529160200191610954565b820191906000526020600020905b81548152906001019060200180831161093757829003601f168201915b50505050509080600301805461096990611249565b80601f016020809104026020016040519081016040528092919081815260200182805461099590611249565b80156109e25780601f106109b7576101008083540402835291602001916109e2565b820191906000526020600020905b8154815290600101906020018083116109c557829003601f168201915b5050505050908060040180546109f790611249565b80601f0160208091040260200160405190810160405280929190818152602001828054610a2390611249565b8015610a705780601f10610a4557610100808354040283529160200191610a70565b820191906000526020600020905b815481529060010190602001808311610a5357829003601f168201915b505050505090806005018054610a8590611249565b80601f0160208091040260200160405190810160405280929190818152602001828054610ab190611249565b8015610afe5780601f10610ad357610100808354040283529160200191610afe565b820191906000526020600020905b815481529060010190602001808311610ae157829003601f168201915b5050505050908060060160009054906101000a900460ff16905087565b60008054906101000a900473ffffffffffffffffffffffffffffffffffffffff1681565b6000604051905090565b600080fd5b600080fd5b600073ffffffffffffffffffffffffffffffffffffffff82169050919050565b6000610b7e82610b53565b9050919050565b610b8e81610b73565b8114610b9957600080fd5b50565b600081359050610bab81610b85565b92915050565b6000819050919050565b610bc481610bb1565b8114610bcf57600080fd5b50565b600081359050610be181610bbb565b92915050565b60008060408385031215610bfe57610bfd610b49565b5b6000610c0c85828601610b9c565b9250506020610c1d85828601610bd2565b9150509250929050565b610c3081610bb1565b82525050565b6000602082019050610c4b6000830184610c27565b92915050565b600060208284031215610c6757610c66610b49565b5b6000610c7584828501610bd2565b91505092915050565b610c8781610b73565b82525050565b600081519050919050565b600082825260208201905092915050565b60005b83811015610cc7578082015181840152602081019050610cac565b60008484015250505050565b6000601f19601f8301169050919050565b6000610cef82610c8d565b610cf98185610c98565b9350610d09818560208601610ca9565b610d1281610cd3565b840191505092915050565b60008115159050919050565b610d3281610d1d565b82525050565b600060c082019050610d4d6000830189610c7e565b8181036020830152610d5f8188610ce4565b90508181036040830152610d738187610ce4565b90508181036060830152610d878186610ce4565b90508181036080830152610d9b8185610ce4565b9050610daa60a0830184610d29565b979650505050505050565b600080fd5b600080fd5b7f4e487b7100000000000000000000000000000000000000000000000000000000600052604160045260246000fd5b610df782610cd3565b810181811067ffffffffffffffff82111715610e1657610e15610dbf565b5b80604052505050565b6000610e29610b3f565b9050610e358282610dee565b919050565b600067ffffffffffffffff821115610e5557610e54610dbf565b5b610e5e82610cd3565b9050602081019050919050565b82818337600083830152505050565b6000610e8d610e8884610e3a565b610e1f565b905082815260208101848484011115610ea957610ea8610dba565b5b610eb4848285610e6b565b509392505050565b600082601f830112610ed157610ed0610db5565b5b8135610ee1848260208601610e7a565b91505092915050565b600080600080600060a08688031215610f0657610f05610b49565b5b6000610f1488828901610b9c565b955050602086013567ffffffffffffffff811115610f3557610f34610b4e565b5b610f4188828901610ebc565b945050604086013567ffffffffffffffff811115610f6257610f61610b4e565b5b610f6e88828901610ebc565b935050606086013567ffffffffffffffff811115610f8f57610f8e610b4e565b5b610f9b88828901610ebc565b925050608086013567ffffffffffffffff811115610fbc57610fbb610b4e565b5b610fc888828901610ebc565b9150509295509295909350565b600060208284031215610feb57610fea610b49565b5b6000610ff984828501610b9c565b91505092915050565b600081519050919050565b600082825260208201905092915050565b6000819050602082019050919050565b61103781610bb1565b82525050565b6000611049838361102e565b60208301905092915050565b6000602082019050919050565b600061106d82611002565b611077818561100d565b93506110828361101e565b8060005b838110156110b357815161109a888261103d565b97506110a583611055565b925050600181019050611086565b5085935050505092915050565b600060208201905081810360008301526110da8184611062565b905092915050565b600060e0820190506110f7600083018a610c27565b6111046020830189610c7e565b81810360408301526111168188610ce4565b9050818103606083015261112a8187610ce4565b9050818103608083015261113e8186610ce4565b905081810360a08301526111528185610ce4565b905061116160c0830184610d29565b98975050505050505050565b60006020820190506111826000830184610c7e565b92915050565b7f536572746966696b617420746964616b20646974656d756b616e20617461752060008201527f746964616b2076616c6964000000000000000000000000000000000000000000602082015250565b60006111e4602b83610c98565b91506111ef82611188565b604082019050919050565b60006020820190508181036000830152611213816111d7565b9050919050565b7f4e487b7100000000000000000000000000000000000000000000000000000000600052602260045260246000fd5b6000600282049050600182168061126157607f821691505b6020821081036112745761127361121a565b5b50919050565b7f48616e79612061646d696e2079616e67206461706174206d656e6a616c616e6b60008201527f616e2066756e67736920696e6900000000000000000000000000000000000000602082015250565b60006112d6602d83610c98565b91506112e18261127a565b604082019050919050565b60006020820190508181036000830152611305816112c9565b9050919050565b7f4e487b7100000000000000000000000000000000000000000000000000000000600052601160045260246000fd5b600061134682610bb1565b915061135183610bb1565b92508282019050808211156113695761136861130c565b5b92915050565b60008190508160005260206000209050919050565b60006020601f8301049050919050565b600082821b905092915050565b6000600883026113d17fffffffffffffffffffffffffffffffffffffffffffffffffffffffffffffffff82611394565b6113db8683611394565b95508019841693508086168417925050509392505050565b6000819050919050565b600061141861141361140e84610bb1565b6113f3565b610bb1565b9050919050565b6000819050919050565b611432836113fd565b61144661143e8261141f565b8484546113a1565b825550505050565b600090565b61145b61144e565b611466818484611429565b505050565b5b8181101561148a5761147f600082611453565b60018101905061146c565b5050565b601f8211156114cf576114a08161136f565b6114a984611384565b810160208510156114b8578190505b6114cc6114c485611384565b83018261146b565b50505b505050565b600082821c905092915050565b60006114f2600019846008026114d4565b1980831691505092915050565b600061150b83836114e1565b9150826002028217905092915050565b61152482610c8d565b67ffffffffffffffff81111561153d5761153c610dbf565b5b6115478254611249565b61155282828561148e565b600060209050601f8311600181146115855760008415611573578287015190505b61157d85826114ff565b8655506115e5565b601f1984166115938661136f565b60005b828110156115bb57848901518255600182019150602085019450602081019050611596565b868310156115d857848901516115d4601f8916826114e1565b8355505b6001600288020188555050505b505050505050565b60006115f882610bb1565b91507fffffffffffffffffffffffffffffffffffffffffffffffffffffffffffffffff820361162a5761162961130c565b5b600182019050919050565b600060c08201905061164a6000830189610c27565b6116576020830188610c7e565b81810360408301526116698187610ce4565b9050818103606083015261167d8186610ce4565b905081810360808301526116918185610ce4565b905081810360a08301526116a58184610ce4565b905097965050505050505056fea264697066735822122039698ccc408d31a8b99b6f359ef9a6bf8425cdac31a2616d2fa6459d4d8348b664736f6c63430008130033",
  "immutableReferences": {},
  "source": "// SPDX-License-Identifier: MIT\npragma solidity >=0.4.22 <0.9.0;\n\ncontract BlockchainSertifikasi {\n    address public admin;\n\n    struct Sertifikat {\n        uint id;\n        address penerima;\n        string nama;\n        string kursus;\n        string institusi;\n        string tanggal;\n        bool valid; // Status sertifikat\n    }\n\n    mapping(uint => Sertifikat) public daftarSertifikat;\n    mapping(address => uint[]) public sertifikatByPenerima; // Menyimpan sertifikat berdasarkan penerima\n\n    uint public jumlahSertifikat;\n\n    event SertifikatDiterbitkan(\n        uint id,\n        address penerima,\n        string nama,\n        string kursus,\n        string institusi,\n        string tanggal\n    );\n\n    modifier hanyaAdmin() {\n        require(msg.sender == admin, \"Hanya admin yang dapat menjalankan fungsi ini\");\n        _;\n    }\n\n    constructor() {\n        admin = msg.sender;\n    }\n\n    function terbitkanSertifikat(\n        address penerima,\n        string memory nama,\n        string memory kursus,\n        string memory institusi,\n        string memory tanggal\n    ) public hanyaAdmin {\n        uint id = jumlahSertifikat + 1;\n        daftarSertifikat[id] = Sertifikat(id, penerima, nama, kursus, institusi, tanggal, true);\n        sertifikatByPenerima[penerima].push(id);\n        jumlahSertifikat++;\n        emit SertifikatDiterbitkan(id, penerima, nama, kursus, institusi, tanggal);\n    }\n\n    function verifikasiSertifikat(uint id) public view returns (\n        address penerima,\n        string memory nama,\n        string memory kursus,\n        string memory institusi,\n        string memory tanggal,\n        bool valid\n    ) {\n        require(daftarSertifikat[id].valid, \"Sertifikat tidak ditemukan atau tidak valid\");\n        Sertifikat memory cert = daftarSertifikat[id];\n        return (cert.penerima, cert.nama, cert.kursus, cert.institusi, cert.tanggal, cert.valid);\n    }\n\n    function cekSertifikatByPenerima(address penerima) public view returns (uint[] memory) {\n        return sertifikatByPenerima[penerima];\n    }\n}\n",
  "sourcePath": "D:\\Hamam\\Semester 7\\BlockChain\\sertifikat_blockchain\\sertifikat_blockchain\\contracts\\BlockchainSertifikasi.sol",
  "compiler": {
    "name": "solc",
    "version": "0.8.19+commit.7dd6d404.Emscripten.clang"
  },
  "schemaVersion": "3.4.16",
  "updatedAt": "2025-02-05T04:43:05.733Z",
  "networkType": "ethereum",
  "devdoc": {
    "kind": "dev",
    "methods": {},
    "version": 1
  },
  "userdoc": {
    "kind": "user",
    "methods": {},
    "version": 1
  }
}