{
  "contractName": "BlockchainSertifikasi",
  "abi": [
    {
      "inputs": [],
      "stateMutability": "nonpayable",
      "type": "constructor"
    },
    {
      "anonymous": false,
      "inputs": [
        {
          "indexed": false,
          "internalType": "uint256",
          "name": "id",
          "type": "uint256"
        },
        {
          "indexed": false,
          "internalType": "address",
          "name": "penerima",
          "type": "address"
        },
        {
          "indexed": false,
          "internalType": "string",
          "name": "nama",
          "type": "string"
        },
        {
          "indexed": false,
          "internalType": "string",
          "name": "kursus",
          "type": "string"
        },
        {
          "indexed": false,
          "internalType": "string",
          "name": "institusi",
          "type": "string"
        },
        {
          "indexed": false,
          "internalType": "string",
          "name": "tanggal",
          "type": "string"
        },
        {
          "indexed": false,
          "internalType": "string",
          "name": "dataHash",
          "type": "string"
        }
      ],
      "name": "SertifikatDiterbitkan",
      "type": "event"
    },
    {
      "inputs": [],
      "name": "admin",
      "outputs": [
        {
          "internalType": "address",
          "name": "",
          "type": "address"
        }
      ],
      "stateMutability": "view",
      "type": "function",
      "constant": true
    },
    {
      "inputs": [
        {
          "internalType": "uint256",
          "name": "",
          "type": "uint256"
        }
      ],
      "name": "daftarSertifikat",
      "outputs": [
        {
          "internalType": "uint256",
          "name": "id",
          "type": "uint256"
        },
        {
          "internalType": "address",
          "name": "penerima",
          "type": "address"
        },
        {
          "internalType": "string",
          "name": "nama",
          "type": "string"
        },
        {
          "internalType": "string",
          "name": "kursus",
          "type": "string"
        },
        {
          "internalType": "string",
          "name": "institusi",
          "type": "string"
        },
        {
          "internalType": "string",
          "name": "tanggal",
          "type": "string"
        },
        {
          "internalType": "bool",
          "name": "valid",
          "type": "bool"
        }
      ],
      "stateMutability": "view",
      "type": "function",
      "constant": true
    },
    {
      "inputs": [
        {
          "internalType": "address",
          "name": "",
          "type": "address"
        }
      ],
      "name": "hashByPenerima",
      "outputs": [
        {
          "internalType": "string",
          "name": "",
          "type": "string"
        }
      ],
      "stateMutability": "view",
      "type": "function",
      "constant": true
    },
    {
      "inputs": [],
      "name": "jumlahSertifikat",
      "outputs": [
        {
          "internalType": "uint256",
          "name": "",
          "type": "uint256"
        }
      ],
      "stateMutability": "view",
      "type": "function",
      "constant": true
    },
    {
      "inputs": [
        {
          "internalType": "address",
          "name": "",
          "type": "address"
        }
      ],
      "name": "sertifikatIdByPenerima",
      "outputs": [
        {
          "internalType": "uint256",
          "name": "",
          "type": "uint256"
        }
      ],
      "stateMutability": "view",
      "type": "function",
      "constant": true
    },
    {
      "inputs": [
        {
          "internalType": "address",
          "name": "penerima",
          "type": "address"
        },
        {
          "internalType": "string",
          "name": "nama",
          "type": "string"
        },
        {
          "internalType": "string",
          "name": "kursus",
          "type": "string"
        },
        {
          "internalType": "string",
          "name": "institusi",
          "type": "string"
        },
        {
          "internalType": "string",
          "name": "tanggal",
          "type": "string"
        },
        {
          "internalType": "string",
          "name": "dataHash",
          "type": "string"
        }
      ],
      "name": "terbitkanSertifikat",
      "outputs": [],
      "stateMutability": "nonpayable",
      "type": "function"
    },
    {
      "inputs": [
        {
          "internalType": "uint256",
          "name": "id",
          "type": "uint256"
        }
      ],
      "name": "verifikasiSertifikat",
      "outputs": [
        {
          "internalType": "address",
          "name": "penerima",
          "type": "address"
        },
        {
          "internalType": "string",
          "name": "nama",
          "type": "string"
        },
        {
          "internalType": "string",
          "name": "kursus",
          "type": "string"
        },
        {
          "internalType": "string",
          "name": "institusi",
          "type": "string"
        },
        {
          "internalType": "string",
          "name": "tanggal",
          "type": "string"
        },
        {
          "internalType": "bool",
          "name": "valid",
          "type": "bool"
        }
      ],
      "stateMutability": "view",
      "type": "function",
      "constant": true
    },
    {
      "inputs": [
        {
          "internalType": "address",
          "name": "penerima",
          "type": "address"
        }
      ],
      "name": "cekSertifikatByPenerima",
      "outputs": [
        {
          "internalType": "uint256",
          "name": "",
          "type": "uint256"
        }
      ],
      "stateMutability": "view",
      "type": "function",
      "constant": true
    },
    {
      "inputs": [
        {
          "internalType": "address",
          "name": "penerima",
          "type": "address"
        }
      ],
      "name": "getHashByPenerima",
      "outputs": [
        {
          "internalType": "string",
          "name": "",
          "type": "string"
        }
      ],
      "stateMutability": "view",
      "type": "function",
      "constant": true
    }
  ],
  "bytecode": "0x608060405234801561001057600080fd5b50336000806101000a81548173ffffffffffffffffffffffffffffffffffffffff021916908373ffffffffffffffffffffffffffffffffffffffff1602179055506118ef806100606000396000f3fe608060405234801561001057600080fd5b50600436106100935760003560e01c8063b8bfb62c11610066578063b8bfb62c14610149578063ce71642714610179578063eb3603b5146101a9578063f55f6ba9146101c7578063f851a440146101fd57610093565b80635a3926f1146100985780639bbd7fc8146100c8578063a1fed220146100f8578063acec29041461012d575b600080fd5b6100b260048036038101906100ad9190610de1565b61021b565b6040516100bf9190610e27565b60405180910390f35b6100e260048036038101906100dd9190610de1565b610233565b6040516100ef9190610ed2565b60405180910390f35b610112600480360381019061010d9190610f20565b6102d3565b60405161012496959493929190610f77565b60405180910390f35b61014760048036038101906101429190611129565b610659565b005b610163600480360381019061015e9190610de1565b61099c565b6040516101709190610ed2565b60405180910390f35b610193600480360381019061018e9190610de1565b610a6d565b6040516101a09190610e27565b60405180910390f35b6101b1610ab6565b6040516101be9190610e27565b60405180910390f35b6101e160048036038101906101dc9190610f20565b610abc565b6040516101f49796959493929190611242565b60405180910390f35b610205610d4b565b60405161021291906112cd565b60405180910390f35b60026020528060005260406000206000915090505481565b6003602052806000526040600020600091509050805461025290611317565b80601f016020809104026020016040519081016040528092919081815260200182805461027e90611317565b80156102cb5780601f106102a0576101008083540402835291602001916102cb565b820191906000526020600020905b8154815290600101906020018083116102ae57829003601f168201915b505050505081565b600060608060608060006001600088815260200190815260200160002060060160009054906101000a900460ff16610340576040517f08c379a0000000000000000000000000000000000000000000000000000000008152600401610337906113ba565b60405180910390fd5b6000600160008981526020019081526020016000206040518060e0016040529081600082015481526020016001820160009054906101000a900473ffffffffffffffffffffffffffffffffffffffff1673ffffffffffffffffffffffffffffffffffffffff1673ffffffffffffffffffffffffffffffffffffffff1681526020016002820180546103d090611317565b80601f01602080910402602001604051908101604052809291908181526020018280546103fc90611317565b80156104495780601f1061041e57610100808354040283529160200191610449565b820191906000526020600020905b81548152906001019060200180831161042c57829003601f168201915b5050505050815260200160038201805461046290611317565b80601f016020809104026020016040519081016040528092919081815260200182805461048e90611317565b80156104db5780601f106104b0576101008083540402835291602001916104db565b820191906000526020600020905b8154815290600101906020018083116104be57829003601f168201915b505050505081526020016004820180546104f490611317565b80601f016020809104026020016040519081016040528092919081815260200182805461052090611317565b801561056d5780601f106105425761010080835404028352916020019161056d565b820191906000526020600020905b81548152906001019060200180831161055057829003601f168201915b5050505050815260200160058201805461058690611317565b80601f01602080910402602001604051908101604052809291908181526020018280546105b290611317565b80156105ff5780601f106105d4576101008083540402835291602001916105ff565b820191906000526020600020905b8154815290600101906020018083116105e257829003601f168201915b505050505081526020016006820160009054906101000a900460ff161515151581525050905080602001518160400151826060015183608001518460a001518560c001519650965096509650965096505091939550919395565b60008054906101000a900473ffffffffffffffffffffffffffffffffffffffff1673ffffffffffffffffffffffffffffffffffffffff163373ffffffffffffffffffffffffffffffffffffffff16146106e7576040517f08c379a00000000000000000000000000000000000000000000000000000000081526004016106de9061144c565b60405180910390fd5b6000600260008873ffffffffffffffffffffffffffffffffffffffff1673ffffffffffffffffffffffffffffffffffffffff1681526020019081526020016000205414610769576040517f08c379a0000000000000000000000000000000000000000000000000000000008152600401610760906114de565b60405180910390fd5b6000600160045461077a919061152d565b90506040518060e001604052808281526020018873ffffffffffffffffffffffffffffffffffffffff16815260200187815260200186815260200185815260200184815260200160011515815250600160008381526020019081526020016000206000820151816000015560208201518160010160006101000a81548173ffffffffffffffffffffffffffffffffffffffff021916908373ffffffffffffffffffffffffffffffffffffffff1602179055506040820151816002019081610841919061170d565b506060820151816003019081610857919061170d565b50608082015181600401908161086d919061170d565b5060a0820151816005019081610883919061170d565b5060c08201518160060160006101000a81548160ff02191690831515021790555090505080600260008973ffffffffffffffffffffffffffffffffffffffff1673ffffffffffffffffffffffffffffffffffffffff1681526020019081526020016000208190555081600360008973ffffffffffffffffffffffffffffffffffffffff1673ffffffffffffffffffffffffffffffffffffffff1681526020019081526020016000209081610937919061170d565b506004600081548092919061094b906117df565b91905055507f47377bd40741796b6cf470624216d9a9397a8ed9c1a0dad329b50aca2295ae5d8188888888888860405161098b9796959493929190611827565b60405180910390a150505050505050565b6060600360008373ffffffffffffffffffffffffffffffffffffffff1673ffffffffffffffffffffffffffffffffffffffff16815260200190815260200160002080546109e890611317565b80601f0160208091040260200160405190810160405280929190818152602001828054610a1490611317565b8015610a615780601f10610a3657610100808354040283529160200191610a61565b820191906000526020600020905b815481529060010190602001808311610a4457829003601f168201915b50505050509050919050565b6000600260008373ffffffffffffffffffffffffffffffffffffffff1673ffffffffffffffffffffffffffffffffffffffff168152602001908152602001600020549050919050565b60045481565b60016020528060005260406000206000915090508060000154908060010160009054906101000a900473ffffffffffffffffffffffffffffffffffffffff1690806002018054610b0b90611317565b80601f0160208091040260200160405190810160405280929190818152602001828054610b3790611317565b8015610b845780601f10610b5957610100808354040283529160200191610b84565b820191906000526020600020905b815481529060010190602001808311610b6757829003601f168201915b505050505090806003018054610b9990611317565b80601f0160208091040260200160405190810160405280929190818152602001828054610bc590611317565b8015610c125780601f10610be757610100808354040283529160200191610c12565b820191906000526020600020905b815481529060010190602001808311610bf557829003601f168201915b505050505090806004018054610c2790611317565b80601f0160208091040260200160405190810160405280929190818152602001828054610c5390611317565b8015610ca05780601f10610c7557610100808354040283529160200191610ca0565b820191906000526020600020905b815481529060010190602001808311610c8357829003601f168201915b505050505090806005018054610cb590611317565b80601f0160208091040260200160405190810160405280929190818152602001828054610ce190611317565b8015610d2e5780601f10610d0357610100808354040283529160200191610d2e565b820191906000526020600020905b815481529060010190602001808311610d1157829003601f168201915b5050505050908060060160009054906101000a900460ff16905087565b60008054906101000a900473ffffffffffffffffffffffffffffffffffffffff1681565b6000604051905090565b600080fd5b600080fd5b600073ffffffffffffffffffffffffffffffffffffffff82169050919050565b6000610dae82610d83565b9050919050565b610dbe81610da3565b8114610dc957600080fd5b50565b600081359050610ddb81610db5565b92915050565b600060208284031215610df757610df6610d79565b5b6000610e0584828501610dcc565b91505092915050565b6000819050919050565b610e2181610e0e565b82525050565b6000602082019050610e3c6000830184610e18565b92915050565b600081519050919050565b600082825260208201905092915050565b60005b83811015610e7c578082015181840152602081019050610e61565b60008484015250505050565b6000601f19601f8301169050919050565b6000610ea482610e42565b610eae8185610e4d565b9350610ebe818560208601610e5e565b610ec781610e88565b840191505092915050565b60006020820190508181036000830152610eec8184610e99565b905092915050565b610efd81610e0e565b8114610f0857600080fd5b50565b600081359050610f1a81610ef4565b92915050565b600060208284031215610f3657610f35610d79565b5b6000610f4484828501610f0b565b91505092915050565b610f5681610da3565b82525050565b60008115159050919050565b610f7181610f5c565b82525050565b600060c082019050610f8c6000830189610f4d565b8181036020830152610f9e8188610e99565b90508181036040830152610fb28187610e99565b90508181036060830152610fc68186610e99565b90508181036080830152610fda8185610e99565b9050610fe960a0830184610f68565b979650505050505050565b600080fd5b600080fd5b7f4e487b7100000000000000000000000000000000000000000000000000000000600052604160045260246000fd5b61103682610e88565b810181811067ffffffffffffffff8211171561105557611054610ffe565b5b80604052505050565b6000611068610d6f565b9050611074828261102d565b919050565b600067ffffffffffffffff82111561109457611093610ffe565b5b61109d82610e88565b9050602081019050919050565b82818337600083830152505050565b60006110cc6110c784611079565b61105e565b9050828152602081018484840111156110e8576110e7610ff9565b5b6110f38482856110aa565b509392505050565b600082601f8301126111105761110f610ff4565b5b81356111208482602086016110b9565b91505092915050565b60008060008060008060c0878903121561114657611145610d79565b5b600061115489828a01610dcc565b965050602087013567ffffffffffffffff81111561117557611174610d7e565b5b61118189828a016110fb565b955050604087013567ffffffffffffffff8111156111a2576111a1610d7e565b5b6111ae89828a016110fb565b945050606087013567ffffffffffffffff8111156111cf576111ce610d7e565b5b6111db89828a016110fb565b935050608087013567ffffffffffffffff8111156111fc576111fb610d7e565b5b61120889828a016110fb565b92505060a087013567ffffffffffffffff81111561122957611228610d7e565b5b61123589828a016110fb565b9150509295509295509295565b600060e082019050611257600083018a610e18565b6112646020830189610f4d565b81810360408301526112768188610e99565b9050818103606083015261128a8187610e99565b9050818103608083015261129e8186610e99565b905081810360a08301526112b28185610e99565b90506112c160c0830184610f68565b98975050505050505050565b60006020820190506112e26000830184610f4d565b92915050565b7f4e487b7100000000000000000000000000000000000000000000000000000000600052602260045260246000fd5b6000600282049050600182168061132f57607f821691505b602082108103611342576113416112e8565b5b50919050565b7f536572746966696b617420746964616b20646974656d756b616e20617461752060008201527f746964616b2076616c6964000000000000000000000000000000000000000000602082015250565b60006113a4602b83610e4d565b91506113af82611348565b604082019050919050565b600060208201905081810360008301526113d381611397565b9050919050565b7f48616e79612061646d696e2079616e67206461706174206d656e6a616c616e6b60008201527f616e2066756e67736920696e6900000000000000000000000000000000000000602082015250565b6000611436602d83610e4d565b9150611441826113da565b604082019050919050565b6000602082019050818103600083015261146581611429565b9050919050565b7f50656e6572696d61207375646168206d656d696c696b6920736572746966696b60008201527f6174000000000000000000000000000000000000000000000000000000000000602082015250565b60006114c8602283610e4d565b91506114d38261146c565b604082019050919050565b600060208201905081810360008301526114f7816114bb565b9050919050565b7f4e487b7100000000000000000000000000000000000000000000000000000000600052601160045260246000fd5b600061153882610e0e565b915061154383610e0e565b925082820190508082111561155b5761155a6114fe565b5b92915050565b60008190508160005260206000209050919050565b60006020601f8301049050919050565b600082821b905092915050565b6000600883026115c37fffffffffffffffffffffffffffffffffffffffffffffffffffffffffffffffff82611586565b6115cd8683611586565b95508019841693508086168417925050509392505050565b6000819050919050565b600061160a61160561160084610e0e565b6115e5565b610e0e565b9050919050565b6000819050919050565b611624836115ef565b61163861163082611611565b848454611593565b825550505050565b600090565b61164d611640565b61165881848461161b565b505050565b5b8181101561167c57611671600082611645565b60018101905061165e565b5050565b601f8211156116c15761169281611561565b61169b84611576565b810160208510156116aa578190505b6116be6116b685611576565b83018261165d565b50505b505050565b600082821c905092915050565b60006116e4600019846008026116c6565b1980831691505092915050565b60006116fd83836116d3565b9150826002028217905092915050565b61171682610e42565b67ffffffffffffffff81111561172f5761172e610ffe565b5b6117398254611317565b611744828285611680565b600060209050601f8311600181146117775760008415611765578287015190505b61176f85826116f1565b8655506117d7565b601f19841661178586611561565b60005b828110156117ad57848901518255600182019150602085019450602081019050611788565b868310156117ca57848901516117c6601f8916826116d3565b8355505b6001600288020188555050505b505050505050565b60006117ea82610e0e565b91507fffffffffffffffffffffffffffffffffffffffffffffffffffffffffffffffff820361181c5761181b6114fe565b5b600182019050919050565b600060e08201905061183c600083018a610e18565b6118496020830189610f4d565b818103604083015261185b8188610e99565b9050818103606083015261186f8187610e99565b905081810360808301526118838186610e99565b905081810360a08301526118978185610e99565b905081810360c08301526118ab8184610e99565b90509897505050505050505056fea2646970667358221220ec83889d9c6325b3a6ee086fe9459dd5e5dd83056549d8905991483265f9954c64736f6c63430008130033",
  "immutableReferences": {},
  "source": "// SPDX-License-Identifier: MIT\npragma solidity >=0.4.22 <0.9.0;\n\ncontract BlockchainSertifikasi {\n    address public admin;\n\n    struct Sertifikat {\n        uint id;\n        address penerima;\n        string nama;\n        string kursus;\n        string institusi;\n        string tanggal;\n        bool valid;\n    }\n\n    mapping(uint => Sertifikat) public daftarSertifikat;\n    mapping(address => uint) public sertifikatIdByPenerima; // Simpan ID sertifikat per penerima, 0 berarti belum ada\n    mapping(address => string) public hashByPenerima;       // Simpan satu hash per penerima\n\n    uint public jumlahSertifikat;\n\n    event SertifikatDiterbitkan(\n        uint id,\n        address penerima,\n        string nama,\n        string kursus,\n        string institusi,\n        string tanggal,\n        string dataHash\n    );\n\n    modifier hanyaAdmin() {\n        require(msg.sender == admin, \"Hanya admin yang dapat menjalankan fungsi ini\");\n        _;\n    }\n\n    constructor() {\n        admin = msg.sender;\n    }\n\n    function terbitkanSertifikat(\n        address penerima,\n        string memory nama,\n        string memory kursus,\n        string memory institusi,\n        string memory tanggal,\n        string memory dataHash\n    ) public hanyaAdmin {\n        require(sertifikatIdByPenerima[penerima] == 0, \"Penerima sudah memiliki sertifikat\");\n\n        uint id = jumlahSertifikat + 1;\n        daftarSertifikat[id] = Sertifikat(id, penerima, nama, kursus, institusi, tanggal, true);\n\n        sertifikatIdByPenerima[penerima] = id;\n        hashByPenerima[penerima] = dataHash;\n\n        jumlahSertifikat++;\n        emit SertifikatDiterbitkan(id, penerima, nama, kursus, institusi, tanggal, dataHash);\n    }\n\n    function verifikasiSertifikat(uint id) public view returns (\n        address penerima,\n        string memory nama,\n        string memory kursus,\n        string memory institusi,\n        string memory tanggal,\n        bool valid\n    ) {\n        require(daftarSertifikat[id].valid, \"Sertifikat tidak ditemukan atau tidak valid\");\n        Sertifikat memory cert = daftarSertifikat[id];\n        return (cert.penerima, cert.nama, cert.kursus, cert.institusi, cert.tanggal, cert.valid);\n    }\n\n    function cekSertifikatByPenerima(address penerima) public view returns (uint) {\n        return sertifikatIdByPenerima[penerima];\n    }\n\n    function getHashByPenerima(address penerima) public view returns (string memory) {\n        return hashByPenerima[penerima];\n    }\n}\n",
  "sourcePath": "D:\\Hamam\\Semester 8\\sertifikat_blockchain\\contracts\\BlockchainSertifikasi.sol",
  "compiler": {
    "name": "solc",
    "version": "0.8.19+commit.7dd6d404.Emscripten.clang"
  },
  "schemaVersion": "3.4.16",
  "updatedAt": "2025-05-22T12:29:59.010Z",
  "networkType": "ethereum",
  "devdoc": {
    "kind": "dev",
    "methods": {},
    "version": 1
  },
  "userdoc": {
    "kind": "user",
    "methods": {},
    "version": 1
  }
}