{
  "contractName": "BlockchainSertifikasi",
  "abi": [
    {
      "inputs": [],
      "stateMutability": "nonpayable",
      "type": "constructor"
    },
    {
      "anonymous": false,
      "inputs": [
        {
          "indexed": false,
          "internalType": "bytes32",
          "name": "id",
          "type": "bytes32"
        },
        {
          "indexed": false,
          "internalType": "string",
          "name": "nim",
          "type": "string"
        },
        {
          "indexed": false,
          "internalType": "string",
          "name": "universitas",
          "type": "string"
        },
        {
          "indexed": false,
          "internalType": "string",
          "name": "cidDetail",
          "type": "string"
        },
        {
          "indexed": false,
          "internalType": "string",
          "name": "nomerSertifikat",
          "type": "string"
        },
        {
          "indexed": false,
          "internalType": "string",
          "name": "hashMetadata",
          "type": "string"
        }
      ],
      "name": "SertifikatDiterbitkan",
      "type": "event"
    },
    {
      "inputs": [],
      "name": "admin",
      "outputs": [
        {
          "internalType": "address",
          "name": "",
          "type": "address"
        }
      ],
      "stateMutability": "view",
      "type": "function",
      "constant": true
    },
    {
      "inputs": [
        {
          "internalType": "uint256",
          "name": "",
          "type": "uint256"
        }
      ],
      "name": "allIds",
      "outputs": [
        {
          "internalType": "bytes32",
          "name": "",
          "type": "bytes32"
        }
      ],
      "stateMutability": "view",
      "type": "function",
      "constant": true
    },
    {
      "inputs": [
        {
          "internalType": "bytes32",
          "name": "",
          "type": "bytes32"
        }
      ],
      "name": "daftarSertifikat",
      "outputs": [
        {
          "internalType": "bytes32",
          "name": "id",
          "type": "bytes32"
        },
        {
          "internalType": "string",
          "name": "nim",
          "type": "string"
        },
        {
          "internalType": "string",
          "name": "universitas",
          "type": "string"
        },
        {
          "internalType": "string",
          "name": "cidDetail",
          "type": "string"
        },
        {
          "internalType": "string",
          "name": "hashMetadata",
          "type": "string"
        },
        {
          "internalType": "string",
          "name": "nomerSertifikat",
          "type": "string"
        },
        {
          "internalType": "uint256",
          "name": "blockNumber",
          "type": "uint256"
        }
      ],
      "stateMutability": "view",
      "type": "function",
      "constant": true
    },
    {
      "inputs": [
        {
          "internalType": "string",
          "name": "",
          "type": "string"
        }
      ],
      "name": "idByHashMetadata",
      "outputs": [
        {
          "internalType": "bytes32",
          "name": "",
          "type": "bytes32"
        }
      ],
      "stateMutability": "view",
      "type": "function",
      "constant": true
    },
    {
      "inputs": [
        {
          "internalType": "string",
          "name": "",
          "type": "string"
        }
      ],
      "name": "idByNIM",
      "outputs": [
        {
          "internalType": "bytes32",
          "name": "",
          "type": "bytes32"
        }
      ],
      "stateMutability": "view",
      "type": "function",
      "constant": true
    },
    {
      "inputs": [
        {
          "internalType": "address",
          "name": "_adminBaru",
          "type": "address"
        }
      ],
      "name": "ubahAdmin",
      "outputs": [],
      "stateMutability": "nonpayable",
      "type": "function"
    },
    {
      "inputs": [
        {
          "components": [
            {
              "internalType": "string",
              "name": "nim",
              "type": "string"
            },
            {
              "internalType": "string",
              "name": "universitas",
              "type": "string"
            },
            {
              "internalType": "string",
              "name": "cidDetail",
              "type": "string"
            },
            {
              "internalType": "string",
              "name": "hashMetadata",
              "type": "string"
            },
            {
              "internalType": "string",
              "name": "nomerSertifikat",
              "type": "string"
            }
          ],
          "internalType": "struct BlockchainSertifikasi.SertifikatInput",
          "name": "_input",
          "type": "tuple"
        }
      ],
      "name": "terbitkanSertifikat",
      "outputs": [],
      "stateMutability": "nonpayable",
      "type": "function"
    },
    {
      "inputs": [],
      "name": "getAllId",
      "outputs": [
        {
          "internalType": "bytes32[]",
          "name": "",
          "type": "bytes32[]"
        }
      ],
      "stateMutability": "view",
      "type": "function",
      "constant": true
    },
    {
      "inputs": [
        {
          "internalType": "bytes32",
          "name": "id",
          "type": "bytes32"
        }
      ],
      "name": "getSertifikatById",
      "outputs": [
        {
          "components": [
            {
              "internalType": "bytes32",
              "name": "id",
              "type": "bytes32"
            },
            {
              "internalType": "string",
              "name": "nim",
              "type": "string"
            },
            {
              "internalType": "string",
              "name": "universitas",
              "type": "string"
            },
            {
              "internalType": "string",
              "name": "cidDetail",
              "type": "string"
            },
            {
              "internalType": "string",
              "name": "hashMetadata",
              "type": "string"
            },
            {
              "internalType": "string",
              "name": "nomerSertifikat",
              "type": "string"
            },
            {
              "internalType": "uint256",
              "name": "blockNumber",
              "type": "uint256"
            }
          ],
          "internalType": "struct BlockchainSertifikasi.Sertifikat",
          "name": "",
          "type": "tuple"
        }
      ],
      "stateMutability": "view",
      "type": "function",
      "constant": true
    },
    {
      "inputs": [
        {
          "internalType": "string",
          "name": "_hashMetadata",
          "type": "string"
        }
      ],
      "name": "getSertifikatByHash",
      "outputs": [
        {
          "components": [
            {
              "internalType": "bytes32",
              "name": "id",
              "type": "bytes32"
            },
            {
              "internalType": "string",
              "name": "nim",
              "type": "string"
            },
            {
              "internalType": "string",
              "name": "universitas",
              "type": "string"
            },
            {
              "internalType": "string",
              "name": "cidDetail",
              "type": "string"
            },
            {
              "internalType": "string",
              "name": "hashMetadata",
              "type": "string"
            },
            {
              "internalType": "string",
              "name": "nomerSertifikat",
              "type": "string"
            },
            {
              "internalType": "uint256",
              "name": "blockNumber",
              "type": "uint256"
            }
          ],
          "internalType": "struct BlockchainSertifikasi.Sertifikat",
          "name": "",
          "type": "tuple"
        }
      ],
      "stateMutability": "view",
      "type": "function",
      "constant": true
    }
  ],
  "bytecode": "0x6080806040523461002857600080546001600160a01b03191633179055611294908161002e8239f35b600080fdfe6080604052600436101561001257600080fd5b60003560e01c80631440c7c514610e3457806324f2e15414610deb5780634e25532514610d8f578063692776ea14610d585780638228f8f714610ca2578063883df3e814610bf45780638a5eb18514610aa25780638ac1298d146100ff578063f851a440146100d65763ffde6f4b1461008a57600080fd5b346100d15760203660031901126100d1576004356001600160a01b03818116918290036100d1576100c160005491821633146111c5565b6001600160a01b03191617600055005b600080fd5b346100d15760003660031901126100d1576000546040516001600160a01b039091168152602090f35b346100d1576003196020368201126100d157600435906001600160401b0382116100d15760a09082360301126100d15760405160a081018181106001600160401b03821117610a8c5760405281600401356001600160401b0381116100d15761016e906004369185010161106a565b8152602491828101356001600160401b0381116100d157610195906004369184010161106a565b602083015260448101356001600160401b0381116100d1576101bd906004369184010161106a565b604083015260648101356001600160401b0381116100d1576101e5906004369184010161106a565b60608301526084810135906001600160401b0382116100d157600461020d923692010161106a565b608082015261022760018060a01b036000541633146111c5565b61023181516110c0565b54610a3c5760408101515115610a065780516080820151610290604080518093602082019542875261026c8151809260208787019101611022565b82016102818251809360208785019101611022565b01036020810184520182610f5b565b5190208151602083015160408401516060850151608086015191604051936102b785610f40565b8685526020850195865260408501526060840152608083015260a08201524360c082015282600052600260205260406000209181518355518051906001600160401b0382116106b157819061030f6001860154610f06565b601f81116109b3575b50602090601f831160011461094157600092610936575b50508160011b916000199060031b1c19161760018301555b60408101518051906001600160401b0382116106b157819061036c6002860154610f06565b601f81116108e3575b50602090601f831160011461087157600092610866575b50508160011b916000199060031b1c19161760028301555b60608101518051906001600160401b0382116106b15781906103c96003860154610f06565b601f8111610813575b50602090601f83116001146107a157600092610796575b50508160011b916000199060031b1c19161760038301555b60808101518051906001600160401b0382116106b15781906104266004860154610f06565b601f8111610743575b50602090601f83116001146106d1576000926106c6575b50508160011b916000199060031b1c19161760048301555b60a08101518051906001600160401b0382116106b1576104816005850154610f06565b601f811161066a575b50602090601f83116001146105f55791806006949260c0946000926105ea575b50508160011b916000199060031b1c19161760058501555b015191015560015492680100000000000000008410156105d6575061050e8360017f5ecb617971ba0d0cdf156b624c51c25e9a4bb41111b4d9a37e3ac492cdbe5f0f95016001556110e6565b81549060031b9083821b91600019901b19161790558061052e83516110c0565b558061054d602060608501518160405193828580945193849201611022565b81016004815203019020556105d18251926105c36020820151916105b560408201516105a760606080850151940151956105996040519a8b9a8b5260c060208c015260c08b0190611045565b9089820360408b0152611045565b908782036060890152611045565b908582036080870152611045565b9083820360a0850152611045565b0390a1005b634e487b7160e01b60009081526041600452fd5b0151905089806104aa565b906005850160005260206000209160005b601f19851681106106525750926006949260019260c09583601f19811610610639575b505050811b0160058501556104c2565b015160001960f88460031b161c19169055898080610629565b91926020600181928685015181550194019201610606565b600585016000526020600020601f840160051c8101602085106106aa575b601f830160051c8201811061069e57505061048a565b60008155600101610688565b5080610688565b86634e487b7160e01b60005260416004526000fd5b015190508780610446565b9250600485016000526020600020906000935b601f1984168510610728576001945083601f1981161061070f575b505050811b01600483015561045e565b015160001960f88460031b161c191690558780806106ff565b818101518355602094850194600190930192909101906106e4565b909150600485016000526020600020601f840160051c81016020851061078f575b90849392915b601f830160051c8201811061078057505061042f565b6000815585945060010161076a565b5080610764565b0151905087806103e9565b9250600385016000526020600020906000935b601f19841685106107f8576001945083601f198116106107df575b505050811b016003830155610401565b015160001960f88460031b161c191690558780806107cf565b818101518355602094850194600190930192909101906107b4565b909150600385016000526020600020601f840160051c81016020851061085f575b90849392915b601f830160051c820181106108505750506103d2565b6000815585945060010161083a565b5080610834565b01519050878061038c565b9250600285016000526020600020906000935b601f19841685106108c8576001945083601f198116106108af575b505050811b0160028301556103a4565b015160001960f88460031b161c1916905587808061089f565b81810151835560209485019460019093019290910190610884565b909150600285016000526020600020601f840160051c81016020851061092f575b90849392915b601f830160051c82018110610920575050610375565b6000815585945060010161090a565b5080610904565b01519050878061032f565b9250600185016000526020600020906000935b601f1984168510610998576001945083601f1981161061097f575b505050811b016001830155610347565b015160001960f88460031b161c1916905587808061096f565b81810151835560209485019460019093019290910190610954565b909150600185016000526020600020601f840160051c8101602085106109ff575b90849392915b601f830160051c820181106109f0575050610318565b600081558594506001016109da565b50806109d4565b60405162461bcd60e51b815260206004820152600f818401526e10d251081d1a59185ac81d985b1a59608a1b6044820152606490fd5b60405162461bcd60e51b8152602060048201526023818401527f536572746966696b617420756e74756b204e494d20696e69207375646168206160448201526232309760e91b6064820152608490fd5b634e487b7160e01b600052604160045260246000fd5b346100d1576020806003193601126100d1576004356001600160401b0381116100d15781610ad7610af392369060040161106a565b610adf611227565b508160405193828580945193849201611022565b8101600481520301902054908115610b9357610b8f91600052600281526006604060002060405192610b2484610f40565b81548452610b3460018301610f7c565b90840152610b4460028201610f7c565b6040840152610b5560038201610f7c565b6060840152610b6660048201610f7c565b6080840152610b7760058201610f7c565b60a0840152015460c082015260405191829182611133565b0390f35b6084906040519062461bcd60e51b82526004820152603460248201527f536572746966696b61742064656e67616e2068617368206d657461646174612060448201527334b734903a34b230b5903234ba32b6bab5b0b71760611b6064820152fd5b346100d15760003660031901126100d15760405180600180549283815260208091018094836000527fb10e2d527612073b26eecdfd717e6a320cf44b4afac2b0732d9fcbe2b7fa0cf69060005b818110610c8f5750505083610c57910384610f5b565b60405192818401908285525180915260408401949160005b828110610c7c5785870386f35b8351875295810195928101928401610c6f565b8254845292840192918501918501610c41565b346100d15760203660031901126100d157600435610cbe611227565b5080600052600260205260406000205415610d13576000526002602052610b8f6040600020600660405191610cf283610f40565b80548352610d0260018201610f7c565b6020840152610b4460028201610f7c565b60405162461bcd60e51b815260206004820152601b60248201527f536572746966696b617420746964616b20646974656d756b616e2e00000000006044820152606490fd5b346100d15760203660031901126100d1576004356001548110156100d157610d816020916110e6565b90546040519160031b1c8152f35b346100d15760203660031901126100d1576004356001600160401b0381116100d157610dd86020610dc58193369060040161106a565b8160405193828580945193849201611022565b8101600381520301902054604051908152f35b346100d15760203660031901126100d1576004356001600160401b0381116100d157610e216020610dc58193369060040161106a565b8101600481520301902054604051908152f35b346100d15760203660031901126100d157600435600052600260205260406000208054610e6360018301610f7c565b91610efc610e7360028301610f7c565b91610eee610e8360038301610f7c565b610ee0610e9260048501610f7c565b91610ed26006610ea460058801610f7c565b96015497610ec46040519b8c9b8c5260e060208d015260e08c0190611045565b908a820360408c0152611045565b9088820360608a0152611045565b908682036080880152611045565b9084820360a0860152611045565b9060c08301520390f35b90600182811c92168015610f36575b6020831014610f2057565b634e487b7160e01b600052602260045260246000fd5b91607f1691610f15565b60e081019081106001600160401b03821117610a8c57604052565b90601f801991011681019081106001600160401b03821117610a8c57604052565b9060405191826000825492610f9084610f06565b908184526001948581169081600014610fff5750600114610fbc575b5050610fba92500383610f5b565b565b9093915060005260209081600020936000915b818310610fe7575050610fba93508201013880610fac565b85548884018501529485019487945091830191610fcf565b915050610fba94506020925060ff191682840152151560051b8201013880610fac565b60005b8381106110355750506000910152565b8181015183820152602001611025565b9060209161105e81518092818552858086019101611022565b601f01601f1916010190565b81601f820112156100d1578035906001600160401b038211610a8c576040519261109e601f8401601f191660200185610f5b565b828452602083830101116100d157816000926020809301838601378301015290565b60206110d9918160405193828580945193849201611022565b8101600381520301902090565b60015481101561111d5760016000527fb10e2d527612073b26eecdfd717e6a320cf44b4afac2b0732d9fcbe2b7fa0cf60190600090565b634e487b7160e01b600052603260045260246000fd5b602081528151602082015260e060c06111bc61115e6020860151846040870152610100860190611045565b6111a8611194611180604089015193601f1994858a83030160608b0152611045565b6060890151848983030160808a0152611045565b6080880151838883030160a0890152611045565b9060a0870151908683030184870152611045565b93015191015290565b156111cc57565b60405162461bcd60e51b815260206004820152602d60248201527f48616e79612061646d696e2079616e67206461706174206d656e6a616c616e6b60448201526c616e2066756e67736920696e6960981b6064820152608490fd5b6040519061123482610f40565b600060c0838281526060806020830152806040830152808083015280608083015260a0820152015256fea2646970667358221220e882bd85dd3df0f68cfacdbb61781c9768caa5d50941d1df0fba9846d189ee2a64736f6c63430008130033",
  "immutableReferences": {},
  "source": "// SPDX-License-Identifier: MIT\r\npragma solidity >=0.4.22 <0.9.0;\r\n\r\ncontract BlockchainSertifikasi { \r\n    address public admin;\r\n    bytes32[] public allIds;\r\n\r\n    struct SertifikatInput {\r\n        string nim;\r\n        string universitas;\r\n        string cidDetail;\r\n        string hashMetadata;\r\n        string nomerSertifikat;\r\n    }\r\n\r\n    struct Sertifikat {\r\n        bytes32 id;\r\n        string nim;\r\n        string universitas;\r\n        string cidDetail;\r\n        string hashMetadata;\r\n        string nomerSertifikat;\r\n        uint blockNumber;\r\n    }\r\n\r\n    mapping(bytes32 => Sertifikat) public daftarSertifikat;\r\n    mapping(string => bytes32) public idByNIM;\r\n    mapping(string => bytes32) public idByHashMetadata;\r\n\r\n    event SertifikatDiterbitkan(\r\n        bytes32 id,\r\n        string nim,\r\n        string universitas,\r\n        string cidDetail,\r\n        string nomerSertifikat,\r\n        string hashMetadata\r\n    );\r\n\r\n    modifier hanyaAdmin() {\r\n        require(msg.sender == admin, \"Hanya admin yang dapat menjalankan fungsi ini\");\r\n        _; \r\n    }\r\n\r\n    constructor() {\r\n        admin = msg.sender;\r\n    }\r\n\r\n    function ubahAdmin(address _adminBaru) public hanyaAdmin {\r\n        admin = _adminBaru;\r\n    }\r\n\r\n    function terbitkanSertifikat(SertifikatInput memory _input) public hanyaAdmin {\r\n        // Cek apakah NIM sudah terdaftar\r\n        require(idByNIM[_input.nim] == bytes32(0), \"Sertifikat untuk NIM ini sudah ada.\");\r\n        \r\n        // Validasi CID detail tidak kosong\r\n        require(bytes(_input.cidDetail).length > 0, \"CID tidak valid\");\r\n\r\n        // Buat ID unik berdasarkan NIM dan nomor sertifikat\r\n        bytes32 id = keccak256(abi.encodePacked(block.timestamp, _input.nim, _input.nomerSertifikat));\r\n\r\n        // Simpan sertifikat\r\n        daftarSertifikat[id] = Sertifikat(\r\n            id,\r\n            _input.nim,\r\n            _input.universitas,\r\n            _input.cidDetail,\r\n            _input.hashMetadata,\r\n            _input.nomerSertifikat,\r\n            block.number\r\n        );\r\n        \r\n        allIds.push(id);\r\n        idByNIM[_input.nim] = id;\r\n        idByHashMetadata[_input.hashMetadata] = id;\r\n\r\n        // Emit event\r\n        emit SertifikatDiterbitkan(\r\n            id, \r\n            _input.nim, \r\n            _input.universitas, \r\n            _input.cidDetail, \r\n            _input.nomerSertifikat, \r\n            _input.hashMetadata\r\n        );\r\n    }\r\n\r\n    function getAllId() public view returns (bytes32[] memory) {\r\n        return allIds;\r\n    }\r\n\r\n    function getSertifikatById(bytes32 id) public view returns (Sertifikat memory) { \r\n        // Validasi ID\r\n        require(daftarSertifikat[id].id != bytes32(0), \"Sertifikat tidak ditemukan.\");\r\n        return daftarSertifikat[id];\r\n    }\r\n\r\n    function getSertifikatByHash(string memory _hashMetadata) public view returns (Sertifikat memory) {\r\n        bytes32 id = idByHashMetadata[_hashMetadata];\r\n        require(id != bytes32(0), \"Sertifikat dengan hash metadata ini tidak ditemukan.\");\r\n        return daftarSertifikat[id];\r\n    }\r\n}\r\n",
  "sourcePath": "D:\\Hamam\\Semester 8\\sertifikat_blockchain\\contracts\\BlockchainSertifikasi.sol",
  "compiler": {
    "name": "solc",
    "version": "0.8.19+commit.7dd6d404.Emscripten.clang"
  },
  "schemaVersion": "3.4.16",
  "updatedAt": "2025-06-29T19:43:56.517Z",
  "networkType": "ethereum",
  "devdoc": {
    "kind": "dev",
    "methods": {},
    "version": 1
  },
  "userdoc": {
    "kind": "user",
    "methods": {},
    "version": 1
  }
}