{
  "contractName": "BlockchainSertifikasi",
  "abi": [
    {
      "inputs": [
        {
          "internalType": "uint256",
          "name": "_requiredApprovals",
          "type": "uint256"
        }
      ],
      "stateMutability": "nonpayable",
      "type": "constructor"
    },
    {
      "anonymous": false,
      "inputs": [
        {
          "indexed": true,
          "internalType": "address",
          "name": "approver",
          "type": "address"
        }
      ],
      "name": "ApproverDihapus",
      "type": "event"
    },
    {
      "anonymous": false,
      "inputs": [
        {
          "indexed": true,
          "internalType": "address",
          "name": "approver",
          "type": "address"
        }
      ],
      "name": "ApproverDitambahkan",
      "type": "event"
    },
    {
      "anonymous": false,
      "inputs": [
        {
          "indexed": false,
          "internalType": "bytes32",
          "name": "proposalId",
          "type": "bytes32"
        },
        {
          "indexed": false,
          "internalType": "address",
          "name": "proposer",
          "type": "address"
        },
        {
          "indexed": false,
          "internalType": "string",
          "name": "manifestCid",
          "type": "string"
        }
      ],
      "name": "ProposalDiajukan",
      "type": "event"
    },
    {
      "anonymous": false,
      "inputs": [
        {
          "indexed": false,
          "internalType": "bytes32",
          "name": "proposalId",
          "type": "bytes32"
        },
        {
          "indexed": false,
          "internalType": "address",
          "name": "approver",
          "type": "address"
        }
      ],
      "name": "ProposalDisetujui",
      "type": "event"
    },
    {
      "anonymous": false,
      "inputs": [
        {
          "indexed": false,
          "internalType": "bytes32",
          "name": "id",
          "type": "bytes32"
        },
        {
          "indexed": false,
          "internalType": "string",
          "name": "manifestCid",
          "type": "string"
        },
        {
          "indexed": false,
          "internalType": "uint256",
          "name": "blockNumber",
          "type": "uint256"
        }
      ],
      "name": "SertifikatDifinalisasi",
      "type": "event"
    },
    {
      "inputs": [],
      "name": "admin",
      "outputs": [
        {
          "internalType": "address",
          "name": "",
          "type": "address"
        }
      ],
      "stateMutability": "view",
      "type": "function",
      "constant": true
    },
    {
      "inputs": [
        {
          "internalType": "uint256",
          "name": "",
          "type": "uint256"
        }
      ],
      "name": "allFinalizedIds",
      "outputs": [
        {
          "internalType": "bytes32",
          "name": "",
          "type": "bytes32"
        }
      ],
      "stateMutability": "view",
      "type": "function",
      "constant": true
    },
    {
      "inputs": [
        {
          "internalType": "bytes32",
          "name": "",
          "type": "bytes32"
        },
        {
          "internalType": "address",
          "name": "",
          "type": "address"
        }
      ],
      "name": "approvals",
      "outputs": [
        {
          "internalType": "bool",
          "name": "",
          "type": "bool"
        }
      ],
      "stateMutability": "view",
      "type": "function",
      "constant": true
    },
    {
      "inputs": [
        {
          "internalType": "uint256",
          "name": "",
          "type": "uint256"
        }
      ],
      "name": "approverList",
      "outputs": [
        {
          "internalType": "address",
          "name": "",
          "type": "address"
        }
      ],
      "stateMutability": "view",
      "type": "function",
      "constant": true
    },
    {
      "inputs": [
        {
          "internalType": "bytes32",
          "name": "",
          "type": "bytes32"
        }
      ],
      "name": "daftarSertifikat",
      "outputs": [
        {
          "internalType": "bytes32",
          "name": "id",
          "type": "bytes32"
        },
        {
          "internalType": "string",
          "name": "nama",
          "type": "string"
        },
        {
          "internalType": "string",
          "name": "universitas",
          "type": "string"
        },
        {
          "internalType": "string",
          "name": "jurusan",
          "type": "string"
        },
        {
          "internalType": "string",
          "name": "tanggal",
          "type": "string"
        },
        {
          "internalType": "string",
          "name": "manifestCid",
          "type": "string"
        },
        {
          "internalType": "uint256",
          "name": "blockNumber",
          "type": "uint256"
        },
        {
          "internalType": "bool",
          "name": "valid",
          "type": "bool"
        }
      ],
      "stateMutability": "view",
      "type": "function",
      "constant": true
    },
    {
      "inputs": [
        {
          "internalType": "address",
          "name": "",
          "type": "address"
        }
      ],
      "name": "isApprover",
      "outputs": [
        {
          "internalType": "bool",
          "name": "",
          "type": "bool"
        }
      ],
      "stateMutability": "view",
      "type": "function",
      "constant": true
    },
    {
      "inputs": [
        {
          "internalType": "bytes32",
          "name": "",
          "type": "bytes32"
        }
      ],
      "name": "proposals",
      "outputs": [
        {
          "internalType": "bytes32",
          "name": "proposalId",
          "type": "bytes32"
        },
        {
          "internalType": "string",
          "name": "nama",
          "type": "string"
        },
        {
          "internalType": "string",
          "name": "universitas",
          "type": "string"
        },
        {
          "internalType": "string",
          "name": "jurusan",
          "type": "string"
        },
        {
          "internalType": "string",
          "name": "tanggal",
          "type": "string"
        },
        {
          "internalType": "string",
          "name": "manifestCid",
          "type": "string"
        },
        {
          "internalType": "address",
          "name": "proposer",
          "type": "address"
        },
        {
          "internalType": "bool",
          "name": "isFinalized",
          "type": "bool"
        },
        {
          "internalType": "uint256",
          "name": "approvalCount",
          "type": "uint256"
        }
      ],
      "stateMutability": "view",
      "type": "function",
      "constant": true
    },
    {
      "inputs": [],
      "name": "requiredApprovals",
      "outputs": [
        {
          "internalType": "uint256",
          "name": "",
          "type": "uint256"
        }
      ],
      "stateMutability": "view",
      "type": "function",
      "constant": true
    },
    {
      "inputs": [
        {
          "internalType": "address",
          "name": "_newApprover",
          "type": "address"
        }
      ],
      "name": "addApprover",
      "outputs": [],
      "stateMutability": "nonpayable",
      "type": "function"
    },
    {
      "inputs": [
        {
          "internalType": "address",
          "name": "_approverToRemove",
          "type": "address"
        }
      ],
      "name": "removeApprover",
      "outputs": [],
      "stateMutability": "nonpayable",
      "type": "function"
    },
    {
      "inputs": [],
      "name": "getApprovers",
      "outputs": [
        {
          "internalType": "address[]",
          "name": "",
          "type": "address[]"
        }
      ],
      "stateMutability": "view",
      "type": "function",
      "constant": true
    },
    {
      "inputs": [
        {
          "internalType": "string",
          "name": "nama",
          "type": "string"
        },
        {
          "internalType": "string",
          "name": "universitas",
          "type": "string"
        },
        {
          "internalType": "string",
          "name": "jurusan",
          "type": "string"
        },
        {
          "internalType": "string",
          "name": "tanggal",
          "type": "string"
        },
        {
          "internalType": "string",
          "name": "manifestCid",
          "type": "string"
        }
      ],
      "name": "ajukanProposalSertifikat",
      "outputs": [],
      "stateMutability": "nonpayable",
      "type": "function"
    },
    {
      "inputs": [
        {
          "internalType": "bytes32",
          "name": "proposalId",
          "type": "bytes32"
        }
      ],
      "name": "setujuiProposal",
      "outputs": [],
      "stateMutability": "nonpayable",
      "type": "function"
    },
    {
      "inputs": [
        {
          "internalType": "bytes32",
          "name": "proposalId",
          "type": "bytes32"
        }
      ],
      "name": "finalisasiSertifikat",
      "outputs": [],
      "stateMutability": "nonpayable",
      "type": "function"
    }
  ],
  "bytecode": "0x60806040523480156200001157600080fd5b5060405162002efe38038062002efe83398181016040528101906200003791906200010b565b336000806101000a81548173ffffffffffffffffffffffffffffffffffffffff021916908373ffffffffffffffffffffffffffffffffffffffff16021790555060008111620000bd576040517f08c379a0000000000000000000000000000000000000000000000000000000008152600401620000b490620001c4565b60405180910390fd5b8060038190555050620001e6565b600080fd5b6000819050919050565b620000e581620000d0565b8114620000f157600080fd5b50565b6000815190506200010581620000da565b92915050565b600060208284031215620001245762000123620000cb565b5b60006200013484828501620000f4565b91505092915050565b600082825260208201905092915050565b7f4a756d6c616820706572736574756a75616e206861727573206c65626968206460008201527f6172692030000000000000000000000000000000000000000000000000000000602082015250565b6000620001ac6025836200013d565b9150620001b9826200014e565b604082019050919050565b60006020820190508181036000830152620001df816200019d565b9050919050565b612d0880620001f66000396000f3fe608060405234801561001057600080fd5b50600436106100ea5760003560e01c80636cf4c88f1161008c57806399c1aadc1161006657806399c1aadc14610290578063b646c194146102ae578063b943878e146102ca578063f851a440146102e6576100ea565b80636cf4c88f146102145780636d218e48146102305780638ab3f4cc14610260576100ea565b806324f6c776116100c857806324f6c7761461015e57806332ed5b121461018e578063480185b4146101c65780636cb3e8ef146101f6576100ea565b8063017bce83146100ef5780631440c7c51461010b5780631857742814610142575b600080fd5b61010960048036038101906101049190611c91565b610304565b005b61012560048036038101906101209190611dce565b61055c565b604051610139989796959493929190611ebd565b60405180910390f35b61015c60048036038101906101579190611dce565b610859565b005b61017860048036038101906101739190611fbc565b610e21565b6040516101859190611ffc565b60405180910390f35b6101a860048036038101906101a39190611dce565b610e50565b6040516101bd99989796959493929190612026565b60405180910390f35b6101e060048036038101906101db9190612102565b611173565b6040516101ed919061212f565b60405180910390f35b6101fe611197565b60405161020b9190612208565b60405180910390f35b61022e6004803603810190610229919061222a565b611225565b005b61024a6004803603810190610245919061222a565b61156a565b6040516102579190611ffc565b60405180910390f35b61027a60048036038101906102759190612102565b61158a565b6040516102879190612257565b60405180910390f35b6102986115c9565b6040516102a59190612272565b60405180910390f35b6102c860048036038101906102c3919061222a565b6115cf565b005b6102e460048036038101906102df9190611dce565b611859565b005b6102ee611b13565b6040516102fb9190612257565b60405180910390f35b60008054906101000a900473ffffffffffffffffffffffffffffffffffffffff1673ffffffffffffffffffffffffffffffffffffffff163373ffffffffffffffffffffffffffffffffffffffff1614610392576040517f08c379a0000000000000000000000000000000000000000000000000000000008152600401610389906122ff565b60405180910390fd5b600081426040516020016103a792919061237c565b6040516020818303038152906040528051906020012090506040518061012001604052808281526020018781526020018681526020018581526020018481526020018381526020013373ffffffffffffffffffffffffffffffffffffffff16815260200160001515815260200160008152506004600083815260200190815260200160002060008201518160000155602082015181600101908161044b91906125b0565b50604082015181600201908161046191906125b0565b50606082015181600301908161047791906125b0565b50608082015181600401908161048d91906125b0565b5060a08201518160050190816104a391906125b0565b5060c08201518160060160006101000a81548173ffffffffffffffffffffffffffffffffffffffff021916908373ffffffffffffffffffffffffffffffffffffffff16021790555060e08201518160060160146101000a81548160ff02191690831515021790555061010082015181600701559050507f69d05334516e5df7ee94656d740eaa62aa298499cbeed45059809964dd25071581338460405161054c93929190612682565b60405180910390a1505050505050565b6006602052806000526040600020600091509050806000015490806001018054610585906123d3565b80601f01602080910402602001604051908101604052809291908181526020018280546105b1906123d3565b80156105fe5780601f106105d3576101008083540402835291602001916105fe565b820191906000526020600020905b8154815290600101906020018083116105e157829003601f168201915b505050505090806002018054610613906123d3565b80601f016020809104026020016040519081016040528092919081815260200182805461063f906123d3565b801561068c5780601f106106615761010080835404028352916020019161068c565b820191906000526020600020905b81548152906001019060200180831161066f57829003601f168201915b5050505050908060030180546106a1906123d3565b80601f01602080910402602001604051908101604052809291908181526020018280546106cd906123d3565b801561071a5780601f106106ef5761010080835404028352916020019161071a565b820191906000526020600020905b8154815290600101906020018083116106fd57829003601f168201915b50505050509080600401805461072f906123d3565b80601f016020809104026020016040519081016040528092919081815260200182805461075b906123d3565b80156107a85780601f1061077d576101008083540402835291602001916107a8565b820191906000526020600020905b81548152906001019060200180831161078b57829003601f168201915b5050505050908060050180546107bd906123d3565b80601f01602080910402602001604051908101604052809291908181526020018280546107e9906123d3565b80156108365780601f1061080b57610100808354040283529160200191610836565b820191906000526020600020905b81548152906001019060200180831161081957829003601f168201915b5050505050908060060154908060070160009054906101000a900460ff16905088565b60008054906101000a900473ffffffffffffffffffffffffffffffffffffffff1673ffffffffffffffffffffffffffffffffffffffff163373ffffffffffffffffffffffffffffffffffffffff16146108e7576040517f08c379a00000000000000000000000000000000000000000000000000000000081526004016108de906122ff565b60405180910390fd5b60006004600083815260200190815260200160002090506000801b816000015403610947576040517f08c379a000000000000000000000000000000000000000000000000000000000815260040161093e9061270c565b60405180910390fd5b8060060160149054906101000a900460ff1615610999576040517f08c379a000000000000000000000000000000000000000000000000000000000815260040161099090612778565b60405180910390fd5b600354816007015410156109e2576040517f08c379a00000000000000000000000000000000000000000000000000000000081526004016109d99061280a565b60405180910390fd5b60018160060160146101000a81548160ff0219169083151502179055506000829050604051806101000160405280828152602001836001018054610a25906123d3565b80601f0160208091040260200160405190810160405280929190818152602001828054610a51906123d3565b8015610a9e5780601f10610a7357610100808354040283529160200191610a9e565b820191906000526020600020905b815481529060010190602001808311610a8157829003601f168201915b50505050508152602001836002018054610ab7906123d3565b80601f0160208091040260200160405190810160405280929190818152602001828054610ae3906123d3565b8015610b305780601f10610b0557610100808354040283529160200191610b30565b820191906000526020600020905b815481529060010190602001808311610b1357829003601f168201915b50505050508152602001836003018054610b49906123d3565b80601f0160208091040260200160405190810160405280929190818152602001828054610b75906123d3565b8015610bc25780601f10610b9757610100808354040283529160200191610bc2565b820191906000526020600020905b815481529060010190602001808311610ba557829003601f168201915b50505050508152602001836004018054610bdb906123d3565b80601f0160208091040260200160405190810160405280929190818152602001828054610c07906123d3565b8015610c545780601f10610c2957610100808354040283529160200191610c54565b820191906000526020600020905b815481529060010190602001808311610c3757829003601f168201915b50505050508152602001836005018054610c6d906123d3565b80601f0160208091040260200160405190810160405280929190818152602001828054610c99906123d3565b8015610ce65780601f10610cbb57610100808354040283529160200191610ce6565b820191906000526020600020905b815481529060010190602001808311610cc957829003601f168201915b505050505081526020014381526020016001151581525060066000838152602001908152602001600020600082015181600001556020820151816001019081610d2f91906125b0565b506040820151816002019081610d4591906125b0565b506060820151816003019081610d5b91906125b0565b506080820151816004019081610d7191906125b0565b5060a0820151816005019081610d8791906125b0565b5060c0820151816006015560e08201518160070160006101000a81548160ff02191690831515021790555090505060078190806001815401808255809150506001900390600052602060002001600090919091909150557f527bcb437cdfcd90e6c8ad5c62c8e127d88265fe6aca73f768e337a84722e1fd818360050143604051610e14939291906128ae565b60405180910390a1505050565b60056020528160005260406000206020528060005260406000206000915091509054906101000a900460ff1681565b6004602052806000526040600020600091509050806000015490806001018054610e79906123d3565b80601f0160208091040260200160405190810160405280929190818152602001828054610ea5906123d3565b8015610ef25780601f10610ec757610100808354040283529160200191610ef2565b820191906000526020600020905b815481529060010190602001808311610ed557829003601f168201915b505050505090806002018054610f07906123d3565b80601f0160208091040260200160405190810160405280929190818152602001828054610f33906123d3565b8015610f805780601f10610f5557610100808354040283529160200191610f80565b820191906000526020600020905b815481529060010190602001808311610f6357829003601f168201915b505050505090806003018054610f95906123d3565b80601f0160208091040260200160405190810160405280929190818152602001828054610fc1906123d3565b801561100e5780601f10610fe35761010080835404028352916020019161100e565b820191906000526020600020905b815481529060010190602001808311610ff157829003601f168201915b505050505090806004018054611023906123d3565b80601f016020809104026020016040519081016040528092919081815260200182805461104f906123d3565b801561109c5780601f106110715761010080835404028352916020019161109c565b820191906000526020600020905b81548152906001019060200180831161107f57829003601f168201915b5050505050908060050180546110b1906123d3565b80601f01602080910402602001604051908101604052809291908181526020018280546110dd906123d3565b801561112a5780601f106110ff5761010080835404028352916020019161112a565b820191906000526020600020905b81548152906001019060200180831161110d57829003601f168201915b5050505050908060060160009054906101000a900473ffffffffffffffffffffffffffffffffffffffff16908060060160149054906101000a900460ff16908060070154905089565b6007818154811061118357600080fd5b906000526020600020016000915090505481565b6060600280548060200260200160405190810160405280929190818152602001828054801561121b57602002820191906000526020600020905b8160009054906101000a900473ffffffffffffffffffffffffffffffffffffffff1673ffffffffffffffffffffffffffffffffffffffff16815260200190600101908083116111d1575b5050505050905090565b60008054906101000a900473ffffffffffffffffffffffffffffffffffffffff1673ffffffffffffffffffffffffffffffffffffffff163373ffffffffffffffffffffffffffffffffffffffff16146112b3576040517f08c379a00000000000000000000000000000000000000000000000000000000081526004016112aa906122ff565b60405180910390fd5b600160008273ffffffffffffffffffffffffffffffffffffffff1673ffffffffffffffffffffffffffffffffffffffff16815260200190815260200160002060009054906101000a900460ff1661133f576040517f08c379a00000000000000000000000000000000000000000000000000000000081526004016113369061295e565b60405180910390fd5b6000600160008373ffffffffffffffffffffffffffffffffffffffff1673ffffffffffffffffffffffffffffffffffffffff16815260200190815260200160002060006101000a81548160ff02191690831515021790555060005b600280549050811015611523578173ffffffffffffffffffffffffffffffffffffffff16600282815481106113d2576113d161297e565b5b9060005260206000200160009054906101000a900473ffffffffffffffffffffffffffffffffffffffff1673ffffffffffffffffffffffffffffffffffffffff1603611510576002600160028054905061142c91906129dc565b8154811061143d5761143c61297e565b5b9060005260206000200160009054906101000a900473ffffffffffffffffffffffffffffffffffffffff166002828154811061147c5761147b61297e565b5b9060005260206000200160006101000a81548173ffffffffffffffffffffffffffffffffffffffff021916908373ffffffffffffffffffffffffffffffffffffffff16021790555060028054806114d6576114d5612a10565b5b6001900381819060005260206000200160006101000a81549073ffffffffffffffffffffffffffffffffffffffff02191690559055611523565b808061151b90612a3f565b91505061139a565b508073ffffffffffffffffffffffffffffffffffffffff167f7ca1e5c92caa14aeb7a229ee03587f85703632c5a64824db2598c427be342ad460405160405180910390a250565b60016020528060005260406000206000915054906101000a900460ff1681565b6002818154811061159a57600080fd5b906000526020600020016000915054906101000a900473ffffffffffffffffffffffffffffffffffffffff1681565b60035481565b60008054906101000a900473ffffffffffffffffffffffffffffffffffffffff1673ffffffffffffffffffffffffffffffffffffffff163373ffffffffffffffffffffffffffffffffffffffff161461165d576040517f08c379a0000000000000000000000000000000000000000000000000000000008152600401611654906122ff565b60405180910390fd5b600073ffffffffffffffffffffffffffffffffffffffff168173ffffffffffffffffffffffffffffffffffffffff16036116cc576040517f08c379a00000000000000000000000000000000000000000000000000000000081526004016116c390612ad3565b60405180910390fd5b600160008273ffffffffffffffffffffffffffffffffffffffff1673ffffffffffffffffffffffffffffffffffffffff16815260200190815260200160002060009054906101000a900460ff1615611759576040517f08c379a000000000000000000000000000000000000000000000000000000000815260040161175090612b65565b60405180910390fd5b60018060008373ffffffffffffffffffffffffffffffffffffffff1673ffffffffffffffffffffffffffffffffffffffff16815260200190815260200160002060006101000a81548160ff0219169083151502179055506002819080600181540180825580915050600190039060005260206000200160009091909190916101000a81548173ffffffffffffffffffffffffffffffffffffffff021916908373ffffffffffffffffffffffffffffffffffffffff1602179055508073ffffffffffffffffffffffffffffffffffffffff167f1e462edf6e78c34bc4a636b5e191bc8bfaf7b8d8abf37ff26e530abde04c285160405160405180910390a250565b600160003373ffffffffffffffffffffffffffffffffffffffff1673ffffffffffffffffffffffffffffffffffffffff16815260200190815260200160002060009054906101000a900460ff166118e5576040517f08c379a00000000000000000000000000000000000000000000000000000000081526004016118dc90612bf7565b60405180910390fd5b6000801b600460008381526020019081526020016000206000015403611940576040517f08c379a00000000000000000000000000000000000000000000000000000000081526004016119379061270c565b60405180910390fd5b6004600082815260200190815260200160002060060160149054906101000a900460ff16156119a4576040517f08c379a000000000000000000000000000000000000000000000000000000000815260040161199b90612778565b60405180910390fd5b6005600082815260200190815260200160002060003373ffffffffffffffffffffffffffffffffffffffff1673ffffffffffffffffffffffffffffffffffffffff16815260200190815260200160002060009054906101000a900460ff1615611a42576040517f08c379a0000000000000000000000000000000000000000000000000000000008152600401611a3990612c89565b60405180910390fd5b60016005600083815260200190815260200160002060003373ffffffffffffffffffffffffffffffffffffffff1673ffffffffffffffffffffffffffffffffffffffff16815260200190815260200160002060006101000a81548160ff021916908315150217905550600460008281526020019081526020016000206007016000815480929190611ad290612a3f565b91905055507facac7ab013f95bd9b88cfd8ce7bc8f02d81b017cbd2eb146b440d1ec871612cf8133604051611b08929190612ca9565b60405180910390a150565b60008054906101000a900473ffffffffffffffffffffffffffffffffffffffff1681565b6000604051905090565b600080fd5b600080fd5b600080fd5b600080fd5b6000601f19601f8301169050919050565b7f4e487b7100000000000000000000000000000000000000000000000000000000600052604160045260246000fd5b611b9e82611b55565b810181811067ffffffffffffffff82111715611bbd57611bbc611b66565b5b80604052505050565b6000611bd0611b37565b9050611bdc8282611b95565b919050565b600067ffffffffffffffff821115611bfc57611bfb611b66565b5b611c0582611b55565b9050602081019050919050565b82818337600083830152505050565b6000611c34611c2f84611be1565b611bc6565b905082815260208101848484011115611c5057611c4f611b50565b5b611c5b848285611c12565b509392505050565b600082601f830112611c7857611c77611b4b565b5b8135611c88848260208601611c21565b91505092915050565b600080600080600060a08688031215611cad57611cac611b41565b5b600086013567ffffffffffffffff811115611ccb57611cca611b46565b5b611cd788828901611c63565b955050602086013567ffffffffffffffff811115611cf857611cf7611b46565b5b611d0488828901611c63565b945050604086013567ffffffffffffffff811115611d2557611d24611b46565b5b611d3188828901611c63565b935050606086013567ffffffffffffffff811115611d5257611d51611b46565b5b611d5e88828901611c63565b925050608086013567ffffffffffffffff811115611d7f57611d7e611b46565b5b611d8b88828901611c63565b9150509295509295909350565b6000819050919050565b611dab81611d98565b8114611db657600080fd5b50565b600081359050611dc881611da2565b92915050565b600060208284031215611de457611de3611b41565b5b6000611df284828501611db9565b91505092915050565b611e0481611d98565b82525050565b600081519050919050565b600082825260208201905092915050565b60005b83811015611e44578082015181840152602081019050611e29565b60008484015250505050565b6000611e5b82611e0a565b611e658185611e15565b9350611e75818560208601611e26565b611e7e81611b55565b840191505092915050565b6000819050919050565b611e9c81611e89565b82525050565b60008115159050919050565b611eb781611ea2565b82525050565b600061010082019050611ed3600083018b611dfb565b8181036020830152611ee5818a611e50565b90508181036040830152611ef98189611e50565b90508181036060830152611f0d8188611e50565b90508181036080830152611f218187611e50565b905081810360a0830152611f358186611e50565b9050611f4460c0830185611e93565b611f5160e0830184611eae565b9998505050505050505050565b600073ffffffffffffffffffffffffffffffffffffffff82169050919050565b6000611f8982611f5e565b9050919050565b611f9981611f7e565b8114611fa457600080fd5b50565b600081359050611fb681611f90565b92915050565b60008060408385031215611fd357611fd2611b41565b5b6000611fe185828601611db9565b9250506020611ff285828601611fa7565b9150509250929050565b60006020820190506120116000830184611eae565b92915050565b61202081611f7e565b82525050565b60006101208201905061203c600083018c611dfb565b818103602083015261204e818b611e50565b90508181036040830152612062818a611e50565b905081810360608301526120768189611e50565b9050818103608083015261208a8188611e50565b905081810360a083015261209e8187611e50565b90506120ad60c0830186612017565b6120ba60e0830185611eae565b6120c8610100830184611e93565b9a9950505050505050505050565b6120df81611e89565b81146120ea57600080fd5b50565b6000813590506120fc816120d6565b92915050565b60006020828403121561211857612117611b41565b5b6000612126848285016120ed565b91505092915050565b60006020820190506121446000830184611dfb565b92915050565b600081519050919050565b600082825260208201905092915050565b6000819050602082019050919050565b61217f81611f7e565b82525050565b60006121918383612176565b60208301905092915050565b6000602082019050919050565b60006121b58261214a565b6121bf8185612155565b93506121ca83612166565b8060005b838110156121fb5781516121e28882612185565b97506121ed8361219d565b9250506001810190506121ce565b5085935050505092915050565b6000602082019050818103600083015261222281846121aa565b905092915050565b6000602082840312156122405761223f611b41565b5b600061224e84828501611fa7565b91505092915050565b600060208201905061226c6000830184612017565b92915050565b60006020820190506122876000830184611e93565b92915050565b7f48616e79612061646d696e2079616e67206461706174206d656e6a616c616e6b60008201527f616e2066756e67736920696e6900000000000000000000000000000000000000602082015250565b60006122e9602d83611e15565b91506122f48261228d565b604082019050919050565b60006020820190508181036000830152612318816122dc565b9050919050565b600081905092915050565b600061233582611e0a565b61233f818561231f565b935061234f818560208601611e26565b80840191505092915050565b6000819050919050565b61237661237182611e89565b61235b565b82525050565b6000612388828561232a565b91506123948284612365565b6020820191508190509392505050565b7f4e487b7100000000000000000000000000000000000000000000000000000000600052602260045260246000fd5b600060028204905060018216806123eb57607f821691505b6020821081036123fe576123fd6123a4565b5b50919050565b60008190508160005260206000209050919050565b60006020601f8301049050919050565b600082821b905092915050565b6000600883026124667fffffffffffffffffffffffffffffffffffffffffffffffffffffffffffffffff82612429565b6124708683612429565b95508019841693508086168417925050509392505050565b6000819050919050565b60006124ad6124a86124a384611e89565b612488565b611e89565b9050919050565b6000819050919050565b6124c783612492565b6124db6124d3826124b4565b848454612436565b825550505050565b600090565b6124f06124e3565b6124fb8184846124be565b505050565b5b8181101561251f576125146000826124e8565b600181019050612501565b5050565b601f8211156125645761253581612404565b61253e84612419565b8101602085101561254d578190505b61256161255985612419565b830182612500565b50505b505050565b600082821c905092915050565b600061258760001984600802612569565b1980831691505092915050565b60006125a08383612576565b9150826002028217905092915050565b6125b982611e0a565b67ffffffffffffffff8111156125d2576125d1611b66565b5b6125dc82546123d3565b6125e7828285612523565b600060209050601f83116001811461261a5760008415612608578287015190505b6126128582612594565b86555061267a565b601f19841661262886612404565b60005b828110156126505784890151825560018201915060208501945060208101905061262b565b8683101561266d5784890151612669601f891682612576565b8355505b6001600288020188555050505b505050505050565b60006060820190506126976000830186611dfb565b6126a46020830185612017565b81810360408301526126b68184611e50565b9050949350505050565b7f50726f706f73616c20746964616b20646974656d756b616e0000000000000000600082015250565b60006126f6601883611e15565b9150612701826126c0565b602082019050919050565b60006020820190508181036000830152612725816126e9565b9050919050565b7f50726f706f73616c20737564616820646966696e616c69736173690000000000600082015250565b6000612762601b83611e15565b915061276d8261272c565b602082019050919050565b6000602082019050818103600083015261279181612755565b9050919050565b7f4a756d6c616820706572736574756a75616e2062656c756d206d656e63756b7560008201527f7069000000000000000000000000000000000000000000000000000000000000602082015250565b60006127f4602283611e15565b91506127ff82612798565b604082019050919050565b60006020820190508181036000830152612823816127e7565b9050919050565b60008154612837816123d3565b6128418186611e15565b9450600182166000811461285c5760018114612872576128a5565b60ff1983168652811515602002860193506128a5565b61287b85612404565b60005b8381101561289d5781548189015260018201915060208101905061287e565b808801955050505b50505092915050565b60006060820190506128c36000830186611dfb565b81810360208301526128d5818561282a565b90506128e46040830184611e93565b949350505050565b7f416c616d617420696e692062756b616e2073656f72616e6720617070726f766560008201527f7200000000000000000000000000000000000000000000000000000000000000602082015250565b6000612948602183611e15565b9150612953826128ec565b604082019050919050565b600060208201905081810360008301526129778161293b565b9050919050565b7f4e487b7100000000000000000000000000000000000000000000000000000000600052603260045260246000fd5b7f4e487b7100000000000000000000000000000000000000000000000000000000600052601160045260246000fd5b60006129e782611e89565b91506129f283611e89565b9250828203905081811115612a0a57612a096129ad565b5b92915050565b7f4e487b7100000000000000000000000000000000000000000000000000000000600052603160045260246000fd5b6000612a4a82611e89565b91507fffffffffffffffffffffffffffffffffffffffffffffffffffffffffffffffff8203612a7c57612a7b6129ad565b5b600182019050919050565b7f416c616d617420617070726f76657220746964616b2076616c69640000000000600082015250565b6000612abd601b83611e15565b9150612ac882612a87565b602082019050919050565b60006020820190508181036000830152612aec81612ab0565b9050919050565b7f416c616d617420696e69207375646168206d656e6a61646920617070726f766560008201527f7200000000000000000000000000000000000000000000000000000000000000602082015250565b6000612b4f602183611e15565b9150612b5a82612af3565b604082019050919050565b60006020820190508181036000830152612b7e81612b42565b9050919050565b7f48616e796120617070726f7665722079616e67206461706174206d656e6a616c60008201527f616e6b616e2066756e67736920696e6900000000000000000000000000000000602082015250565b6000612be1603083611e15565b9150612bec82612b85565b604082019050919050565b60006020820190508181036000830152612c1081612bd4565b9050919050565b7f416e6461207375646168206d656e796574756a75692070726f706f73616c206960008201527f6e69000000000000000000000000000000000000000000000000000000000000602082015250565b6000612c73602283611e15565b9150612c7e82612c17565b604082019050919050565b60006020820190508181036000830152612ca281612c66565b9050919050565b6000604082019050612cbe6000830185611dfb565b612ccb6020830184612017565b939250505056fea26469706673582212202680a07a6ac34e7cae57a854b9e563ac4c3ab218936fd23f1d4758c7dca155cb64736f6c63430008130033",
  "immutableReferences": {},
  "source": "// SPDX-License-Identifier: MIT\r\npragma solidity >=0.4.22 <0.9.0;\r\n\r\ncontract BlockchainSertifikasi {\r\n    address public admin;\r\n    \r\n    mapping(address => bool) public isApprover;\r\n    address[] public approverList;\r\n    uint public requiredApprovals;\r\n\r\n    // ... (Struct Proposal dan Sertifikat tidak berubah) ...\r\n    struct Proposal {\r\n        bytes32 proposalId;\r\n        string nama;\r\n        string universitas;\r\n        string jurusan;\r\n        string tanggal;\r\n        string manifestCid;\r\n        address proposer;\r\n        bool isFinalized;\r\n        uint approvalCount;\r\n    }\r\n\r\n    struct Sertifikat {\r\n        bytes32 id;\r\n        string nama;\r\n        string universitas;\r\n        string jurusan;\r\n        string tanggal;\r\n        string manifestCid;\r\n        uint blockNumber;\r\n        bool valid;\r\n    }\r\n\r\n    mapping(bytes32 => Proposal) public proposals;\r\n    mapping(bytes32 => mapping(address => bool)) public approvals;\r\n    mapping(bytes32 => Sertifikat) public daftarSertifikat;\r\n    bytes32[] public allFinalizedIds;\r\n\r\n    event ProposalDiajukan(bytes32 proposalId, address proposer, string manifestCid);\r\n    event ProposalDisetujui(bytes32 proposalId, address approver);\r\n    event SertifikatDifinalisasi(bytes32 id, string manifestCid, uint blockNumber);\r\n    event ApproverDitambahkan(address indexed approver);\r\n    event ApproverDihapus(address indexed approver);\r\n\r\n\r\n    modifier hanyaAdmin() {\r\n        require(msg.sender == admin, \"Hanya admin yang dapat menjalankan fungsi ini\");\r\n        _;\r\n    }\r\n\r\n    modifier hanyaApprover() {\r\n        require(isApprover[msg.sender], \"Hanya approver yang dapat menjalankan fungsi ini\");\r\n        _;\r\n    }\r\n\r\n    // --- CONSTRUCTOR BARU (LEBIH SEDERHANA) ---\r\n    constructor(uint _requiredApprovals) {\r\n        admin = msg.sender;\r\n        // Pastikan jumlah persetujuan yang dibutuhkan valid\r\n        require(_requiredApprovals > 0, \"Jumlah persetujuan harus lebih dari 0\");\r\n        requiredApprovals = _requiredApprovals;\r\n    }\r\n    \r\n    // --- FUNGSI BARU UNTUK MANAJEMEN APPROVER ---\r\n\r\n    /**\r\n     * @dev Menambahkan alamat baru sebagai approver. Hanya bisa dipanggil oleh admin.\r\n     * @param _newApprover Alamat approver yang akan ditambahkan.\r\n     */\r\n    function addApprover(address _newApprover) public hanyaAdmin {\r\n        require(_newApprover != address(0), \"Alamat approver tidak valid\");\r\n        require(!isApprover[_newApprover], \"Alamat ini sudah menjadi approver\");\r\n        \r\n        isApprover[_newApprover] = true;\r\n        approverList.push(_newApprover);\r\n        \r\n        emit ApproverDitambahkan(_newApprover);\r\n    }\r\n\r\n    /**\r\n     * @dev Menghapus approver dari daftar. Hanya bisa dipanggil oleh admin.\r\n     * @param _approverToRemove Alamat approver yang akan dihapus.\r\n     */\r\n    function removeApprover(address _approverToRemove) public hanyaAdmin {\r\n        require(isApprover[_approverToRemove], \"Alamat ini bukan seorang approver\");\r\n        \r\n        // Hapus dari mapping\r\n        isApprover[_approverToRemove] = false;\r\n\r\n        // Hapus dari array 'approverList' dengan metode \"swap and pop\"\r\n        // Ini lebih efisien daripada menggeser semua elemen.\r\n        for (uint i = 0; i < approverList.length; i++) {\r\n            if (approverList[i] == _approverToRemove) {\r\n                // Ganti elemen yang akan dihapus dengan elemen terakhir\r\n                approverList[i] = approverList[approverList.length - 1];\r\n                // Hapus elemen terakhir dari array\r\n                approverList.pop();\r\n                break;\r\n            }\r\n        }\r\n        \r\n        emit ApproverDihapus(_approverToRemove);\r\n    }\r\n\r\n    /**\r\n     * @dev Untuk mendapatkan daftar semua approver saat ini.\r\n     */\r\n    function getApprovers() public view returns (address[] memory) {\r\n        return approverList;\r\n    }\r\n\r\n\r\n    // --- FUNGSI PROPOSAL DAN FINALISASI (TIDAK BERUBAH) ---\r\n    \r\n    function ajukanProposalSertifikat(\r\n        string memory nama,\r\n        string memory universitas,\r\n        string memory jurusan,\r\n        string memory tanggal,\r\n        string memory manifestCid\r\n    ) public hanyaAdmin {\r\n        // ... (logika fungsi ini tetap sama) ...\r\n        bytes32 proposalId = keccak256(abi.encodePacked(manifestCid, block.timestamp));\r\n        \r\n        proposals[proposalId] = Proposal({\r\n            proposalId: proposalId,\r\n            nama: nama,\r\n            universitas: universitas,\r\n            jurusan: jurusan,\r\n            tanggal: tanggal,\r\n            manifestCid: manifestCid,\r\n            proposer: msg.sender,\r\n            isFinalized: false,\r\n            approvalCount: 0\r\n        });\r\n\r\n        emit ProposalDiajukan(proposalId, msg.sender, manifestCid);\r\n    }\r\n\r\n    function setujuiProposal(bytes32 proposalId) public hanyaApprover {\r\n        // ... (logika fungsi ini tetap sama) ...\r\n         require(proposals[proposalId].proposalId != bytes32(0), \"Proposal tidak ditemukan\");\r\n        require(!proposals[proposalId].isFinalized, \"Proposal sudah difinalisasi\");\r\n        require(!approvals[proposalId][msg.sender], \"Anda sudah menyetujui proposal ini\");\r\n\r\n        approvals[proposalId][msg.sender] = true;\r\n        proposals[proposalId].approvalCount++;\r\n\r\n        emit ProposalDisetujui(proposalId, msg.sender);\r\n    }\r\n\r\n    function finalisasiSertifikat(bytes32 proposalId) public hanyaAdmin {\r\n        // ... (logika fungsi ini tetap sama) ...\r\n        Proposal storage p = proposals[proposalId];\r\n        require(p.proposalId != bytes32(0), \"Proposal tidak ditemukan\");\r\n        require(!p.isFinalized, \"Proposal sudah difinalisasi\");\r\n        require(p.approvalCount >= requiredApprovals, \"Jumlah persetujuan belum mencukupi\");\r\n        \r\n        p.isFinalized = true;\r\n        bytes32 sertifikatId = proposalId;\r\n\r\n        daftarSertifikat[sertifikatId] = Sertifikat({\r\n            id: sertifikatId,\r\n            nama: p.nama,\r\n            universitas: p.universitas,\r\n            jurusan: p.jurusan,\r\n            tanggal: p.tanggal,\r\n            manifestCid: p.manifestCid,\r\n            blockNumber: block.number,\r\n            valid: true\r\n        });\r\n\r\n        allFinalizedIds.push(sertifikatId);\r\n        emit SertifikatDifinalisasi(sertifikatId, p.manifestCid, block.number);\r\n    }\r\n}",
  "sourcePath": "D:\\Hamam\\Semester 8\\sertifikat_blockchain\\contracts\\BlockchainSertifikasi.sol",
  "compiler": {
    "name": "solc",
    "version": "0.8.19+commit.7dd6d404.Emscripten.clang"
  },
  "schemaVersion": "3.4.16",
  "updatedAt": "2025-06-20T10:03:09.269Z",
  "networkType": "ethereum",
  "devdoc": {
    "kind": "dev",
    "methods": {
      "addApprover(address)": {
        "details": "Menambahkan alamat baru sebagai approver. Hanya bisa dipanggil oleh admin.",
        "params": {
          "_newApprover": "Alamat approver yang akan ditambahkan."
        }
      },
      "getApprovers()": {
        "details": "Untuk mendapatkan daftar semua approver saat ini."
      },
      "removeApprover(address)": {
        "details": "Menghapus approver dari daftar. Hanya bisa dipanggil oleh admin.",
        "params": {
          "_approverToRemove": "Alamat approver yang akan dihapus."
        }
      }
    },
    "version": 1
  },
  "userdoc": {
    "kind": "user",
    "methods": {},
    "version": 1
  }
}