{
  "contractName": "BlockchainSertifikasi",
  "abi": [
    {
      "inputs": [],
      "stateMutability": "nonpayable",
      "type": "constructor"
    },
    {
      "anonymous": false,
      "inputs": [
        {
          "indexed": false,
          "internalType": "bytes32",
          "name": "id",
          "type": "bytes32"
        },
        {
          "indexed": false,
          "internalType": "string",
          "name": "nama",
          "type": "string"
        },
        {
          "indexed": false,
          "internalType": "string",
          "name": "universitas",
          "type": "string"
        },
        {
          "indexed": false,
          "internalType": "string",
          "name": "jurusan",
          "type": "string"
        },
        {
          "indexed": false,
          "internalType": "string",
          "name": "sertifikatToefl",
          "type": "string"
        },
        {
          "indexed": false,
          "internalType": "string",
          "name": "sertifikatBTA",
          "type": "string"
        },
        {
          "indexed": false,
          "internalType": "string",
          "name": "sertifikatSKP",
          "type": "string"
        },
        {
          "indexed": false,
          "internalType": "string",
          "name": "tanggal",
          "type": "string"
        },
        {
          "indexed": false,
          "internalType": "string",
          "name": "dataHash",
          "type": "string"
        },
        {
          "indexed": false,
          "internalType": "string",
          "name": "urlCid",
          "type": "string"
        },
        {
          "indexed": false,
          "internalType": "uint256",
          "name": "blockNumber",
          "type": "uint256"
        }
      ],
      "name": "SertifikatDiterbitkan",
      "type": "event"
    },
    {
      "inputs": [],
      "name": "admin",
      "outputs": [
        {
          "internalType": "address",
          "name": "",
          "type": "address"
        }
      ],
      "stateMutability": "view",
      "type": "function",
      "constant": true
    },
    {
      "inputs": [
        {
          "internalType": "uint256",
          "name": "",
          "type": "uint256"
        }
      ],
      "name": "allIds",
      "outputs": [
        {
          "internalType": "bytes32",
          "name": "",
          "type": "bytes32"
        }
      ],
      "stateMutability": "view",
      "type": "function",
      "constant": true
    },
    {
      "inputs": [
        {
          "internalType": "bytes32",
          "name": "",
          "type": "bytes32"
        }
      ],
      "name": "daftarSertifikat",
      "outputs": [
        {
          "internalType": "bytes32",
          "name": "id",
          "type": "bytes32"
        },
        {
          "internalType": "string",
          "name": "nama",
          "type": "string"
        },
        {
          "internalType": "string",
          "name": "universitas",
          "type": "string"
        },
        {
          "internalType": "string",
          "name": "jurusan",
          "type": "string"
        },
        {
          "internalType": "string",
          "name": "sertifikatToefl",
          "type": "string"
        },
        {
          "internalType": "string",
          "name": "sertifikatBTA",
          "type": "string"
        },
        {
          "internalType": "string",
          "name": "sertifikatSKP",
          "type": "string"
        },
        {
          "internalType": "string",
          "name": "tanggal",
          "type": "string"
        },
        {
          "internalType": "string",
          "name": "urlCid",
          "type": "string"
        },
        {
          "internalType": "uint256",
          "name": "blockNumber",
          "type": "uint256"
        },
        {
          "internalType": "bool",
          "name": "valid",
          "type": "bool"
        }
      ],
      "stateMutability": "view",
      "type": "function",
      "constant": true
    },
    {
      "inputs": [
        {
          "internalType": "bytes32",
          "name": "",
          "type": "bytes32"
        }
      ],
      "name": "hashById",
      "outputs": [
        {
          "internalType": "string",
          "name": "",
          "type": "string"
        }
      ],
      "stateMutability": "view",
      "type": "function",
      "constant": true
    },
    {
      "inputs": [
        {
          "internalType": "bytes32",
          "name": "",
          "type": "bytes32"
        }
      ],
      "name": "idByHash",
      "outputs": [
        {
          "internalType": "bytes32",
          "name": "",
          "type": "bytes32"
        }
      ],
      "stateMutability": "view",
      "type": "function",
      "constant": true
    },
    {
      "inputs": [
        {
          "internalType": "string",
          "name": "nama",
          "type": "string"
        },
        {
          "internalType": "string",
          "name": "universitas",
          "type": "string"
        },
        {
          "internalType": "string",
          "name": "jurusan",
          "type": "string"
        },
        {
          "internalType": "string",
          "name": "sertifikatToefl",
          "type": "string"
        },
        {
          "internalType": "string",
          "name": "sertifikatBTA",
          "type": "string"
        },
        {
          "internalType": "string",
          "name": "sertifikatSKP",
          "type": "string"
        },
        {
          "internalType": "string",
          "name": "tanggal",
          "type": "string"
        },
        {
          "internalType": "string",
          "name": "dataHash",
          "type": "string"
        },
        {
          "internalType": "string",
          "name": "urlCid",
          "type": "string"
        }
      ],
      "name": "terbitkanSertifikat",
      "outputs": [],
      "stateMutability": "nonpayable",
      "type": "function"
    },
    {
      "inputs": [],
      "name": "getAllIds",
      "outputs": [
        {
          "internalType": "bytes32[]",
          "name": "",
          "type": "bytes32[]"
        }
      ],
      "stateMutability": "view",
      "type": "function",
      "constant": true
    },
    {
      "inputs": [
        {
          "internalType": "bytes32",
          "name": "id",
          "type": "bytes32"
        }
      ],
      "name": "getSertifikat",
      "outputs": [
        {
          "internalType": "string",
          "name": "nama",
          "type": "string"
        },
        {
          "internalType": "string",
          "name": "universitas",
          "type": "string"
        },
        {
          "internalType": "string",
          "name": "jurusan",
          "type": "string"
        },
        {
          "internalType": "string",
          "name": "sertifikatToefl",
          "type": "string"
        },
        {
          "internalType": "string",
          "name": "sertifikatBTA",
          "type": "string"
        },
        {
          "internalType": "string",
          "name": "sertifikatSKP",
          "type": "string"
        },
        {
          "internalType": "string",
          "name": "tanggal",
          "type": "string"
        },
        {
          "internalType": "string",
          "name": "urlCid",
          "type": "string"
        },
        {
          "internalType": "uint256",
          "name": "blockNumber",
          "type": "uint256"
        },
        {
          "internalType": "bool",
          "name": "valid",
          "type": "bool"
        }
      ],
      "stateMutability": "view",
      "type": "function",
      "constant": true
    },
    {
      "inputs": [
        {
          "internalType": "string",
          "name": "dataHash",
          "type": "string"
        }
      ],
      "name": "verifyHash",
      "outputs": [
        {
          "internalType": "bytes32",
          "name": "",
          "type": "bytes32"
        }
      ],
      "stateMutability": "view",
      "type": "function",
      "constant": true
    },
    {
      "inputs": [
        {
          "internalType": "bytes32",
          "name": "id",
          "type": "bytes32"
        }
      ],
      "name": "getHashById",
      "outputs": [
        {
          "internalType": "string",
          "name": "",
          "type": "string"
        }
      ],
      "stateMutability": "view",
      "type": "function",
      "constant": true
    }
  ],
  "bytecode": "0x608060405234801561001057600080fd5b50336000806101000a81548173ffffffffffffffffffffffffffffffffffffffff021916908373ffffffffffffffffffffffffffffffffffffffff16021790555061226b806100606000396000f3fe608060405234801561001057600080fd5b506004361061009e5760003560e01c8063a76a53d611610066578063a76a53d614610192578063aaa44e5c146101c2578063b5f916e4146101e0578063c253c7cc14610210578063f851a440146102405761009e565b80630fd5de5d146100a35780631440c7c5146100bf5780632996ada2146100f9578063692776ea1461013257806386fb281314610162575b600080fd5b6100bd60048036038101906100b8919061145b565b61025e565b005b6100d960048036038101906100d49190611657565b61060c565b6040516100f09b9a99989796959493929190611746565b60405180910390f35b610113600480360381019061010e9190611657565b610ab3565b6040516101299a99989796959493929190611829565b60405180910390f35b61014c60048036038101906101479190611929565b61105e565b6040516101599190611956565b60405180910390f35b61017c60048036038101906101779190611971565b611082565b6040516101899190611956565b60405180910390f35b6101ac60048036038101906101a79190611657565b6110c5565b6040516101b99190611956565b60405180910390f35b6101ca6110dd565b6040516101d79190611a78565b60405180910390f35b6101fa60048036038101906101f59190611657565b611135565b6040516102079190611a9a565b60405180910390f35b61022a60048036038101906102259190611657565b61123d565b6040516102379190611a9a565b60405180910390f35b6102486112dd565b6040516102559190611afd565b60405180910390f35b60008054906101000a900473ffffffffffffffffffffffffffffffffffffffff1673ffffffffffffffffffffffffffffffffffffffff163373ffffffffffffffffffffffffffffffffffffffff16146102ec576040517f08c379a00000000000000000000000000000000000000000000000000000000081526004016102e390611b8a565b60405180910390fd5b6000826040516020016102ff9190611be6565b6040516020818303038152906040528051906020012090506000801b60046000838152602001908152602001600020541461036f576040517f08c379a000000000000000000000000000000000000000000000000000000000815260040161036690611c49565b60405180910390fd5b60008443428d8d60405160200161038a959493929190611c8a565b60405160208183030381529060405280519060200120905060026000828152602001908152602001600020600a0160009054906101000a900460ff1615610406576040517f08c379a00000000000000000000000000000000000000000000000000000000081526004016103fd90611d29565b60405180910390fd5b6040518061016001604052808281526020018c81526020018b81526020018a815260200189815260200188815260200187815260200186815260200184815260200143815260200160011515815250600260008381526020019081526020016000206000820151816000015560208201518160010190816104879190611f55565b50604082015181600201908161049d9190611f55565b5060608201518160030190816104b39190611f55565b5060808201518160040190816104c99190611f55565b5060a08201518160050190816104df9190611f55565b5060c08201518160060190816104f59190611f55565b5060e082015181600701908161050b9190611f55565b506101008201518160080190816105229190611f55565b50610120820151816009015561014082015181600a0160006101000a81548160ff02191690831515021790555090505060018190806001815401808255809150506001900390600052602060002001600090919091909150558360036000838152602001908152602001600020908161059b9190611f55565b508060046000848152602001908152602001600020819055507f47f62da7f85a00886052bd394afbe98aac30969dc4348056617af50e85342fb9818c8c8c8c8c8c8c8c8c436040516105f79b9a99989796959493929190612027565b60405180910390a15050505050505050505050565b600260205280600052604060002060009150905080600001549080600101805461063590611d78565b80601f016020809104026020016040519081016040528092919081815260200182805461066190611d78565b80156106ae5780601f10610683576101008083540402835291602001916106ae565b820191906000526020600020905b81548152906001019060200180831161069157829003601f168201915b5050505050908060020180546106c390611d78565b80601f01602080910402602001604051908101604052809291908181526020018280546106ef90611d78565b801561073c5780601f106107115761010080835404028352916020019161073c565b820191906000526020600020905b81548152906001019060200180831161071f57829003601f168201915b50505050509080600301805461075190611d78565b80601f016020809104026020016040519081016040528092919081815260200182805461077d90611d78565b80156107ca5780601f1061079f576101008083540402835291602001916107ca565b820191906000526020600020905b8154815290600101906020018083116107ad57829003601f168201915b5050505050908060040180546107df90611d78565b80601f016020809104026020016040519081016040528092919081815260200182805461080b90611d78565b80156108585780601f1061082d57610100808354040283529160200191610858565b820191906000526020600020905b81548152906001019060200180831161083b57829003601f168201915b50505050509080600501805461086d90611d78565b80601f016020809104026020016040519081016040528092919081815260200182805461089990611d78565b80156108e65780601f106108bb576101008083540402835291602001916108e6565b820191906000526020600020905b8154815290600101906020018083116108c957829003601f168201915b5050505050908060060180546108fb90611d78565b80601f016020809104026020016040519081016040528092919081815260200182805461092790611d78565b80156109745780601f1061094957610100808354040283529160200191610974565b820191906000526020600020905b81548152906001019060200180831161095757829003601f168201915b50505050509080600701805461098990611d78565b80601f01602080910402602001604051908101604052809291908181526020018280546109b590611d78565b8015610a025780601f106109d757610100808354040283529160200191610a02565b820191906000526020600020905b8154815290600101906020018083116109e557829003601f168201915b505050505090806008018054610a1790611d78565b80601f0160208091040260200160405190810160405280929190818152602001828054610a4390611d78565b8015610a905780601f10610a6557610100808354040283529160200191610a90565b820191906000526020600020905b815481529060010190602001808311610a7357829003601f168201915b50505050509080600901549080600a0160009054906101000a900460ff1690508b565b606080606080606080606080600080600260008c8152602001908152602001600020600a0160009054906101000a900460ff16610b25576040517f08c379a0000000000000000000000000000000000000000000000000000000008152600401610b1c90612183565b60405180910390fd5b6000600260008d81526020019081526020016000206040518061016001604052908160008201548152602001600182018054610b6090611d78565b80601f0160208091040260200160405190810160405280929190818152602001828054610b8c90611d78565b8015610bd95780601f10610bae57610100808354040283529160200191610bd9565b820191906000526020600020905b815481529060010190602001808311610bbc57829003601f168201915b50505050508152602001600282018054610bf290611d78565b80601f0160208091040260200160405190810160405280929190818152602001828054610c1e90611d78565b8015610c6b5780601f10610c4057610100808354040283529160200191610c6b565b820191906000526020600020905b815481529060010190602001808311610c4e57829003601f168201915b50505050508152602001600382018054610c8490611d78565b80601f0160208091040260200160405190810160405280929190818152602001828054610cb090611d78565b8015610cfd5780601f10610cd257610100808354040283529160200191610cfd565b820191906000526020600020905b815481529060010190602001808311610ce057829003601f168201915b50505050508152602001600482018054610d1690611d78565b80601f0160208091040260200160405190810160405280929190818152602001828054610d4290611d78565b8015610d8f5780601f10610d6457610100808354040283529160200191610d8f565b820191906000526020600020905b815481529060010190602001808311610d7257829003601f168201915b50505050508152602001600582018054610da890611d78565b80601f0160208091040260200160405190810160405280929190818152602001828054610dd490611d78565b8015610e215780601f10610df657610100808354040283529160200191610e21565b820191906000526020600020905b815481529060010190602001808311610e0457829003601f168201915b50505050508152602001600682018054610e3a90611d78565b80601f0160208091040260200160405190810160405280929190818152602001828054610e6690611d78565b8015610eb35780601f10610e8857610100808354040283529160200191610eb3565b820191906000526020600020905b815481529060010190602001808311610e9657829003601f168201915b50505050508152602001600782018054610ecc90611d78565b80601f0160208091040260200160405190810160405280929190818152602001828054610ef890611d78565b8015610f455780601f10610f1a57610100808354040283529160200191610f45565b820191906000526020600020905b815481529060010190602001808311610f2857829003601f168201915b50505050508152602001600882018054610f5e90611d78565b80601f0160208091040260200160405190810160405280929190818152602001828054610f8a90611d78565b8015610fd75780601f10610fac57610100808354040283529160200191610fd7565b820191906000526020600020905b815481529060010190602001808311610fba57829003601f168201915b5050505050815260200160098201548152602001600a820160009054906101000a900460ff161515151581525050905080602001518160400151826060015183608001518460a001518560c001518660e001518761010001518861012001518961014001519a509a509a509a509a509a509a509a509a509a50509193959799509193959799565b6001818154811061106e57600080fd5b906000526020600020016000915090505481565b600060046000836040516020016110999190611be6565b604051602081830303815290604052805190602001208152602001908152602001600020549050919050565b60046020528060005260406000206000915090505481565b6060600180548060200260200160405190810160405280929190818152602001828054801561112b57602002820191906000526020600020905b815481526020019060010190808311611117575b5050505050905090565b606060026000838152602001908152602001600020600a0160009054906101000a900460ff1661119a576040517f08c379a000000000000000000000000000000000000000000000000000000000815260040161119190612215565b60405180910390fd5b6003600083815260200190815260200160002080546111b890611d78565b80601f01602080910402602001604051908101604052809291908181526020018280546111e490611d78565b80156112315780601f1061120657610100808354040283529160200191611231565b820191906000526020600020905b81548152906001019060200180831161121457829003601f168201915b50505050509050919050565b6003602052806000526040600020600091509050805461125c90611d78565b80601f016020809104026020016040519081016040528092919081815260200182805461128890611d78565b80156112d55780601f106112aa576101008083540402835291602001916112d5565b820191906000526020600020905b8154815290600101906020018083116112b857829003601f168201915b505050505081565b60008054906101000a900473ffffffffffffffffffffffffffffffffffffffff1681565b6000604051905090565b600080fd5b600080fd5b600080fd5b600080fd5b6000601f19601f8301169050919050565b7f4e487b7100000000000000000000000000000000000000000000000000000000600052604160045260246000fd5b6113688261131f565b810181811067ffffffffffffffff8211171561138757611386611330565b5b80604052505050565b600061139a611301565b90506113a6828261135f565b919050565b600067ffffffffffffffff8211156113c6576113c5611330565b5b6113cf8261131f565b9050602081019050919050565b82818337600083830152505050565b60006113fe6113f9846113ab565b611390565b90508281526020810184848401111561141a5761141961131a565b5b6114258482856113dc565b509392505050565b600082601f83011261144257611441611315565b5b81356114528482602086016113eb565b91505092915050565b60008060008060008060008060006101208a8c03121561147e5761147d61130b565b5b60008a013567ffffffffffffffff81111561149c5761149b611310565b5b6114a88c828d0161142d565b99505060208a013567ffffffffffffffff8111156114c9576114c8611310565b5b6114d58c828d0161142d565b98505060408a013567ffffffffffffffff8111156114f6576114f5611310565b5b6115028c828d0161142d565b97505060608a013567ffffffffffffffff81111561152357611522611310565b5b61152f8c828d0161142d565b96505060808a013567ffffffffffffffff8111156115505761154f611310565b5b61155c8c828d0161142d565b95505060a08a013567ffffffffffffffff81111561157d5761157c611310565b5b6115898c828d0161142d565b94505060c08a013567ffffffffffffffff8111156115aa576115a9611310565b5b6115b68c828d0161142d565b93505060e08a013567ffffffffffffffff8111156115d7576115d6611310565b5b6115e38c828d0161142d565b9250506101008a013567ffffffffffffffff81111561160557611604611310565b5b6116118c828d0161142d565b9150509295985092959850929598565b6000819050919050565b61163481611621565b811461163f57600080fd5b50565b6000813590506116518161162b565b92915050565b60006020828403121561166d5761166c61130b565b5b600061167b84828501611642565b91505092915050565b61168d81611621565b82525050565b600081519050919050565b600082825260208201905092915050565b60005b838110156116cd5780820151818401526020810190506116b2565b60008484015250505050565b60006116e482611693565b6116ee818561169e565b93506116fe8185602086016116af565b6117078161131f565b840191505092915050565b6000819050919050565b61172581611712565b82525050565b60008115159050919050565b6117408161172b565b82525050565b60006101608201905061175c600083018e611684565b818103602083015261176e818d6116d9565b90508181036040830152611782818c6116d9565b90508181036060830152611796818b6116d9565b905081810360808301526117aa818a6116d9565b905081810360a08301526117be81896116d9565b905081810360c08301526117d281886116d9565b905081810360e08301526117e681876116d9565b90508181036101008301526117fb81866116d9565b905061180b61012083018561171c565b611819610140830184611737565b9c9b505050505050505050505050565b6000610140820190508181036000830152611844818d6116d9565b90508181036020830152611858818c6116d9565b9050818103604083015261186c818b6116d9565b90508181036060830152611880818a6116d9565b9050818103608083015261189481896116d9565b905081810360a08301526118a881886116d9565b905081810360c08301526118bc81876116d9565b905081810360e08301526118d081866116d9565b90506118e061010083018561171c565b6118ee610120830184611737565b9b9a5050505050505050505050565b61190681611712565b811461191157600080fd5b50565b600081359050611923816118fd565b92915050565b60006020828403121561193f5761193e61130b565b5b600061194d84828501611914565b91505092915050565b600060208201905061196b6000830184611684565b92915050565b6000602082840312156119875761198661130b565b5b600082013567ffffffffffffffff8111156119a5576119a4611310565b5b6119b18482850161142d565b91505092915050565b600081519050919050565b600082825260208201905092915050565b6000819050602082019050919050565b6119ef81611621565b82525050565b6000611a0183836119e6565b60208301905092915050565b6000602082019050919050565b6000611a25826119ba565b611a2f81856119c5565b9350611a3a836119d6565b8060005b83811015611a6b578151611a5288826119f5565b9750611a5d83611a0d565b925050600181019050611a3e565b5085935050505092915050565b60006020820190508181036000830152611a928184611a1a565b905092915050565b60006020820190508181036000830152611ab481846116d9565b905092915050565b600073ffffffffffffffffffffffffffffffffffffffff82169050919050565b6000611ae782611abc565b9050919050565b611af781611adc565b82525050565b6000602082019050611b126000830184611aee565b92915050565b7f48616e79612061646d696e2079616e67206461706174206d656e6a616c616e6b60008201527f616e2066756e67736920696e6900000000000000000000000000000000000000602082015250565b6000611b74602d8361169e565b9150611b7f82611b18565b604082019050919050565b60006020820190508181036000830152611ba381611b67565b9050919050565b600081905092915050565b6000611bc082611693565b611bca8185611baa565b9350611bda8185602086016116af565b80840191505092915050565b6000611bf28284611bb5565b915081905092915050565b7f4861736820737564616820646967756e616b616e000000000000000000000000600082015250565b6000611c3360148361169e565b9150611c3e82611bfd565b602082019050919050565b60006020820190508181036000830152611c6281611c26565b9050919050565b6000819050919050565b611c84611c7f82611712565b611c69565b82525050565b6000611c968288611bb5565b9150611ca28287611c73565b602082019150611cb28286611c73565b602082019150611cc28285611bb5565b9150611cce8284611bb5565b91508190509695505050505050565b7f536572746966696b617420737564616820616461000000000000000000000000600082015250565b6000611d1360148361169e565b9150611d1e82611cdd565b602082019050919050565b60006020820190508181036000830152611d4281611d06565b9050919050565b7f4e487b7100000000000000000000000000000000000000000000000000000000600052602260045260246000fd5b60006002820490506001821680611d9057607f821691505b602082108103611da357611da2611d49565b5b50919050565b60008190508160005260206000209050919050565b60006020601f8301049050919050565b600082821b905092915050565b600060088302611e0b7fffffffffffffffffffffffffffffffffffffffffffffffffffffffffffffffff82611dce565b611e158683611dce565b95508019841693508086168417925050509392505050565b6000819050919050565b6000611e52611e4d611e4884611712565b611e2d565b611712565b9050919050565b6000819050919050565b611e6c83611e37565b611e80611e7882611e59565b848454611ddb565b825550505050565b600090565b611e95611e88565b611ea0818484611e63565b505050565b5b81811015611ec457611eb9600082611e8d565b600181019050611ea6565b5050565b601f821115611f0957611eda81611da9565b611ee384611dbe565b81016020851015611ef2578190505b611f06611efe85611dbe565b830182611ea5565b50505b505050565b600082821c905092915050565b6000611f2c60001984600802611f0e565b1980831691505092915050565b6000611f458383611f1b565b9150826002028217905092915050565b611f5e82611693565b67ffffffffffffffff811115611f7757611f76611330565b5b611f818254611d78565b611f8c828285611ec8565b600060209050601f831160018114611fbf5760008415611fad578287015190505b611fb78582611f39565b86555061201f565b601f198416611fcd86611da9565b60005b82811015611ff557848901518255600182019150602085019450602081019050611fd0565b86831015612012578489015161200e601f891682611f1b565b8355505b6001600288020188555050505b505050505050565b60006101608201905061203d600083018e611684565b818103602083015261204f818d6116d9565b90508181036040830152612063818c6116d9565b90508181036060830152612077818b6116d9565b9050818103608083015261208b818a6116d9565b905081810360a083015261209f81896116d9565b905081810360c08301526120b381886116d9565b905081810360e08301526120c781876116d9565b90508181036101008301526120dc81866116d9565b90508181036101208301526120f181856116d9565b905061210161014083018461171c565b9c9b505050505050505050505050565b7f536572746966696b617420746964616b20646974656d756b616e20617461752060008201527f746964616b2076616c6964000000000000000000000000000000000000000000602082015250565b600061216d602b8361169e565b915061217882612111565b604082019050919050565b6000602082019050818103600083015261219c81612160565b9050919050565b7f4861736820756e74756b20736572746966696b617420746964616b206469746560008201527f6d756b616e000000000000000000000000000000000000000000000000000000602082015250565b60006121ff60258361169e565b915061220a826121a3565b604082019050919050565b6000602082019050818103600083015261222e816121f2565b905091905056fea2646970667358221220fed0907d31a74028231411fd76657ba9055ed293c968640afb97de1bad42f49564736f6c63430008130033",
  "immutableReferences": {},
  "source": "// SPDX-License-Identifier: MIT\r\npragma solidity >=0.4.22 <0.9.0;\r\n\r\ncontract BlockchainSertifikasi {\r\n    address public admin;\r\n    bytes32[] public allIds;\r\n\r\n    struct Sertifikat {\r\n        bytes32 id;\r\n        string nama;\r\n        string universitas;\r\n        string jurusan;\r\n        string sertifikatToefl; \r\n        string sertifikatBTA; \r\n        string sertifikatSKP;\r\n        string tanggal;\r\n        string urlCid;\r\n        uint blockNumber;   // Nomor blok saat diterbitkan\r\n        bool valid;\r\n    }\r\n\r\n    mapping(bytes32 => Sertifikat) public daftarSertifikat;\r\n    mapping(bytes32 => string) public hashById;\r\n    mapping(bytes32 => bytes32) public idByHash;\r\n\r\n    event SertifikatDiterbitkan(\r\n        bytes32 id,\r\n        string nama,\r\n        string universitas,\r\n        string jurusan,\r\n        string sertifikatToefl,\r\n        string sertifikatBTA,\r\n        string sertifikatSKP,\r\n        string tanggal,\r\n        string dataHash,\r\n        string urlCid,\r\n        uint blockNumber     // Emit nomor blok\r\n    );\r\n\r\n    modifier hanyaAdmin() {\r\n        require(msg.sender == admin, \"Hanya admin yang dapat menjalankan fungsi ini\");\r\n        _;\r\n    }\r\n\r\n    constructor() {\r\n        admin = msg.sender;\r\n    }\r\n\r\n    function terbitkanSertifikat(\r\n        string memory nama,\r\n        string memory universitas,\r\n        string memory jurusan,\r\n        string memory sertifikatToefl,\r\n        string memory sertifikatBTA,\r\n        string memory sertifikatSKP,\r\n        string memory tanggal,\r\n        string memory dataHash,\r\n        string memory urlCid\r\n    ) public hanyaAdmin {\r\n        bytes32 hashKey = keccak256(abi.encodePacked(dataHash));\r\n        require(idByHash[hashKey] == bytes32(0), \"Hash sudah digunakan\");\r\n\r\n        bytes32 id = keccak256(abi.encodePacked(tanggal, block.number, block.timestamp, nama, universitas));\r\n        require(!daftarSertifikat[id].valid, \"Sertifikat sudah ada\");\r\n\r\n        daftarSertifikat[id] = Sertifikat(\r\n            id,\r\n            nama,\r\n            universitas,\r\n            jurusan,\r\n            sertifikatToefl,\r\n            sertifikatBTA,\r\n            sertifikatSKP,\r\n            tanggal,\r\n            urlCid,\r\n            block.number,    // Simpan nomor blok di struct\r\n            true\r\n        );\r\n        allIds.push(id);\r\n        hashById[id] = dataHash;\r\n        idByHash[hashKey] = id;\r\n\r\n        emit SertifikatDiterbitkan(\r\n            id,\r\n            nama,\r\n            universitas,\r\n            jurusan,\r\n            sertifikatToefl,\r\n            sertifikatBTA,\r\n            sertifikatSKP,\r\n            tanggal,\r\n            dataHash,\r\n            urlCid,\r\n            block.number     // Emit nomor blok\r\n        );\r\n    }\r\n\r\n    function getAllIds() public view returns (bytes32[] memory) {\r\n        return allIds;\r\n    }\r\n\r\n    function getSertifikat(bytes32 id) public view returns (\r\n        string memory nama,\r\n        string memory universitas,\r\n        string memory jurusan,\r\n        string memory sertifikatToefl,\r\n        string memory sertifikatBTA,\r\n        string memory sertifikatSKP,\r\n        string memory tanggal,\r\n        string memory urlCid,\r\n        uint blockNumber,\r\n        bool valid\r\n    ) {\r\n        require(daftarSertifikat[id].valid, \"Sertifikat tidak ditemukan atau tidak valid\");\r\n        Sertifikat memory cert = daftarSertifikat[id];\r\n        return (\r\n            cert.nama,\r\n            cert.universitas,\r\n            cert.jurusan,\r\n            cert.sertifikatToefl,\r\n            cert.sertifikatBTA,\r\n            cert.sertifikatSKP,\r\n            cert.tanggal,\r\n            cert.urlCid,\r\n            cert.blockNumber,    // Kembalikan nomor blok\r\n            cert.valid\r\n        );\r\n    }\r\n\r\n    function verifyHash(string memory dataHash) public view returns (bytes32) {\r\n    return idByHash[keccak256(abi.encodePacked(dataHash))];\r\n    }\r\n    function getHashById(bytes32 id) public view returns (string memory) {\r\n        require(daftarSertifikat[id].valid, \"Hash untuk sertifikat tidak ditemukan\");\r\n        return hashById[id];\r\n    }\r\n}\r\n",
  "sourcePath": "D:\\Hamam\\Semester 8\\sertifikat_blockchain\\contracts\\BlockchainSertifikasi.sol",
  "compiler": {
    "name": "solc",
    "version": "0.8.19+commit.7dd6d404.Emscripten.clang"
  },
  "schemaVersion": "3.4.16",
  "updatedAt": "2025-06-19T12:20:03.268Z",
  "networkType": "ethereum",
  "devdoc": {
    "kind": "dev",
    "methods": {},
    "version": 1
  },
  "userdoc": {
    "kind": "user",
    "methods": {},
    "version": 1
  }
}