{
  "contractName": "BlockchainSertifikasiPublik",
  "abi": [
    {
      "anonymous": false,
      "inputs": [
        {
          "indexed": false,
          "internalType": "bytes32",
          "name": "id",
          "type": "bytes32"
        },
        {
          "indexed": false,
          "internalType": "string",
          "name": "nim",
          "type": "string"
        },
        {
          "indexed": false,
          "internalType": "string",
          "name": "universitas",
          "type": "string"
        },
        {
          "indexed": false,
          "internalType": "string",
          "name": "cidDetail",
          "type": "string"
        },
        {
          "indexed": false,
          "internalType": "string",
          "name": "nomerSertifikat",
          "type": "string"
        },
        {
          "indexed": false,
          "internalType": "string",
          "name": "hashMetadata",
          "type": "string"
        }
      ],
      "name": "SertifikatDiterbitkan",
      "type": "event"
    },
    {
      "inputs": [
        {
          "internalType": "uint256",
          "name": "",
          "type": "uint256"
        }
      ],
      "name": "allIds",
      "outputs": [
        {
          "internalType": "bytes32",
          "name": "",
          "type": "bytes32"
        }
      ],
      "stateMutability": "view",
      "type": "function",
      "constant": true
    },
    {
      "inputs": [
        {
          "internalType": "bytes32",
          "name": "",
          "type": "bytes32"
        }
      ],
      "name": "daftarSertifikat",
      "outputs": [
        {
          "internalType": "bytes32",
          "name": "id",
          "type": "bytes32"
        },
        {
          "internalType": "string",
          "name": "nim",
          "type": "string"
        },
        {
          "internalType": "string",
          "name": "universitas",
          "type": "string"
        },
        {
          "internalType": "string",
          "name": "cidDetail",
          "type": "string"
        },
        {
          "internalType": "string",
          "name": "hashMetadata",
          "type": "string"
        },
        {
          "internalType": "string",
          "name": "nomerSertifikat",
          "type": "string"
        },
        {
          "internalType": "uint256",
          "name": "blockNumber",
          "type": "uint256"
        }
      ],
      "stateMutability": "view",
      "type": "function",
      "constant": true
    },
    {
      "inputs": [
        {
          "internalType": "string",
          "name": "",
          "type": "string"
        }
      ],
      "name": "idByHashMetadata",
      "outputs": [
        {
          "internalType": "bytes32",
          "name": "",
          "type": "bytes32"
        }
      ],
      "stateMutability": "view",
      "type": "function",
      "constant": true
    },
    {
      "inputs": [
        {
          "internalType": "string",
          "name": "",
          "type": "string"
        }
      ],
      "name": "idByNIM",
      "outputs": [
        {
          "internalType": "bytes32",
          "name": "",
          "type": "bytes32"
        }
      ],
      "stateMutability": "view",
      "type": "function",
      "constant": true
    },
    {
      "inputs": [
        {
          "components": [
            {
              "internalType": "string",
              "name": "nim",
              "type": "string"
            },
            {
              "internalType": "string",
              "name": "universitas",
              "type": "string"
            },
            {
              "internalType": "string",
              "name": "cidDetail",
              "type": "string"
            },
            {
              "internalType": "string",
              "name": "hashMetadata",
              "type": "string"
            },
            {
              "internalType": "string",
              "name": "nomerSertifikat",
              "type": "string"
            }
          ],
          "internalType": "struct BlockchainSertifikasiPublik.SertifikatInput",
          "name": "_input",
          "type": "tuple"
        }
      ],
      "name": "terbitkanSertifikat",
      "outputs": [],
      "stateMutability": "nonpayable",
      "type": "function"
    },
    {
      "inputs": [],
      "name": "getAllId",
      "outputs": [
        {
          "internalType": "bytes32[]",
          "name": "",
          "type": "bytes32[]"
        }
      ],
      "stateMutability": "view",
      "type": "function",
      "constant": true
    },
    {
      "inputs": [
        {
          "internalType": "bytes32",
          "name": "id",
          "type": "bytes32"
        }
      ],
      "name": "getSertifikatById",
      "outputs": [
        {
          "components": [
            {
              "internalType": "bytes32",
              "name": "id",
              "type": "bytes32"
            },
            {
              "internalType": "string",
              "name": "nim",
              "type": "string"
            },
            {
              "internalType": "string",
              "name": "universitas",
              "type": "string"
            },
            {
              "internalType": "string",
              "name": "cidDetail",
              "type": "string"
            },
            {
              "internalType": "string",
              "name": "hashMetadata",
              "type": "string"
            },
            {
              "internalType": "string",
              "name": "nomerSertifikat",
              "type": "string"
            },
            {
              "internalType": "uint256",
              "name": "blockNumber",
              "type": "uint256"
            }
          ],
          "internalType": "struct BlockchainSertifikasiPublik.Sertifikat",
          "name": "",
          "type": "tuple"
        }
      ],
      "stateMutability": "view",
      "type": "function",
      "constant": true
    },
    {
      "inputs": [
        {
          "internalType": "string",
          "name": "_hashMetadata",
          "type": "string"
        }
      ],
      "name": "findSertifikatHash",
      "outputs": [
        {
          "components": [
            {
              "internalType": "bytes32",
              "name": "id",
              "type": "bytes32"
            },
            {
              "internalType": "string",
              "name": "nim",
              "type": "string"
            },
            {
              "internalType": "string",
              "name": "universitas",
              "type": "string"
            },
            {
              "internalType": "string",
              "name": "cidDetail",
              "type": "string"
            },
            {
              "internalType": "string",
              "name": "hashMetadata",
              "type": "string"
            },
            {
              "internalType": "string",
              "name": "nomerSertifikat",
              "type": "string"
            },
            {
              "internalType": "uint256",
              "name": "blockNumber",
              "type": "uint256"
            }
          ],
          "internalType": "struct BlockchainSertifikasiPublik.Sertifikat",
          "name": "",
          "type": "tuple"
        }
      ],
      "stateMutability": "view",
      "type": "function",
      "constant": true
    }
  ],
  "bytecode": "0x60808060405234610016576111a5908161001c8239f35b600080fdfe6080604052600436101561001257600080fd5b60003560e01c80631440c7c514610daa578063168dc25c14610ca757806324f2e15414610c5e5780634e25532514610c02578063692776ea14610bcb5780638228f8f714610ac6578063883df3e814610a1157638ac1298d1461007457600080fd5b346109f6576003196020368201126109f657600435906001600160401b0382116109f65760a09082360301126109f65760405160a081018181106001600160401b038211176109fb5760405281600401356001600160401b0381116109f6576100e39060043691850101610fe0565b8152602491828101356001600160401b0381116109f65761010a9060043691840101610fe0565b602083015260448101356001600160401b0381116109f6576101329060043691840101610fe0565b604083015260648101356001600160401b0381116109f65761015a9060043691840101610fe0565b60608301526084810135906001600160401b0382116109f65760046101829236920101610fe0565b608082015261019181516110c8565b546109a6576040810151511561097057805160808201516101fa6054604051809360208201954287523360601b60408401526101d68151809260208787019101610f98565b82016101eb8251809360208785019101610f98565b01036034810184520182610ed1565b51902081516020830151604084015160608501516080860151916040519361022185610eb6565b8685526020850195865260408501526060840152608083015260a08201524360c082015282600052600160205260406000209181518355518051906001600160401b03821161061b5781906102796001860154610e7c565b601f811161091d575b50602090601f83116001146108ab576000926108a0575b50508160011b916000199060031b1c19161760018301555b60408101518051906001600160401b03821161061b5781906102d66002860154610e7c565b601f811161084d575b50602090601f83116001146107db576000926107d0575b50508160011b916000199060031b1c19161760028301555b60608101518051906001600160401b03821161061b5781906103336003860154610e7c565b601f811161077d575b50602090601f831160011461070b57600092610700575b50508160011b916000199060031b1c19161760038301555b60808101518051906001600160401b03821161061b5781906103906004860154610e7c565b601f81116106ad575b50602090601f831160011461063b57600092610630575b50508160011b916000199060031b1c19161760048301555b60a08101518051906001600160401b03821161061b576103eb6005850154610e7c565b601f81116105d4575b50602090601f831160011461055f5791806006949260c094600092610554575b50508160011b916000199060031b1c19161760058501555b0151910155600054926801000000000000000084101561054057506104788360017f5ecb617971ba0d0cdf156b624c51c25e9a4bb41111b4d9a37e3ac492cdbe5f0f95016000556110ee565b81549060031b9083821b91600019901b19161790558061049883516110c8565b55806104b7602060608501518160405193828580945193849201610f98565b810160038152030190205561053b82519261052d60208201519161051f604082015161051160606080850151940151956105036040519a8b9a8b5260c060208c015260c08b0190610fbb565b9089820360408b0152610fbb565b908782036060890152610fbb565b908582036080870152610fbb565b9083820360a0850152610fbb565b0390a1005b634e487b7160e01b60009081526041600452fd5b015190503880610414565b906005850160005260206000209160005b601f19851681106105bc5750926006949260019260c09583601f198116106105a3575b505050811b01600585015561042c565b015160001960f88460031b161c19169055388080610593565b91926020600181928685015181550194019201610570565b600585016000526020600020601f840160051c810160208510610614575b601f830160051c820181106106085750506103f4565b600081556001016105f2565b50806105f2565b86634e487b7160e01b60005260416004526000fd5b0151905038806103b0565b9250600485016000526020600020906000935b601f1984168510610692576001945083601f19811610610679575b505050811b0160048301556103c8565b015160001960f88460031b161c19169055388080610669565b8181015183556020948501946001909301929091019061064e565b909150600485016000526020600020601f840160051c8101602085106106f9575b90849392915b601f830160051c820181106106ea575050610399565b600081558594506001016106d4565b50806106ce565b015190503880610353565b9250600385016000526020600020906000935b601f1984168510610762576001945083601f19811610610749575b505050811b01600383015561036b565b015160001960f88460031b161c19169055388080610739565b8181015183556020948501946001909301929091019061071e565b909150600385016000526020600020601f840160051c8101602085106107c9575b90849392915b601f830160051c820181106107ba57505061033c565b600081558594506001016107a4565b508061079e565b0151905038806102f6565b9250600285016000526020600020906000935b601f1984168510610832576001945083601f19811610610819575b505050811b01600283015561030e565b015160001960f88460031b161c19169055388080610809565b818101518355602094850194600190930192909101906107ee565b909150600285016000526020600020601f840160051c810160208510610899575b90849392915b601f830160051c8201811061088a5750506102df565b60008155859450600101610874565b508061086e565b015190503880610299565b9250600185016000526020600020906000935b601f1984168510610902576001945083601f198116106108e9575b505050811b0160018301556102b1565b015160001960f88460031b161c191690553880806108d9565b818101518355602094850194600190930192909101906108be565b909150600185016000526020600020601f840160051c810160208510610969575b90849392915b601f830160051c8201811061095a575050610282565b60008155859450600101610944565b508061093e565b60405162461bcd60e51b815260206004820152600f818401526e10d251081d1a59185ac81d985b1a59608a1b6044820152606490fd5b60405162461bcd60e51b8152602060048201526023818401527f536572746966696b617420756e74756b204e494d20696e69207375646168206160448201526232309760e91b6064820152608490fd5b600080fd5b634e487b7160e01b600052604160045260246000fd5b346109f65760003660031901126109f6576040518060005480835260208093018091600080527f290decd9548b62a8d60345a988386fc84ba6bc95484008f6362f93160ef3e5639060005b86828210610ab2578686610a7282880383610ed1565b604051928392818401908285525180915260408401929160005b828110610a9b57505050500390f35b835185528695509381019392810192600101610a8c565b835485529093019260019283019201610a5c565b346109f65760203660031901126109f657600435610ae2611138565b5080600052600160205260406000205415610b86576000526001602052610b826040600020600660405191610b1683610eb6565b80548352610b2660018201610ef2565b6020840152610b3760028201610ef2565b6040840152610b4860038201610ef2565b6060840152610b5960048201610ef2565b6080840152610b6a60058201610ef2565b60a0840152015460c082015260405191829182611036565b0390f35b60405162461bcd60e51b815260206004820152601b60248201527f536572746966696b617420746964616b20646974656d756b616e2e00000000006044820152606490fd5b346109f65760203660031901126109f6576004356000548110156109f657610bf46020916110ee565b90546040519160031b1c8152f35b346109f65760203660031901126109f6576004356001600160401b0381116109f657610c4b6020610c3881933690600401610fe0565b8160405193828580945193849201610f98565b8101600281520301902054604051908152f35b346109f65760203660031901126109f6576004356001600160401b0381116109f657610c946020610c3881933690600401610fe0565b8101600381520301902054604051908152f35b346109f6576020806003193601126109f6576004356001600160401b0381116109f65781610cdc610cf8923690600401610fe0565b610ce4611138565b508160405193828580945193849201610f98565b8101600381520301902054908115610d4957610b8291600052600181526006604060002060405192610d2984610eb6565b81548452610d3960018301610ef2565b90840152610b3760028201610ef2565b6084906040519062461bcd60e51b82526004820152603460248201527f536572746966696b61742064656e67616e2068617368206d657461646174612060448201527334b734903a34b230b5903234ba32b6bab5b0b71760611b6064820152fd5b346109f65760203660031901126109f657600435600052600160205260406000208054610dd960018301610ef2565b91610e72610de960028301610ef2565b91610e64610df960038301610ef2565b610e56610e0860048501610ef2565b91610e486006610e1a60058801610ef2565b96015497610e3a6040519b8c9b8c5260e060208d015260e08c0190610fbb565b908a820360408c0152610fbb565b9088820360608a0152610fbb565b908682036080880152610fbb565b9084820360a0860152610fbb565b9060c08301520390f35b90600182811c92168015610eac575b6020831014610e9657565b634e487b7160e01b600052602260045260246000fd5b91607f1691610e8b565b60e081019081106001600160401b038211176109fb57604052565b90601f801991011681019081106001600160401b038211176109fb57604052565b9060405191826000825492610f0684610e7c565b908184526001948581169081600014610f755750600114610f32575b5050610f3092500383610ed1565b565b9093915060005260209081600020936000915b818310610f5d575050610f3093508201013880610f22565b85548884018501529485019487945091830191610f45565b915050610f3094506020925060ff191682840152151560051b8201013880610f22565b60005b838110610fab5750506000910152565b8181015183820152602001610f9b565b90602091610fd481518092818552858086019101610f98565b601f01601f1916010190565b81601f820112156109f6578035906001600160401b0382116109fb5760405192611014601f8401601f191660200185610ed1565b828452602083830101116109f657816000926020809301838601378301015290565b602081528151602082015260e060c06110bf6110616020860151846040870152610100860190610fbb565b6110ab611097611083604089015193601f1994858a83030160608b0152610fbb565b6060890151848983030160808a0152610fbb565b6080880151838883030160a0890152610fbb565b9060a0870151908683030184870152610fbb565b93015191015290565b60206110e1918160405193828580945193849201610f98565b8101600281520301902090565b906000918254811015611124578280527f290decd9548b62a8d60345a988386fc84ba6bc95484008f6362f93160ef3e563019190565b634e487b7160e01b83526032600452602483fd5b6040519061114582610eb6565b600060c0838281526060806020830152806040830152808083015280608083015260a0820152015256fea26469706673582212203d882b23a8293ccdad2b0ad422b0b428929ea5a6a21dbdaf1d9e2c348500c06f64736f6c63430008130033",
  "immutableReferences": {},
  "source": "// SPDX-License-Identifier: MIT\r\npragma solidity >=0.4.22 <0.9.0;\r\n\r\ncontract BlockchainSertifikasiPublik { \r\n\r\n    bytes32[] public allIds;\r\n\r\n    struct SertifikatInput {\r\n        string nim;\r\n        string universitas;\r\n        string cidDetail;\r\n        string hashMetadata;\r\n        string nomerSertifikat;\r\n    }\r\n\r\n    struct Sertifikat {\r\n        bytes32 id;\r\n        string nim;\r\n        string universitas;\r\n        string cidDetail;\r\n        string hashMetadata;\r\n        string nomerSertifikat;\r\n        uint blockNumber;\r\n    }\r\n\r\n    mapping(bytes32 => Sertifikat) public daftarSertifikat;\r\n    mapping(string => bytes32) public idByNIM;\r\n    mapping(string => bytes32) public idByHashMetadata;\r\n\r\n    event SertifikatDiterbitkan(\r\n        bytes32 id,\r\n        string nim,\r\n        string universitas,\r\n        string cidDetail,\r\n        string nomerSertifikat,\r\n        string hashMetadata\r\n    );\r\n\r\n    function terbitkanSertifikat(SertifikatInput memory _input) public {\r\n        require(idByNIM[_input.nim] == bytes32(0), \"Sertifikat untuk NIM ini sudah ada.\");\r\n        require(bytes(_input.cidDetail).length > 0, \"CID tidak valid\");\r\n\r\n        bytes32 id = keccak256(abi.encodePacked(block.timestamp, msg.sender, _input.nim, _input.nomerSertifikat));\r\n\r\n        daftarSertifikat[id] = Sertifikat(\r\n            id,\r\n            _input.nim,\r\n            _input.universitas,\r\n            _input.cidDetail,\r\n            _input.hashMetadata,\r\n            _input.nomerSertifikat,\r\n            block.number\r\n        );\r\n        \r\n        allIds.push(id);\r\n        idByNIM[_input.nim] = id;\r\n        idByHashMetadata[_input.hashMetadata] = id;\r\n\r\n        emit SertifikatDiterbitkan(\r\n            id, \r\n            _input.nim, \r\n            _input.universitas, \r\n            _input.cidDetail, \r\n            _input.nomerSertifikat, \r\n            _input.hashMetadata\r\n        );\r\n    }\r\n\r\n    function getAllId() public view returns (bytes32[] memory) {\r\n        return allIds;\r\n    }\r\n\r\n    function getSertifikatById(bytes32 id) public view returns (Sertifikat memory) { \r\n        require(daftarSertifikat[id].id != bytes32(0), \"Sertifikat tidak ditemukan.\");\r\n        return daftarSertifikat[id];\r\n    }\r\n\r\n    function findSertifikatHash(string memory _hashMetadata) public view returns (Sertifikat memory) {\r\n        bytes32 id = idByHashMetadata[_hashMetadata];\r\n        require(id != bytes32(0), \"Sertifikat dengan hash metadata ini tidak ditemukan.\");\r\n        return daftarSertifikat[id];\r\n    }\r\n}",
  "sourcePath": "D:\\Hamam\\Semester 8\\sertifikat_blockchain\\contracts\\BlockchainSertifikasi.sol",
  "compiler": {
    "name": "solc",
    "version": "0.8.19+commit.7dd6d404.Emscripten.clang"
  },
  "schemaVersion": "3.4.16",
  "updatedAt": "2025-07-04T12:01:31.297Z",
  "networkType": "ethereum",
  "devdoc": {
    "kind": "dev",
    "methods": {},
    "version": 1
  },
  "userdoc": {
    "kind": "user",
    "methods": {},
    "version": 1
  }
}