{
  "contractName": "BlockchainSertifikasi",
  "abi": [
    {
      "inputs": [],
      "stateMutability": "nonpayable",
      "type": "constructor"
    },
    {
      "anonymous": false,
      "inputs": [
        {
          "indexed": false,
          "internalType": "bytes32",
          "name": "id",
          "type": "bytes32"
        },
        {
          "indexed": false,
          "internalType": "string",
          "name": "nim",
          "type": "string"
        },
        {
          "indexed": false,
          "internalType": "string",
          "name": "nama",
          "type": "string"
        },
        {
          "indexed": false,
          "internalType": "string",
          "name": "tanggalTerbit",
          "type": "string"
        },
        {
          "indexed": false,
          "internalType": "string",
          "name": "hashMetadata",
          "type": "string"
        }
      ],
      "name": "SertifikatDiterbitkan",
      "type": "event"
    },
    {
      "inputs": [],
      "name": "admin",
      "outputs": [
        {
          "internalType": "address",
          "name": "",
          "type": "address"
        }
      ],
      "stateMutability": "view",
      "type": "function",
      "constant": true
    },
    {
      "inputs": [
        {
          "internalType": "uint256",
          "name": "",
          "type": "uint256"
        }
      ],
      "name": "allIds",
      "outputs": [
        {
          "internalType": "bytes32",
          "name": "",
          "type": "bytes32"
        }
      ],
      "stateMutability": "view",
      "type": "function",
      "constant": true
    },
    {
      "inputs": [
        {
          "internalType": "bytes32",
          "name": "",
          "type": "bytes32"
        }
      ],
      "name": "daftarSertifikat",
      "outputs": [
        {
          "internalType": "bytes32",
          "name": "id",
          "type": "bytes32"
        },
        {
          "internalType": "string",
          "name": "nim",
          "type": "string"
        },
        {
          "internalType": "string",
          "name": "nama",
          "type": "string"
        },
        {
          "internalType": "string",
          "name": "universitas",
          "type": "string"
        },
        {
          "internalType": "string",
          "name": "jurusan",
          "type": "string"
        },
        {
          "internalType": "string",
          "name": "tanggalTerbit",
          "type": "string"
        },
        {
          "internalType": "string",
          "name": "hashMetadata",
          "type": "string"
        },
        {
          "internalType": "string",
          "name": "cidSuratBebasPerpustakaan",
          "type": "string"
        },
        {
          "internalType": "string",
          "name": "cidSuratBebasLaboratorium",
          "type": "string"
        },
        {
          "internalType": "string",
          "name": "cidSuratBebasKeuangan",
          "type": "string"
        },
        {
          "internalType": "string",
          "name": "cidBuktiPenyerahanSkripsi",
          "type": "string"
        },
        {
          "internalType": "string",
          "name": "cidSertifikatToefl",
          "type": "string"
        },
        {
          "internalType": "uint256",
          "name": "blockNumber",
          "type": "uint256"
        },
        {
          "internalType": "bool",
          "name": "valid",
          "type": "bool"
        }
      ],
      "stateMutability": "view",
      "type": "function",
      "constant": true
    },
    {
      "inputs": [
        {
          "internalType": "string",
          "name": "",
          "type": "string"
        }
      ],
      "name": "idByHashMetadata",
      "outputs": [
        {
          "internalType": "bytes32",
          "name": "",
          "type": "bytes32"
        }
      ],
      "stateMutability": "view",
      "type": "function",
      "constant": true
    },
    {
      "inputs": [
        {
          "components": [
            {
              "internalType": "string",
              "name": "nim",
              "type": "string"
            },
            {
              "internalType": "string",
              "name": "nama",
              "type": "string"
            },
            {
              "internalType": "string",
              "name": "universitas",
              "type": "string"
            },
            {
              "internalType": "string",
              "name": "jurusan",
              "type": "string"
            },
            {
              "internalType": "string",
              "name": "tanggalTerbit",
              "type": "string"
            },
            {
              "internalType": "string",
              "name": "hashMetadata",
              "type": "string"
            },
            {
              "internalType": "string",
              "name": "cidSuratBebasPerpustakaan",
              "type": "string"
            },
            {
              "internalType": "string",
              "name": "cidSuratBebasLaboratorium",
              "type": "string"
            },
            {
              "internalType": "string",
              "name": "cidSuratBebasKeuangan",
              "type": "string"
            },
            {
              "internalType": "string",
              "name": "cidBuktiPenyerahanSkripsi",
              "type": "string"
            },
            {
              "internalType": "string",
              "name": "cidSertifikatToefl",
              "type": "string"
            }
          ],
          "internalType": "struct BlockchainSertifikasi.SertifikatInput",
          "name": "_input",
          "type": "tuple"
        }
      ],
      "name": "terbitkanSertifikat",
      "outputs": [],
      "stateMutability": "nonpayable",
      "type": "function"
    },
    {
      "inputs": [
        {
          "internalType": "bytes32",
          "name": "id",
          "type": "bytes32"
        }
      ],
      "name": "getSertifikatById",
      "outputs": [
        {
          "components": [
            {
              "internalType": "bytes32",
              "name": "id",
              "type": "bytes32"
            },
            {
              "internalType": "string",
              "name": "nim",
              "type": "string"
            },
            {
              "internalType": "string",
              "name": "nama",
              "type": "string"
            },
            {
              "internalType": "string",
              "name": "universitas",
              "type": "string"
            },
            {
              "internalType": "string",
              "name": "jurusan",
              "type": "string"
            },
            {
              "internalType": "string",
              "name": "tanggalTerbit",
              "type": "string"
            },
            {
              "internalType": "string",
              "name": "hashMetadata",
              "type": "string"
            },
            {
              "internalType": "string",
              "name": "cidSuratBebasPerpustakaan",
              "type": "string"
            },
            {
              "internalType": "string",
              "name": "cidSuratBebasLaboratorium",
              "type": "string"
            },
            {
              "internalType": "string",
              "name": "cidSuratBebasKeuangan",
              "type": "string"
            },
            {
              "internalType": "string",
              "name": "cidBuktiPenyerahanSkripsi",
              "type": "string"
            },
            {
              "internalType": "string",
              "name": "cidSertifikatToefl",
              "type": "string"
            },
            {
              "internalType": "uint256",
              "name": "blockNumber",
              "type": "uint256"
            },
            {
              "internalType": "bool",
              "name": "valid",
              "type": "bool"
            }
          ],
          "internalType": "struct BlockchainSertifikasi.Sertifikat",
          "name": "",
          "type": "tuple"
        }
      ],
      "stateMutability": "view",
      "type": "function",
      "constant": true
    },
    {
      "inputs": [
        {
          "internalType": "string",
          "name": "_hashMetadata",
          "type": "string"
        }
      ],
      "name": "getSertifikatByHash",
      "outputs": [
        {
          "components": [
            {
              "internalType": "bytes32",
              "name": "id",
              "type": "bytes32"
            },
            {
              "internalType": "string",
              "name": "nim",
              "type": "string"
            },
            {
              "internalType": "string",
              "name": "nama",
              "type": "string"
            },
            {
              "internalType": "string",
              "name": "universitas",
              "type": "string"
            },
            {
              "internalType": "string",
              "name": "jurusan",
              "type": "string"
            },
            {
              "internalType": "string",
              "name": "tanggalTerbit",
              "type": "string"
            },
            {
              "internalType": "string",
              "name": "hashMetadata",
              "type": "string"
            },
            {
              "internalType": "string",
              "name": "cidSuratBebasPerpustakaan",
              "type": "string"
            },
            {
              "internalType": "string",
              "name": "cidSuratBebasLaboratorium",
              "type": "string"
            },
            {
              "internalType": "string",
              "name": "cidSuratBebasKeuangan",
              "type": "string"
            },
            {
              "internalType": "string",
              "name": "cidBuktiPenyerahanSkripsi",
              "type": "string"
            },
            {
              "internalType": "string",
              "name": "cidSertifikatToefl",
              "type": "string"
            },
            {
              "internalType": "uint256",
              "name": "blockNumber",
              "type": "uint256"
            },
            {
              "internalType": "bool",
              "name": "valid",
              "type": "bool"
            }
          ],
          "internalType": "struct BlockchainSertifikasi.Sertifikat",
          "name": "",
          "type": "tuple"
        }
      ],
      "stateMutability": "view",
      "type": "function",
      "constant": true
    }
  ],
  "bytecode": "0x6080806040523461002857600080546001600160a01b03191633179055611bdc908161002e8239f35b600080fdfe6080604052600436101561001257600080fd5b60003560e01c80631440c7c51461161957806324f2e154146115bd578063692776ea146115865780638228f8f7146114c85780638a5eb185146112fb578063a31765b8146100975763f851a4401461006957600080fd5b34610092576000366003190112610092576000546040516001600160a01b039091168152602090f35b600080fd5b3461009257600319602036820112610092576001600160401b03600435116100925761016090600435360301126100925760405161016081018181106001600160401b038211176108fb57604052600435600401356001600160401b0381116100925761010b906004369181350101611917565b8152602460043501356001600160401b03811161009257610133906004369181350101611917565b6020820152604460043501356001600160401b0381116100925761015e906004369181350101611917565b6040820152606460043501356001600160401b03811161009257610189906004369181350101611917565b6060820152608460043501356001600160401b038111610092576101b4906004369181350101611917565b608082015260a460043501356001600160401b038111610092576101df906004369181350101611917565b60a082015260c460043501356001600160401b0381116100925761020a906004369181350101611917565b60c082015260e460043501356001600160401b03811161009257610235906004369181350101611917565b60e082015261010460043501356001600160401b03811161009257610261906004369181350101611917565b6101008201526001600160401b036101246004350135116100925761029136600480356101248101350101611917565b6101208201526001600160401b03610144600435013511610092576102c136600480356101448101350101611917565b6101408201526000546001600160a01b031633036112a0576102e3815161196d565b5461124f576102f560a0820151611993565b546111f95780516020820151610349604080518093602082019542875261032581518092602087870191016118cf565b820161033a82518093602087850191016118cf565b01036020810184520182611808565b519020908051602082015160408301516060840151608085015160a086015160c08701519060e088015192610100890151946101208a0151966101408b0151986040519a6103968c6117ec565b8d8c5260208c015260408b015260608a0152608089015260a088015260c087015260e08601526101008501526101208401526101408301526101608201524361018082015260016101a082015282600052600260205260406000208151815560208201518051906001600160401b0382116108fb57819061041a60018501546117b2565b601f81116111a6575b50602090601f831160011461113457600092611129575b50508160011b916000199060031b1c19161760018201555b60408201518051906001600160401b0382116108fb57819061047760028501546117b2565b601f81116110d6575b50602090601f831160011461106457600092611059575b50508160011b916000199060031b1c19161760028201555b60608201518051906001600160401b0382116108fb5781906104d460038501546117b2565b601f8111611006575b50602090601f8311600114610f9457600092610f89575b50508160011b916000199060031b1c19161760038201555b60808201518051906001600160401b0382116108fb57819061053160048501546117b2565b601f8111610f36575b50602090601f8311600114610ec457600092610eb9575b50508160011b916000199060031b1c19161760048201555b60a08201518051906001600160401b0382116108fb57819061058e60058501546117b2565b601f8111610e66575b50602090601f8311600114610df457600092610de9575b50508160011b916000199060031b1c19161760058201555b60c08201518051906001600160401b0382116108fb5781906105eb60068501546117b2565b601f8111610d96575b50602090601f8311600114610d2457600092610d19575b50508160011b916000199060031b1c19161760068201555b60e08201518051906001600160401b0382116108fb57819061064860078501546117b2565b601f8111610cc6575b50602090601f8311600114610c5457600092610c49575b50508160011b916000199060031b1c19161760078201555b6101008201518051906001600160401b0382116108fb5781906106a660088501546117b2565b601f8111610bf6575b50602090601f8311600114610b8457600092610b79575b50508160011b916000199060031b1c19161760088201555b6101208201518051906001600160401b0382116108fb57819061070460098501546117b2565b601f8111610b26575b50602090601f8311600114610ab457600092610aa9575b50508160011b916000199060031b1c19161760098201555b6101408201518051906001600160401b0382116108fb578190610762600a8501546117b2565b601f8111610a56575b50602090601f83116001146109e4576000926109d9575b50508160011b916000199060031b1c191617600a8201555b6101608201518051906001600160401b0382116108fb576107be600b8401546117b2565b601f8111610992575b50602090601f831160011461091c5791806101a09492600d94600092610911575b50508160011b916000199060031b1c191617600b8201555b610180840151600c82015501910151151560ff8019835416911617905560015491680100000000000000008310156108fb576108638360017ffb6a1f32b3ac84f8a388ea0a30b3304aeede3e165dc0019fe30014f4a5f8988a95016001556119b9565b81549060031b9083821b91600019901b191617905580610883835161196d565b558061089260a0840151611993565b556108f68251926108e86020820151916108da60a06080830151920151936108cc604051988998895260a060208a015260a08901906118f2565b9087820360408901526118f2565b9085820360608701526118f2565b9083820360808501526118f2565b0390a1005b634e487b7160e01b600052604160045260246000fd5b0151905088806107e8565b90600b840160005260206000209160005b601f198516811061097a5750926101a09492600192600d9583601f19811610610961575b505050811b01600b820155610800565b015160001960f88460031b161c19169055888080610951565b9192602060018192868501518155019401920161092d565b600b84016000526020600020601f840160051c8101602085106109d2575b601f830160051c820181106109c65750506107c7565b600081556001016109b0565b50806109b0565b015190508680610782565b9250600a84016000526020600020906000935b601f1984168510610a3b576001945083601f19811610610a22575b505050811b01600a82015561079a565b015160001960f88460031b161c19169055868080610a12565b818101518355602094850194600190930192909101906109f7565b909150600a84016000526020600020601f840160051c810160208510610aa2575b90849392915b601f830160051c82018110610a9357505061076b565b60008155859450600101610a7d565b5080610a77565b015190508680610724565b9250600984016000526020600020906000935b601f1984168510610b0b576001945083601f19811610610af2575b505050811b01600982015561073c565b015160001960f88460031b161c19169055868080610ae2565b81810151835560209485019460019093019290910190610ac7565b909150600984016000526020600020601f840160051c810160208510610b72575b90849392915b601f830160051c82018110610b6357505061070d565b60008155859450600101610b4d565b5080610b47565b0151905086806106c6565b9250600884016000526020600020906000935b601f1984168510610bdb576001945083601f19811610610bc2575b505050811b0160088201556106de565b015160001960f88460031b161c19169055868080610bb2565b81810151835560209485019460019093019290910190610b97565b909150600884016000526020600020601f840160051c810160208510610c42575b90849392915b601f830160051c82018110610c335750506106af565b60008155859450600101610c1d565b5080610c17565b015190508680610668565b9250600784016000526020600020906000935b601f1984168510610cab576001945083601f19811610610c92575b505050811b016007820155610680565b015160001960f88460031b161c19169055868080610c82565b81810151835560209485019460019093019290910190610c67565b909150600784016000526020600020601f840160051c810160208510610d12575b90849392915b601f830160051c82018110610d03575050610651565b60008155859450600101610ced565b5080610ce7565b01519050868061060b565b9250600684016000526020600020906000935b601f1984168510610d7b576001945083601f19811610610d62575b505050811b016006820155610623565b015160001960f88460031b161c19169055868080610d52565b81810151835560209485019460019093019290910190610d37565b909150600684016000526020600020601f840160051c810160208510610de2575b90849392915b601f830160051c82018110610dd35750506105f4565b60008155859450600101610dbd565b5080610db7565b0151905086806105ae565b9250600584016000526020600020906000935b601f1984168510610e4b576001945083601f19811610610e32575b505050811b0160058201556105c6565b015160001960f88460031b161c19169055868080610e22565b81810151835560209485019460019093019290910190610e07565b909150600584016000526020600020601f840160051c810160208510610eb2575b90849392915b601f830160051c82018110610ea3575050610597565b60008155859450600101610e8d565b5080610e87565b015190508680610551565b9250600484016000526020600020906000935b601f1984168510610f1b576001945083601f19811610610f02575b505050811b016004820155610569565b015160001960f88460031b161c19169055868080610ef2565b81810151835560209485019460019093019290910190610ed7565b909150600484016000526020600020601f840160051c810160208510610f82575b90849392915b601f830160051c82018110610f7357505061053a565b60008155859450600101610f5d565b5080610f57565b0151905086806104f4565b9250600384016000526020600020906000935b601f1984168510610feb576001945083601f19811610610fd2575b505050811b01600382015561050c565b015160001960f88460031b161c19169055868080610fc2565b81810151835560209485019460019093019290910190610fa7565b909150600384016000526020600020601f840160051c810160208510611052575b90849392915b601f830160051c820181106110435750506104dd565b6000815585945060010161102d565b5080611027565b015190508680610497565b9250600284016000526020600020906000935b601f19841685106110bb576001945083601f198116106110a2575b505050811b0160028201556104af565b015160001960f88460031b161c19169055868080611092565b81810151835560209485019460019093019290910190611077565b909150600284016000526020600020601f840160051c810160208510611122575b90849392915b601f830160051c82018110611113575050610480565b600081558594506001016110fd565b50806110f7565b01519050868061043a565b9250600184016000526020600020906000935b601f198416851061118b576001945083601f19811610611172575b505050811b016001820155610452565b015160001960f88460031b161c19169055868080611162565b81810151835560209485019460019093019290910190611147565b909150600184016000526020600020601f840160051c8101602085106111f2575b90849392915b601f830160051c820181106111e3575050610423565b600081558594506001016111cd565b50806111c7565b60405162461bcd60e51b815260206004820152602860248201527f4d6574616461746120736572746966696b617420696e69207375646168207465604482015267393230b33a30b91760c11b6064820152608490fd5b60405162461bcd60e51b815260206004820152602360248201527f536572746966696b617420756e74756b204e494d20696e69207375646168206160448201526232309760e91b6064820152608490fd5b60405162461bcd60e51b815260206004820152602d60248201527f48616e79612061646d696e2079616e67206461706174206d656e6a616c616e6b60448201526c616e2066756e67736920696e6960981b6064820152608490fd5b3461009257602080600319360112610092576004356001600160401b038111610092578161133061134c923690600401611917565b611338611b3f565b5081604051938285809451938492016118cf565b810160048152030190205490811561146757611463916000526002815260ff600d60406000206040519361137f856117ec565b8154855261138f60018301611829565b9085015261139f60028201611829565b60408501526113b060038201611829565b60608501526113c160048201611829565b60808501526113d260058201611829565b60a08501526113e360068201611829565b60c08501526113f460078201611829565b60e085015261140560088201611829565b61010085015261141760098201611829565b610120850152611429600a8201611829565b61014085015261143b600b8201611829565b610160850152600c81015461018085015201541615156101a082015260405191829182611a06565b0390f35b6084906040519062461bcd60e51b82526004820152603460248201527f536572746966696b61742064656e67616e2068617368206d657461646174612060448201527334b734903a34b230b5903234ba32b6bab5b0b71760611b6064820152fd5b34610092576020366003190112610092576004356114e4611b3f565b5080600052600260205260ff600d604060002001541615611541576000526002602052611463604060002060ff600d60405192611520846117ec565b8054845261153060018201611829565b602085015261139f60028201611829565b60405162461bcd60e51b815260206004820152601b60248201527f536572746966696b617420746964616b20646974656d756b616e2e00000000006044820152606490fd5b3461009257602036600319011261009257600435600154811015610092576115af6020916119b9565b90546040519160031b1c8152f35b34610092576020366003190112610092576004356001600160401b0381116100925761160660206115f381933690600401611917565b81604051938285809451938492016118cf565b8101600481520301902054604051908152f35b34610092576020366003190112610092576004356000526002602052604060002080546001820161164990611829565b9161165660028201611829565b61166260038301611829565b61166e60048401611829565b61167a60058501611829565b61168660068601611829565b61169260078701611829565b61169e60088801611829565b916116ab60098901611829565b936116b8600a8a01611829565b956116c5600b8b01611829565b97600c8b01549a600d015460ff16996040519d8e9d8e528d6101c090816020820152016116f1916118f2565b8d810360408f0152611702916118f2565b8c810360608e0152611713916118f2565b8b810360808d0152611724916118f2565b8a810360a08c0152611735916118f2565b89810360c08b0152611746916118f2565b88810360e08a0152611757916118f2565b878103610100890152611769916118f2565b86810361012088015261177b916118f2565b85810361014087015261178d916118f2565b84810361016086015261179f916118f2565b9161018084015215156101a08301520390f35b90600182811c921680156117e2575b60208310146117cc57565b634e487b7160e01b600052602260045260246000fd5b91607f16916117c1565b6101c081019081106001600160401b038211176108fb57604052565b90601f801991011681019081106001600160401b038211176108fb57604052565b906040519182600082549261183d846117b2565b9081845260019485811690816000146118ac5750600114611869575b505061186792500383611808565b565b9093915060005260209081600020936000915b81831061189457505061186793508201013880611859565b8554888401850152948501948794509183019161187c565b91505061186794506020925060ff191682840152151560051b8201013880611859565b60005b8381106118e25750506000910152565b81810151838201526020016118d2565b9060209161190b815180928185528580860191016118cf565b601f01601f1916010190565b81601f82011215610092578035906001600160401b0382116108fb576040519261194b601f8401601f191660200185611808565b8284526020838301011161009257816000926020809301838601378301015290565b60206119869181604051938285809451938492016118cf565b8101600381520301902090565b60206119ac9181604051938285809451938492016118cf565b8101600481520301902090565b6001548110156119f05760016000527fb10e2d527612073b26eecdfd717e6a320cf44b4afac2b0732d9fcbe2b7fa0cf60190600090565b634e487b7160e01b600052603260045260246000fd5b60208152815160208201526020820151611a2e6101c0918260408501526101e08401906118f2565b92611b28611aaa611a96611a82611a6e611a5a604087015199601f199a8b8b83030160608c01526118f2565b60608701518a8a83030160808b01526118f2565b6080860151898983030160a08a01526118f2565b60a0850151888883030160c08901526118f2565b60c0840151878783030160e08801526118f2565b611b13611afc611ae5611ace60e087015194610100958b8b830301878c01526118f2565b9386015193610120948a8a830301868b01526118f2565b9285015192610140938989830301858a01526118f2565b9184015191610160928888830301848901526118f2565b908301516101809686830301878701526118f2565b93810151906101a091828501520151151591015290565b60405190611b4c826117ec565b60006101a083828152606080602083015280604083015280808301528060808301528060a08301528060c08301528060e083015280610100830152806101208301528061014083015261016082015282610180820152015256fea2646970667358221220d240498b25ea26c1b2bf71829c9b569a0745958add00c3684a4df72cf696de5064736f6c63430008130033",
  "immutableReferences": {},
  "source": "// SPDX-License-Identifier: MIT\r\npragma solidity >=0.4.22 <0.9.0;\r\n\r\ncontract BlockchainSertifikasi { \r\n    address public admin;\r\n    bytes32[] public allIds;\r\n\r\n    struct SertifikatInput {\r\n        string nim;\r\n        string nama;\r\n        string universitas;\r\n        string jurusan;\r\n        string tanggalTerbit;\r\n        string hashMetadata;\r\n        string cidSuratBebasPerpustakaan;\r\n        string cidSuratBebasLaboratorium;\r\n        string cidSuratBebasKeuangan;\r\n        string cidBuktiPenyerahanSkripsi;\r\n        string cidSertifikatToefl;\r\n    }\r\n\r\n    struct Sertifikat {\r\n        bytes32 id;\r\n        string nim;\r\n        string nama;\r\n        string universitas;\r\n        string jurusan;\r\n        string tanggalTerbit;\r\n        string hashMetadata; // <-- DIUBAH MENJADI STRING\r\n        string cidSuratBebasPerpustakaan;\r\n        string cidSuratBebasLaboratorium;\r\n        string cidSuratBebasKeuangan;\r\n        string cidBuktiPenyerahanSkripsi;\r\n        string cidSertifikatToefl;\r\n        uint blockNumber;\r\n        bool valid;\r\n    }\r\n\r\n    mapping(bytes32 => Sertifikat) public daftarSertifikat;\r\n    mapping(string => bytes32) internal idByNIM;\r\n    // Kunci mapping diubah menjadi string karena hashMetadata sekarang string\r\n    mapping(string => bytes32) public idByHashMetadata; // <-- DIUBAH MENJADI STRING KEY\r\n\r\n    event SertifikatDiterbitkan(\r\n        bytes32 id,\r\n        string nim,\r\n        string nama,\r\n        string tanggalTerbit,\r\n        string hashMetadata // <-- DIUBAH MENJADI STRING\r\n    );\r\n\r\n    modifier hanyaAdmin() {\r\n        require(msg.sender == admin, \"Hanya admin yang dapat menjalankan fungsi ini\");\r\n        _;\r\n    }\r\n\r\n    constructor() {\r\n        admin = msg.sender;\r\n    }\r\n\r\n    function terbitkanSertifikat(SertifikatInput memory _input) public hanyaAdmin {\r\n        require(idByNIM[_input.nim] == bytes32(0), \"Sertifikat untuk NIM ini sudah ada.\");\r\n        // Pengecekan keunikan hash menggunakan string key\r\n        require(idByHashMetadata[_input.hashMetadata] == bytes32(0), \"Metadata sertifikat ini sudah terdaftar.\");\r\n\r\n        bytes32 id = keccak256(abi.encodePacked(block.timestamp, _input.nim, _input.nama));\r\n\r\n        daftarSertifikat[id] = Sertifikat(\r\n            id,\r\n            _input.nim,\r\n            _input.nama,\r\n            _input.universitas,\r\n            _input.jurusan,\r\n            _input.tanggalTerbit,\r\n            _input.hashMetadata, // Disimpan sebagai string\r\n            _input.cidSuratBebasPerpustakaan,\r\n            _input.cidSuratBebasLaboratorium,\r\n            _input.cidSuratBebasKeuangan,\r\n            _input.cidBuktiPenyerahanSkripsi,\r\n            _input.cidSertifikatToefl,\r\n            block.number,\r\n            true\r\n        );\r\n        \r\n        allIds.push(id);\r\n        idByNIM[_input.nim] = id;\r\n        idByHashMetadata[_input.hashMetadata] = id;\r\n\r\n        emit SertifikatDiterbitkan(id, _input.nim, _input.nama, _input.tanggalTerbit, _input.hashMetadata);\r\n    }\r\n\r\n    function getSertifikatById(bytes32 id) public view returns (Sertifikat memory) { \r\n        require(daftarSertifikat[id].valid, \"Sertifikat tidak ditemukan.\");\r\n        return daftarSertifikat[id];\r\n    }\r\n\r\n    // Fungsi ini sekarang menerima string sebagai parameter\r\n    function getSertifikatByHash(string memory _hashMetadata) public view returns (Sertifikat memory) { // <-- DIUBAH MENJADI STRING\r\n        bytes32 id = idByHashMetadata[_hashMetadata];\r\n        require(id != bytes32(0), \"Sertifikat dengan hash metadata ini tidak ditemukan.\");\r\n        return daftarSertifikat[id];\r\n    }\r\n}",
  "sourcePath": "D:\\Hamam\\Semester 8\\sertifikat_blockchain\\contracts\\BlockchainSertifikasi.sol",
  "compiler": {
    "name": "solc",
    "version": "0.8.19+commit.7dd6d404.Emscripten.clang"
  },
  "schemaVersion": "3.4.16",
  "updatedAt": "2025-06-21T13:42:44.840Z",
  "networkType": "ethereum",
  "devdoc": {
    "kind": "dev",
    "methods": {},
    "version": 1
  },
  "userdoc": {
    "kind": "user",
    "methods": {},
    "version": 1
  }
}